:020000040000FA
:100000000C9458000C9480000C9480000C94800098
:100010000C9480000C9480000C9480000C94800060
:100020000C9480000C9480000C9480000C94800050
:100030000C9480000C9480000C9480000C94800040
:100040000C94F7050C9480000C94C5050C949F0546
:100050000C9480000C9480000C9480000C94800020
:100060000C9441060C94800000000000250028003C
:100070002B00040404040404040402020202020229
:10008000030303030303010204081020408001025C
:1000900004081020010204081020000000080002DB
:1000A00001000003040700000000000000006007DA
:1000B00011241FBECFEFD8E0DEBFCDBF11E0A0E01E
:1000C000B1E0E8E4FBE102C005900D92A435B10770
:1000D000D9F723E0A4E5B1E001C01D92A238B20730
:1000E000E1F710E0C8E5D0E004C02197FE010E94CE
:1000F000C40AC735D107C9F70E940E080C94A20D97
:100100000C94000008950895AF92BF92CF92DF92B1
:10011000EF92FF920F931F93CF93DF936C017B01BC
:100120008B01040F151FEB015E01AE18BF08C0174D
:10013000D10759F06991D601ED91FC910190F081C0
:10014000E02DC6010995892B79F7C501DF91CF9183
:100150001F910F91FF90EF90DF90CF90BF90AF90E5
:100160000895FC01538D448D252F30E0842F90E0BD
:10017000821B930B541710F0CF96089501970895A2
:10018000FC01918D828D981761F0A28DAE0FBF2F6B
:10019000B11D5D968C91928D9F5F9F73928F90E0C1
:1001A00008958FEF9FEF0895FC01918D828D981730
:1001B00031F0828DE80FF11D858D90E008958FEF6D
:1001C0009FEF0895FC01918D228D892F90E0805C36
:1001D0009F4F821B91098F739927089583E192E0C5
:1001E0000E94E20021E0892B09F420E0822F08958B
:1001F00080E090E0892B29F00E94EE0081110C94A0
:1002000000000895FC01A48DA80FB92FB11DA35AB9
:10021000BF4F2C91848D90E001968F739927848F26
:10022000A689B7892C93A089B1898C918370806449
:100230008C93938D848D981306C00288F389E02DEA
:1002400080818F7D80830895EF92FF920F931F939B
:10025000CF93DF93EC0181E0888F9B8D8C8D981379
:100260001AC0E889F989808185FF15C09FB7F89485
:10027000EE89FF896083E889F989808183708064D1
:1002800080839FBF81E090E0DF91CF911F910F911C
:10029000FF90EF900895F62E0B8D10E00F5F1F4F2B
:1002A0000F731127E02E8C8D8E110CC00FB607FC3A
:1002B000FACFE889F989808185FFF5CFCE010E94C8
:1002C0000201F1CFEB8DEC0FFD2FF11DE35AFF4F33
:1002D000F0829FB7F8940B8FEA89FB898081806256
:1002E000CFCFCF93DF93EC01888D8823B9F0AA8913
:1002F000BB89E889F9898C9185FD03C0808186FDE1
:100300000DC00FB607FCF7CF8C9185FFF2CF80812F
:1003100085FFEDCFCE010E940201E9CFDF91CF91A1
:10032000089590E0FC01E656FF4F2491FC01EA5746
:10033000FF4F3491FC01EE58FF4FE491EE23C9F0DA
:10034000222339F0233001F1A8F4213019F12230B1
:1003500029F1F0E0EE0FFF1FE859FF4FA591B4918E
:100360008FB7F894EC91611126C030953E233C93F1
:100370008FBF08952730A9F02830C9F0243049F7FD
:10038000809180008F7D03C0809180008F77809363
:100390008000DFCF84B58F7784BDDBCF84B58F7DC0
:1003A000FBCF8091B0008F778093B000D2CF809147
:1003B000B0008F7DF9CF3E2BDACF3FB7F894809114
:1003C000070290910802A0910902B0910A0226B595
:1003D000A89B05C02F3F19F00196A11DB11D3FBF7D
:1003E000BA2FA92F982F8827BC01CD01620F711D4C
:1003F000811D911D42E0660F771F881F991F4A9546
:10040000D1F708958F929F92AF92BF92CF92DF92D1
:10041000EF92FF924B015C010E94DD016B017C01B8
:100420000E94DD016C197D098E099F09683E7340A9
:1004300081059105A8F321E0821A9108A108B1086D
:1004400088EEC80E83E0D81EE11CF11C81149104D3
:10045000A104B10429F7FF90EF90DF90CF90BF90F7
:10046000AF909F908F9008952091BC01260F332765
:10047000331F21323105ECF42091E001FC0190E0C2
:1004800080E0243069F082E00895A091BC012191C0
:10049000AC0144565E4FA40FB52FB11D2C930196AD
:1004A000861798F38091BC01680F6093BC0180E0CF
:1004B000089581E008951092E00181E08093E201C7
:1004C0001092E10161E082E10E94910161E083E12B
:1004D0000E949101E9EBF0E080818E7F8083808132
:1004E0008D7F808388E48093B80085E48093BC008E
:1004F0000895CF93DF9391E090939B018823B9F007
:10050000C091B800D091BA008091BC008A7B8093E2
:10051000BC0060E082E10E94910160E083E10E9402
:1005200091010E945B02D093BA00C093B800DF91A2
:10053000CF9108950895E091120280911102E81779
:1005400030F4F0E0EA58FE4F808190E008958FEF9C
:100550009FEF089590911202809111022FEF3FEFCB
:10056000981748F4E92FF0E0EA58FE4F208130E078
:100570009F5F90931202C90108958091110290919A
:100580001202891B990B0895CF92DF92EF92FF928E
:100590000F931F93CF93DF937C01CB018A012091AE
:1005A0007501222389F0EB016B01C40ED51ECC1519
:1005B000DD0569F06991D701ED91FC910190F08121
:1005C000E02DC7010995F3CF642F0E943402C801C2
:1005D000DF91CF911F910F91FF90EF90DF90CF901F
:1005E0000895CF93DF931F92CDB7DEB76983209133
:1005F00075012223F9F020910F02203258F021E0FA
:1006000030E0FC013383228390E080E00F90DF91A3
:10061000CF91089580911002E82FF0E0EB5AFE4F41
:10062000998190838F5F8093100280930F0281E005
:1006300090E0ECCF61E0CE0101960E943402F7CF4A
:10064000CF92DF92EF92FF920F931F93CF93DF939E
:10065000FC01C48121E020937501C09354011092E4
:10066000100210920F028385682B80EB92E00E94AB
:10067000F102D0910F02D13208F092C00E94DD0148
:100680006B017C018091E001811165C082E0809363
:10069000E00181E08093E2018FEF8093DF0110920F
:1006A0000402D0930302A5E5B1E0E3EEF1E080E0BF
:1006B000D81385C01092050280910502CC0FC82B7B
:1006C000C09305028091E101813009F07CC0109255
:1006D000E1010E94DD016B017C01809105028093A4
:1006E000BB008091970190919801A0919901B091E0
:1006F0009A01892B8A2B8B2B99F00E94DD010091A6
:100700009701109198012091990130919A016C19EB
:100710007D098E099F090617170728073907E0F199
:100720008091BC0083FDD9CF85EC8093BC000E94F2
:10073000DD016B017C018091E001823009F445C04C
:100740008091DF018F3F61F18091DF01803241F1C3
:100750008091DF0125C08091970190919801A0912F
:100760009901B0919A01892B8A2B8B2B09F48ACF9E
:100770000E94DD010091970110919801209199014B
:1007800030919A016C197D098E099F090617170788
:100790002807390708F076CF809196010E947902E8
:1007A0001092100210920F0210927501DF91CF91FA
:1007B0001F910F91FF90EF90DF90CF9008959D9142
:1007C00091938F5F75CF85EEB0CF80919701909117
:1007D0009801A0919901B0919A01892B8A2B8B2BBA
:1007E00009F4A9CF0E94DD010091970110919801B1
:1007F0002091990130919A016C197D098E099F0908
:10080000061717072807390708F095CFC5CF0895B1
:1008100090E080E00895FB0101900020E9F7319716
:10082000AF01461B570BDC01ED91FC910280F38177
:10083000E02D099485ED8093BC0080919701909103
:100840009801A0919901B0919A010796A11DB11D3F
:1008500023E0B695A795979587952A95D1F720918E
:10086000BC0024FD03C01092E0010895409197015F
:10087000509198016091990170919A01452B462BF6
:10088000472B69F30097A105B10541F025E32A95AF
:10089000F1F700000197A109B109E1CF809196011C
:1008A0000C9479020F931F93CF938C01C62F0E9453
:1008B00020036C2F6460C8010E9420036C2F6B7FA3
:1008C000C8010E94200383EC90E00197F1F7CF91DB
:1008D0001F910F9108950F931F93CF93DF938C0176
:1008E000D62FC42F607F642B0E94520480E1D89FD2
:1008F000B00111246C2BC801DF91CF911F910F9192
:100900000C945204CF93DF93CDB7DEB728970FB680
:10091000F894DEBF0FBECDBF98E0E0E0F1E0DE016D
:10092000119601900D929A95E1F790917E03981798
:1009300008F48FEF90E0880F991F21E030E02C0F32
:100940003D1F820F931FFC016081606840E086E7D5
:1009500093E028960FB6F894DEBF0FBECDBFDF91AF
:10096000CF910C946B0441E00E946B0481E090E015
:1009700008958F929F92AF92BF92CF92DF92EF92A3
:10098000FF920F931F93CF93DF93CDB7DEB7A1975D
:100990000FB6F894DEBF0FBECDBF8091C0028E307F
:1009A00008F08E508770806480937C0080917A007C
:1009B000806480937A0080917A0086FDFCCF8091DC
:1009C0007800209179008090C2029090C302092C97
:1009D000000CAA08BB08C090C602D090C7020D2C1C
:1009E000000CEE08FF08322F282F032E000C440BBA
:1009F000550B2C193D094E095F096091C402709195
:100A0000C502072E000C880B990B681979098A0911
:100A10009B090E94B40A2091C8023091C902032E9A
:100A2000000C440B550B2C193D094E095F090E941F
:100A3000590A820E931EA41EB51E6401092C000CD7
:100A4000EE08FF08F7FE60C06DE283E192E00E94CD
:100A5000240122273327A9012C193D094E095F09DA
:100A600019A28E010F5D1F4F9AE0C92ED12CE12CE7
:100A7000F12CCA01B901A70196010E94830A605DA9
:100A8000F80162938F01211531054105510589F760
:100A90000115110529F0B80183E192E00E940B04D1
:100AA00068E371E083E192E00E940B0481E00E9420
:100AB00082049F928F928BE391E09F938F938E019C
:100AC0000F5F1F4F1F930F930E94CA0AB80186E75A
:100AD00093E00E940B040F900F900F900F900F90D7
:100AE0000F90A1960FB6F894DEBF0FBECDBFDF9179
:100AF000CF911F910F91FF90EF90DF90CF90BF901B
:100B0000AF909F908F900895A701960119A28E0132
:100B10000F5D1F4F8AE0C82ED12CE12CF12CCA01A9
:100B2000B901A70196010E94830A605DF8016293F2
:100B30008F01211531054105510589F7A9CF1F9274
:100B40000F920FB60F9211242F933F934F935F9301
:100B50006F937F938F939F93AF93BF93EF93FF9385
:100B600083E192E00E940201FF91EF91BF91AF916A
:100B70009F918F917F916F915F914F913F912F91B5
:100B80000F900FBE0F901F9018951F920F920FB6E7
:100B90000F9211242F938F939F93EF93FF93E091E4
:100BA0002302F09124028081E0912902F0912A022F
:100BB00082FD1BC0908180912C028F5F8F732091EA
:100BC0002D02821741F0E0912C02F0E0ED5EFD4F26
:100BD000958F80932C02FF91EF919F918F912F9190
:100BE0000F900FBE0F901F9018958081F4CF1F9229
:100BF0000F920FB60F9211242F933F938F939F93D1
:100C0000AF93BF938091BC029091BD02A091BE02B0
:100C1000B091BF023091060223E0230F2D3758F523
:100C20000196A11DB11D209306028093BC029093F2
:100C3000BD02A093BE02B093BF02809107029091C3
:100C40000802A0910902B0910A020196A11DB11DEE
:100C50008093070290930802A0930902B0930A02BE
:100C6000BF91AF919F918F913F912F910F900FBEA8
:100C70000F901F90189526E8230F0296A11DB11D15
:100C8000D2CF1F920F920FB60F9211242F933F9342
:100C90004F935F936F937F938F939F93AF93BF9384
:100CA000EF93FF938091B900887F803609F44AC0A2
:100CB000F0F5883209F4A7C018F5803109F49BC01B
:100CC000B8F4882309F4F9C0883009F494C0FF917E
:100CD000EF91BF91AF919F918F917F916F915F91B4
:100CE0004F913F912F910F900FBE0F901F9018952D
:100CF000883109F488C0803251F78093DF0114C035
:100D0000803409F49DC040F48033B9F38833F9F698
:100D10008093DF0185ECB0C0803509F485C088354B
:100D200009F496C0883499F60E941A04D0CF883905
:100D300009F48CC038F5883729F050F4883611F062
:100D4000803729F683E08093E0011092DE0157C0DE
:100D5000883809F47BC0803919F0803809F0B7CFA2
:100D60008091DE01803208F071C0E091DE0181E007
:100D70008E0F8093DE018091BB00F0E0E254FE4FC5
:100D800080833DC0803B39F0E0F4803A09F479C0BB
:100D9000883A09F09CCF84E08093E0011092BD0175
:100DA0001092BC01E0910D02F0910E020995809124
:100DB000BC0181110FC081E08093BC0110929C01A5
:100DC00009C0803C09F4A6CF883C09F4A3CF883B36
:100DD00009F07DCFE091BD0181E08E0F8093BD01D0
:100DE000F0E0E456FE4F80818093BB009091BD01FE
:100DF0008091BC0129C0809105028093BB0085ECE5
:100E00008093BC0064CF90910402809103029817F4
:100E100058F5E091040281E08E0F80930402F0E027
:100E2000ED51FE4F8081E9CFE091040281E08E0F09
:100E3000809304028091BB00F0E0ED51FE4F80836F
:100E400090910402809103029817C8F285E8D8CFE8
:100E5000E091040281E08E0F809304028091BB0038
:100E6000F0E0ED51FE4F80838091E20181115CCF73
:100E700081E08093E10184EA8093BC001092E0015C
:100E800026CF85EC8093BC001092E0018091DE01BA
:100E9000803230F4E091DE01F0E0E254FE4F108247
:100EA0006091DE0170E0E0910B02F0910C028EEB9C
:100EB00091E009951092DE010ACF1092DF0134CF44
:100EC000CF93DF93109216021092150288EE93E0F2
:100ED000A0E0B0E08093170290931802A09319024B
:100EE000B0931A022CE031E03093140220931302E5
:100EF00025EC30E03093200220931F0224EC30E0F8
:100F0000309322022093210220EC30E0309324021F
:100F10002093230221EC30E0309326022093250217
:100F200022EC30E0309328022093270226EC30E0B8
:100F300030932A022093290210922C0210922D0243
:100F400010922E0210922F021092B3021092B2024F
:100F50008093B4029093B502A093B602B093B70207
:100F60008EE191E09093B1028093B00210927903E8
:100F70001092780380E391E0909377038093760357
:100F800087E280937A0380E180937F0382E08093FD
:100F90008003109281038FB7F8944091BC02509166
:100FA000BD026091BE027091BF028FBFC6E5D3E063
:100FB000E2EFF2E02AEC32E0199211921192D9019B
:100FC0004D935D936D937D939D01CF01825B9F4F08
:100FD000DC011D921C92B3E0E630FB0769F710922A
:100FE0007503109274038EE090E09093C102809399
:100FF000C0028FEF93E09093C3028093C2021092DD
:10100000C5021092C4021092C7021092C60210923A
:10101000C9021092C802DF91CF910895CF93DF9358
:1010200000D000D0CDB7DEB7789484B5826084BD9F
:1010300084B5816084BD85B5826085BD85B58160DC
:1010400085BD80916E00816080936E00109281005A
:101050008091810082608093810080918100816015
:1010600080938100809180008160809380008091D6
:10107000B10084608093B1008091B0008160809362
:10108000B00080917A00846080937A0080917A0029
:10109000826080937A0080917A00816080937A00E8
:1010A00080917A00806880937A001092C100E0916C
:1010B0002302F091240282E08083E0911F02F091EC
:1010C00020021082E0912102F091220280E18083CF
:1010D00010922B02E0912702F091280286E0808393
:1010E000E0912502F0912602808180618083E09169
:1010F0002502F0912602808188608083E09125029C
:10110000F0912602808180688083E0912502F09131
:10111000260280818F7D808310921202109211022C
:101120001092100210920F020E945B0282E890E07F
:1011300090930E0280930D0283E890E090930C024E
:1011400080930B0210927B0380918003823018F011
:1011500098E090937B0380937E0362E370E080E0ED
:1011600090E00E9402026091810386E793E00E9472
:10117000200368EE73E080E090E00E94020260E3EA
:1011800086E793E00E9452048BE496E40197F1F71E
:1011900060E386E793E00E9452042BE436E4C90141
:1011A0000197F1F760E386E793E00E94520483E53C
:1011B00092E00197F1F760E286E793E00E94520423
:1011C00060917B03606240E086E793E00E946B04DD
:1011D00084E080937C0340E06CE086E793E00E942B
:1011E0006B0440E061E086E793E00E946B048BE3D0
:1011F0009FE10197F1F782E080937D0340E066E094
:1012000086E793E00E946B0440E062E086E793E0AB
:101210000E946B04ABE3BFE11197F1F788E0809384
:10122000810360E086E793E00E94200380917403CD
:10123000909175030A976CF4E2EFF2E090E080E0A1
:1012400021913191232B09F4F0C001968A30910548
:10125000B9F780E00E94820467E471E086E793E0DA
:101260000E940B0401E010E0B2E02B2E312C8FB76E
:10127000F8948090BC029090BD02A090BE02B09005
:10128000BF028FBFE2EFF2E02AEC32E03C832B8317
:101290003A83298390E080E0AF0142595F4FDA0141
:1012A0001D921C92208131813296232B99F1A981C4
:1012B000BA814D915D916D917C911397DC96CD90A3
:1012C000DD90ED90FC90DF9724013501441A550A1A
:1012D000660A770A4C145D046E047F04D8F04C0D46
:1012E0005D1D6E1D7F1D4D935D936D937C931397D4
:1012F0009C012A5A3C4FD9012C91222359F022AD4E
:1013000033AD21153105C9F59F0124593F4FD9014E
:101310000D931C93019629813A812C5F3F4F3A83AC
:1013200029838A30910509F0B7CFF12CE12CCB80CD
:10133000DC8036E9C30ED11CD6018D919C918130A1
:101340009105C1F10297E9F1BFEFEB1AFB0AEB81BE
:10135000FC813296FC83EB83FAE0EF16F10439F757
:1013600020E030E0232B09F482CF0E94EE00882396
:1013700009F47DCF0E9400007ACF7F01BEE4EB0E1E
:10138000F11CD7016D917C91621773071CF6AF01B8
:1013900044595F4FDA010D931C936F5F7F4FD70164
:1013A0006D937C93621773070CF4B4CFDA012D921E
:1013B0003C92B0CFAB81BC819896ED91FC910995A0
:1013C000C3CFAB81BC819896ED91FC91099580913A
:1013D000740390917503009709F4B6CFEB81FC81FB
:1013E00020A531A5232B09F4AFCF11A610A6F70134
:1013F000EA5AFC4F1082D6011D921C92F701EE0FA3
:10140000FF1FEE0FFF1FE653FD4F14AE15AE16AED5
:1014100017AEEB81FC81E858FF4F118210820197D3
:1014200090937503809374038FCFFC01EE0FFF1F21
:10143000EE0FFF1FEA5FFC4F44E650E060E070E013
:101440004083518362837383FC01EE0FFF1FEE50D4
:10145000FD4F29EB34E031832083FC01EE0FFF1FA9
:10146000E25DFC4F11821082FC01EA5AFC4F21E040
:1014700020832FB7F8944091BC025091BD02609137
:10148000BE027091BF022FBF880F991F880F991F4E
:10149000FC01E653FD4F4083518362837383809147
:1014A0007403909175030196909375038093740370
:1014B000D0CE052E97FB1EF400940E94700A57FDB3
:1014C00007D00E94830A07FC03D04EF40C94700AE4
:1014D00050954095309521953F4F4F4F5F4F089560
:1014E00090958095709561957F4F8F4F9F4F089590
:1014F0000E94A50AA59F900DB49F900DA49F800DFA
:10150000911D11240895A1E21A2EAA1BBB1BFD01F7
:101510000DC0AA1FBB1FEE1FFF1FA217B307E407D2
:10152000F50720F0A21BB30BE40BF50B661F771F2A
:10153000881F991F1A9469F760957095809590950A
:101540009B01AC01BD01CF010895A29FB001B39FE3
:10155000C001A39F700D811D1124911DB29F700DBC
:10156000811D1124911D0895DB018F939F930E948B
:10157000780ABF91AF91A29F800D911DA39F900DFE
:10158000B29F900D11240895EE0FFF1F0590F49166
:10159000E02D0994AEE0B0E0E0EDFAE00C94790DB6
:1015A0000D891E8986E08C831A8309838FEF9FE75C
:1015B0009E838D83AE01475E5F4F6F89788DCE012C
:1015C00001960E94ED0A2F813885020F131FF80142
:1015D00010822E96E4E00C94950DABE0B0E0E3EFC2
:1015E000FAE00C946B0D7C013B018A01FC0117822F
:1015F0001682838181FFC8C1CE0101965C01F7018B
:101600009381F30193FD859193FF81913F0188239D
:1016100009F453C1853239F493FD859193FF81918B
:101620003F01853229F4B70190E00E94DD0CE7CF3D
:10163000912C212C312CFFE1F31538F08B3211F174
:1016400090F4803209F1833229F137FC3CC020ED5F
:10165000280F2A3050F536FE20C08AE0989E200DD3
:101660001124922E06C08D3291F0803371F7689468
:1016700030F8F30193FD859193FF81913F01811132
:10168000DACF21C0689431F8689432F8F2CF6894C8
:1016900033F8EFCF689434F8ECCFEAE02E9E200DBB
:1016A0001124222E689435F8E4CF8E3229F436FCCA
:1016B00004C1689436F8DDCF8C3619F4689437F895
:1016C000D8CF8836B1F2982F9F7D95549330E0F0B3
:1016D0008336A1F18337C1F1833509F063C0280156
:1016E000F2E04F0E511CF801C080D180692D70E0EE
:1016F00036FC02C06FEF7FEFC6010E94C70C4C01A1
:10170000689437F882010AC00C5F1F4FFFE3F9832A
:1017100088248394912C6501E89437F833FE2DC01A
:10172000522C8114910471F5552009F468CFB7014A
:1017300080E290E00E94DD0C5A94F6CFF80180819F
:1017400089830E5F1F4FE4CF2801F2E04F0E511C3A
:10175000F801C080D180692D70E036FC02C06FEFC7
:101760007FEFC6010E94D20C4C018201D5CFB70198
:1017700080E290E00E94DD0C2A942814190409F0FC
:10178000B0F7CECFF60137FC859137FE81916F011E
:10179000B70190E00E94DD0C51105A94F1E08F1ACD
:1017A0009108BFCF843619F0893609F077C0F80167
:1017B00037FE6BC060817181828193810C5F1F4F06
:1017C000F32DFF763F2E97FF09C090958095709579
:1017D00061957F4F8F4F9F4F689437F82AE030E034
:1017E000A5010E940D0DC82ECA188C2C432C36FE64
:1017F0000CC0E89440F8C91440F434FE05C032FC33
:1018000003C0F32DFE7E4F2E892C44FE95C0FE01B1
:10181000EC0DF11D8081803309F087C0242D297ED5
:10182000422E842D8870582E43FC95C040FE8FC0F8
:101830009C2C821418F42C0C922C981844FE91C005
:10184000B70180E390E00E94DD0C42FE09C088E70A
:1018500090E041FE02C088E590E0B7010E94DD0CF7
:10186000C91408F48AC0CA94D12C9FEFC91AD90AA6
:10187000CA0CDB1CF60182916F01B70190E00E9457
:10188000DD0CAC14BD04B1F74FCF60817181072E20
:10189000000C880B990B0E5F1F4F92CFD32CE8944E
:1018A000D4F82AE030E0853739F1232D297FD22E74
:1018B0008F3601F148F48835A9F0F70186819781C8
:1018C0002B96E2E10C94870D803749F08837A9F711
:1018D000D4FE02C06894D2F820E130E00DC06894D4
:1018E000D4F8F6CF34FE03C0822F8660D82E20E1D4
:1018F00032E002C028E030E0F801D7FE0FC060817E
:101900007181828193810C5F1F4FA5010E940D0D93
:10191000C82ECA183D2CE89437F867CF60817181D2
:1019200090E080E00E5F1F4FF0CF42FC02C0839436
:1019300078CF8394839475CF842D867809F471CF02
:10194000F6CFB70180E290E00E94DD0C8394821410
:10195000C0F3512C73CF522C5818821408F46ECF58
:10196000F8CF842D867809F47BCF8BE241FE80E2AC
:1019700047FC8DE2B70190E071CFB70180E390E0C2
:101980000E94DD0C9A946CCF8FEF9FEF99CFFC01F2
:101990000590615070400110D8F7809590958E0F9A
:1019A0009F1F0895FC016150704001900110D8F70D
:1019B000809590958E0F9F1F08950F931F93CF933F
:1019C000DF93182F092FEB018B8181FD09C01FEFD9
:1019D0000FEF812F902FDF91CF911F910F910895DD
:1019E00082FF14C02E813F818C819D812817390789
:1019F0003CF4E881F981CF010196998388831083B3
:101A00008E819F8101969F838E83E3CFE885F98540
:101A1000812F0995892BA1F3DACFFA01AA27283063
:101A200051F1203181F1E8946F936E7F6E5F7F4FAB
:101A30008F4F9F4FAF4FB1E03ED0B4E03CD0670F27
:101A4000781F891F9A1FA11D680F791F8A1F911D7A
:101A5000A11D6A0F711D811D911DA11D20D009F4CA
:101A600068943F912AE0269F11243019305D31930C
:101A7000DEF6CF010895462F4770405D4193B3E0F5
:101A80000FD0C9F7F6CF462F4F70405D4A3318F09C
:101A9000495D31FD4052419302D0A9F7EACFB4E04D
:101AA000A6959795879577956795BA95C9F7009705
:101AB0006105710508959B01AC010A2E06945795A6
:101AC000479537952795BA95C9F7620F731F841FFD
:101AD000951FA01D08952F923F924F925F926F9293
:101AE0007F928F929F92AF92BF92CF92DF92EF92AE
:101AF000FF920F931F93CF93DF93CDB7DEB7CA1B2F
:101B0000DB0B0FB6F894DEBF0FBECDBF09942A8859
:101B1000398848885F846E847D848C849B84AA8401
:101B2000B984C884DF80EE80FD800C811B81AA818E
:101B3000B981CE0FD11D0FB6F894DEBF0FBECDBF59
:101B4000ED010895F894FFCF000040001400540008
:101B50000000000024018400B1007101E200C00017
:101B6000D40000000000F102C40208049A02BD0281
:101B7000AA029B0200000000B304840008040704CA
:101B80000D0A0076616C75653A20252D3464005B82
:0C1B90007265672E2076616C75655D0043
:107E0000112484B714BE81FFF0D085E080938100F7
:107E100082E08093C00088E18093C10086E0809377
:107E2000C20080E18093C4008EE0C9D0259A86E02C
:107E300020E33CEF91E0309385002093840096BBD3
:107E4000B09BFECF1D9AA8958150A9F7CC24DD24C4
:107E500088248394B5E0AB2EA1E19A2EF3E0BF2EE7
:107E6000A2D0813461F49FD0082FAFD0023811F036
:107E7000013811F484E001C083E08DD089C08234E0
:107E800011F484E103C0853419F485E0A6D080C0E4
:107E9000853579F488D0E82EFF2485D0082F10E0AE
:107EA000102F00270E291F29000F111F8ED06801E7
:107EB0006FC0863521F484E090D080E0DECF843638
:107EC00009F040C070D06FD0082F6DD080E0C81688
:107ED00080E7D80618F4F601B7BEE895C0E0D1E017
:107EE00062D089930C17E1F7F0E0CF16F0E7DF06D8
:107EF00018F0F601B7BEE89568D007B600FCFDCFD4
:107F0000A601A0E0B1E02C9130E011968C91119780
:107F100090E0982F8827822B932B1296FA010C0160
:107F200087BEE89511244E5F5F4FF1E0A038BF0790
:107F300051F7F601A7BEE89507B600FCFDCF97BE46
:107F4000E89526C08437B1F42ED02DD0F82E2BD052
:107F50003CD0F601EF2C8F010F5F1F4F84911BD097
:107F6000EA94F801C1F70894C11CD11CFA94CF0C13
:107F7000D11C0EC0853739F428D08EE10CD085E9AC
:107F80000AD08FE07ACF813511F488E018D01DD067
:107F900080E101D065CF982F8091C00085FFFCCF94
:107FA0009093C60008958091C00087FFFCCF809118
:107FB000C00084FD01C0A8958091C6000895E0E648
:107FC000F0E098E1908380830895EDDF803219F02E
:107FD00088E0F5DFFFCF84E1DECF1F93182FE3DFCA
:107FE0001150E9F7F2DF1F91089580E0E8DFEE27F6
:047FF000FF270994CA
:027FFE00040479
:00000001FF
