:020000040000FA
:100000000C9462000C94E0060C94B9060C948A00DF
:100010000C948A000C948A000C948A000C948A0038
:100020000C948A000C948A000C948A000C94260884
:100030000C948A000C948A000C948A000C948A0018
:100040000C946F060C948A000C943D060C941706D1
:100050000C948A000C948A000C948A000C948A00F8
:100060000C9407070C948A0000000000230026006F
:10007000290000000008000201000003040700003E
:1000800000000000000000000000250028002B00F8
:1000900000000000240027002A00040404040404D3
:1000A0000404020202020202030303030303010227
:1000B00004081020408001020408102001020408F6
:1000C0001020E20811241FBECFEFD8E0DEBFCDBF65
:1000D00011E0A0E0B1E0E0ECFFE102C005900D927C
:1000E000AC35B107D9F723E0ACE5B1E001C01D9212
:1000F000A73BB207E1F710E0C2E6D0E004C02197C9
:10010000FE010E94370DC136D107C9F70E94CB0905
:100110000C94DE0F0C9400008F929F92AF92BF92CE
:10012000FF920F931F93CF93DF93F090F7022BE092
:100130002F1508F44CC02091F90208E512E0021BCB
:10014000110927FD1395000F111F000F111F20919A
:10015000F802C8E8D0E0C21BD10927FDD395CC0F27
:10016000DD1FCC0FDD1F4E010D2E000CAA08BB08B1
:100170009801012E000C440B550B281939094A0926
:100180005B09DC010E94BB0C24EB30E040E050E056
:100190000E94910C820E931EA41EB51E8C169D0605
:1001A0002CF0E801801691060CF4E4012297CC0FA4
:1001B000DD1F2FB7F8948F2D90E0FC01EE0FFF1F8D
:1001C000E80FF91FEA53FD4FD283C1832FBFDF91A0
:1001D000CF911F910F91FF90BF90AF909F908F9004
:1001E000089508950895AF92BF92CF92DF92EF9253
:1001F000FF920F931F93CF93DF936C017B018B01D1
:10020000040F151FEB015E01AE18BF08C017D10720
:1002100059F06991D601ED91FC910190F081E02DAA
:10022000C6010995892B79F7C501DF91CF911F91FF
:100230000F91FF90EF90DF90CF90BF90AF90089517
:10024000FC01538D448D252F30E0842F90E0821BDC
:10025000930B541710F0CF96089501970895FC0161
:10026000918D828D981761F0A28DAE0FBF2FB11DB9
:100270005D968C91928D9F5F9F73928F90E0089511
:100280008FEF9FEF0895FC01918D828D981731F0CB
:10029000828DE80FF11D858D90E008958FEF9FEF1F
:1002A0000895FC01918D228D892F90E0805C9F4FF5
:1002B000821B91098F73992708958DE192E00E9426
:1002C000510121E0892B09F420E0822F089580E07C
:1002D00090E0892B29F00E945D0181110C940000AF
:1002E0000895FC01A48DA80FB92FB11DA35ABF4FCB
:1002F0002C91848D90E001968F739927848FA68925
:10030000B7892C93A089B1898C91837080648C9378
:10031000938D848D981306C00288F389E02D808127
:100320008F7D80830895EF92FF920F931F93CF9359
:10033000DF93EC0181E0888F9B8D8C8D98131AC020
:10034000E889F989808185FF15C09FB7F894EE8907
:10035000FF896083E889F989808183708064808364
:100360009FBF81E090E0DF91CF911F910F91FF90AF
:10037000EF900895F62E0B8D10E00F5F1F4F0F7357
:100380001127E02E8C8D8E110CC00FB607FCFACF12
:10039000E889F989808185FFF5CFCE010E9471013E
:1003A000F1CFEB8DEC0FFD2FF11DE35AFF4FF082E3
:1003B0009FB7F8940B8FEA89FB8980818062CFCF49
:1003C000CF93DF93EC01888D8823B9F0AA89BB898C
:1003D000E889F9898C9185FD03C0808186FD0DC077
:1003E0000FB607FCF7CF8C9185FFF2CF808185FF98
:1003F000EDCFCE010E947101E9CFDF91CF91089539
:10040000833081F028F4813099F08230A9F008958A
:100410008730A9F08830C9F08430B1F48091800031
:100420008F7D03C0809180008F7780938000089536
:1004300084B58F7784BD089584B58F7DFBCF80917F
:10044000B0008F778093B00008958091B0008F7DC9
:10045000F9CFCF93DF93282F30E0F901EE58FF4F0B
:100460008491F901E255FF4FD491F901E656FF4F0F
:10047000C491CC23A1F081110E940002EC2FF0E086
:10048000EE0FFF1FE859FF4FA591B491EC91ED23BA
:1004900081E090E009F480E0DF91CF91089580E061
:1004A00090E0FACF1F93CF93DF93282F30E0F9012C
:1004B000EE58FF4F8491F901E255FF4FD491F901B5
:1004C000E656FF4FC491CC23A9F0162F81110E944C
:1004D0000002EC2FF0E0EE0FFF1FEA57FF4FA5914F
:1004E000B4918FB7F894EC91111108C0D095DE2328
:1004F000DC938FBFDF91CF911F910895DE2BF8CF52
:100500003FB7F8948091110290911202A0911302CA
:10051000B091140226B5A89B05C02F3F19F0019693
:10052000A11DB11D3FBFBA2FA92F982F8827BC014D
:10053000CD01620F711D811D911D42E0660F771F75
:10054000881F991F4A95D1F708958F929F92AF9275
:10055000BF92CF92DF92EF92FF924B015C010E941B
:1005600080026B017C010E9480026C197D098E095A
:100570009F09683E734081059105A8F321E0821A26
:100580009108A108B10888EEC80E83E0D81EE11CCE
:10059000F11C81149104A104B10429F7FF90EF909C
:1005A000DF90CF90BF90AF909F908F900895089567
:1005B0002091C601260F3327331F21323105ECF479
:1005C0002091EA01FC0190E080E0243069F082E0B3
:1005D0000895A091C6012191AC014A555E4FA40F28
:1005E000B52FB11D2C930196861798F38091C60103
:1005F000680F6093C60180E0089581E0089510922D
:10060000EA0181E08093EC011092EB0161E082E16C
:100610000E94520261E083E10E945202E9EBF0E0A5
:1006200080818E7F808380818D7F808388E480932A
:10063000B80085E48093BC000895CF93DF9391E0E8
:100640009093A5018823B9F0C091B800D091BA0069
:100650008091BC008A7B8093BC0060E082E10E94B4
:10066000520260E083E10E9452020E94FF02D09396
:10067000BA00C093B800DF91CF9108950895E0913A
:100680001C0280911B02E81730F4F0E0E058FE4FA6
:10069000808190E008958FEF9FEF089590911C0264
:1006A00080911B022FEF3FEF981748F4E92FF0E0FD
:1006B000E058FE4F208130E09F5F90931C02C901FB
:1006C000089580911B0290911C02891B990B08953B
:1006D000CF92DF92EF92FF920F931F93CF93DF930E
:1006E0007C01CB018A0120917F01222389F0EB015B
:1006F0006B01C40ED51ECC15DD0569F06991D701DB
:10070000ED91FC910190F081E02DC7010995F3CFA7
:10071000642F0E94D802C801DF91CF911F910F91E1
:10072000FF90EF90DF90CF900895CF93DF931F92CB
:10073000CDB7DEB7698320917F012223F9F02091A4
:100740001902203258F021E030E0FC01338322838B
:1007500090E080E00F90DF91CF91089580911A0290
:10076000E82FF0E0E15AFE4F998190838F5F8093EC
:100770001A028093190281E090E0ECCF61E0CE0193
:1007800001960E94D802F7CFCF92DF92EF92FF92AC
:100790000F931F93CF93DF93FC01C48121E020933B
:1007A0007F01C0935E0110921A0210921902838594
:1007B000682B8AEB92E00E949503D0911902D13206
:1007C00008F092C00E9480026B017C018091EA01D6
:1007D000811165C082E08093EA0181E08093EC01A1
:1007E0008FEF8093E90110920E02D0930D02AFE5D6
:1007F000B1E0EDEEF1E080E0D81385C010920F0279
:1008000080910F02CC0FC82BC0930F028091EB0197
:10081000813009F07CC01092EB010E9480026B01D4
:100820007C0180910F028093BB008091A101909187
:10083000A201A091A301B091A401892B8A2B8B2B3B
:1008400099F00E9480020091A1011091A2012091D3
:10085000A3013091A4016C197D098E099F09061727
:10086000170728073907E0F18091BC0083FDD9CF35
:1008700085EC8093BC000E9480026B017C0180911A
:10088000EA01823009F445C08091E9018F3F61F1AE
:100890008091E901803241F18091E90125C0809188
:1008A000A1019091A201A091A301B091A401892B73
:1008B0008A2B8B2B09F48ACF0E9480020091A10120
:1008C0001091A2012091A3013091A4016C197D091E
:1008D0008E099F09061717072807390708F076CFF2
:1008E0008091A0010E941D0310921A021092190219
:1008F00010927F01DF91CF911F910F91FF90EF90A8
:10090000DF90CF9008959D9191938F5F75CF85EE85
:10091000B0CF8091A1019091A201A091A301B091CB
:10092000A401892B8A2B8B2B09F4A9CF0E9480026A
:100930000091A1011091A2012091A3013091A40185
:100940006C197D098E099F090617170728073907B3
:1009500008F095CFC5CF089590E080E0089585ED2B
:100960008093BC008091A1019091A201A091A3016C
:10097000B091A4010796A11DB11D23E0B695A795DE
:10098000979587952A95D1F72091BC0024FD03C047
:100990001092EA0108954091A1015091A201609145
:1009A000A3017091A401452B462B472B69F30097B7
:1009B000A105B10541F025E32A95F1F70000019763
:1009C000A109B109E1CF8091A0010C941D030F93FF
:1009D0001F93CF938C01C62F0E94C4036C2F6460B9
:1009E000C8010E94C4036C2F6B7FC8010E94C4031E
:1009F00083EC90E00197F1F7CF911F910F9108954B
:100A00000F931F93CF93DF938C01D62FC42F607F5A
:100A1000642B0E94E70480E1D89FB00111246C2B65
:100A2000C801DF91CF911F910F910C94E704EF92D1
:100A3000FF921F93CF93DF93CDB7DEB769970FB6C1
:100A4000F894DEBF0FBECDBF182F7F936F938EE358
:100A500091E09F938F93CE0101967C019F938F939A
:100A60000E943D0D812F98E0E6E0F1E0DE01529614
:100A700001900D929A95E1F7909106030F900F90D7
:100A80000F900F900F900F90911710F48FEF890F28
:100A9000E82FF0E0EE0FFF1FEE0DFF1D618960688B
:100AA00040E08EEF92E00E940005F70101900020E7
:100AB000E9F73197AF014E195F09B7018EEF92E068
:100AC0000E94F30069960FB6F894DEBF0FBECDBF4B
:100AD000DF91CF911F91FF90EF90089580915C017D
:100AE000882351F180910001909101018A30910594
:100AF000B4F42FB7F8944091EB025091EC0260915E
:100B0000ED027091EE022FBF880F991F880F991F79
:100B1000FC01E650FD4F408B518B628B738B81E063
:100B200080935C018091B603811169C064E471E037
:100B300081E090E00C9417058AE590E00E948C001B
:100B40008091B4039091B5030A9764F4E2E3F3E073
:100B500090E080E021913191232B59F001968A3069
:100B60009105C1F78FEF9FEF9093010180930001F2
:100B7000D6CFFC01EE0FFF1FEE0FFF1FEA5CFC4F0C
:100B800048EB5BE060E070E0408B518B628B738BD5
:100B9000FC01EE0FFF1FEE5DFC4F20E036E0318BD5
:100BA000208BFC01EE0FFF1FE25AFC4F21E030E0EA
:100BB000318B208BFC01EA56FC4F20832FB7F89431
:100BC0004091EB025091EC026091ED027091EE02C7
:100BD0002FBFFC01EE0FFF1FEE0FFF1FE650FD4F72
:100BE000408B518B628B738B2091B4033091B50392
:100BF0002F5F3F4F3093B5032093B403B5CF0895D3
:100C000090E080E00E948C0010925C018091B6031D
:100C1000811106C069E471E081E090E00C94170551
:100C2000089541E00E94000581E090E008951F9240
:100C30000F920FB60F9211242F933F934F935F9310
:100C40006F937F938F939F93AF93BF93EF93FF9394
:100C50008DE192E00E947101FF91EF91BF91AF9100
:100C60009F918F917F916F915F914F913F912F91C4
:100C70000F900FBE0F901F9018951F920F920FB6F6
:100C80000F9211242F938F939F93EF93FF93E091F3
:100C90002D02F0912E028081E0913302F091340216
:100CA00082FD1BC09081809136028F5F8F732091EF
:100CB0003702821741F0E0913602F0E0E35EFD4F2B
:100CC000958F80933602FF91EF919F918F912F9195
:100CD0000F900FBE0F901F9018958081F4CF1F9238
:100CE0000F920FB60F9211242F933F938F939F93E0
:100CF000AF93BF938091EB029091EC02A091ED0233
:100D0000B091EE023091100223E0230F2D3758F5F9
:100D10000196A11DB11D209310028093EB029093C8
:100D2000EC02A093ED02B093EE028091110290913B
:100D30001202A0911302B09114020196A11DB11DDF
:100D40008093110290931202A0931302B0931402A5
:100D5000BF91AF919F918F913F912F910F900FBEB7
:100D60000F901F90189526E8230F0296A11DB11D24
:100D7000D2CF1F920F920FB60F9211242F933F9351
:100D80004F935F936F937F938F939F93AF93BF9393
:100D9000EF93FF93E0910401F09105010995FF9114
:100DA000EF91BF91AF919F918F917F916F915F91E3
:100DB0004F913F912F910F900FBE0F901F9018955C
:100DC0001F920F920FB60F9211242F933F934F93C0
:100DD0005F936F937F938F939F93AF93BF93EF93A3
:100DE000FF93E0910201F09103010995FF91EF91CA
:100DF000BF91AF919F918F917F916F915F914F9133
:100E00003F912F910F900FBE0F901F9018951F923A
:100E10000F920FB60F9211242F933F934F935F932E
:100E20006F937F938F939F93AF93BF93EF93FF93B2
:100E30008091B900887F803609F44AC0F0F5883285
:100E400009F4A7C018F5803109F49BC0B8F48823D1
:100E500009F4F9C0883009F494C0FF91EF91BF9173
:100E6000AF919F918F917F916F915F914F913F9142
:100E70002F910F900FBE0F901F901895883109F495
:100E800088C0803251F78093E90114C0803409F49E
:100E90009DC040F48033B9F38833F9F68093E901BB
:100EA00085ECB0C0803509F485C0883509F496C05A
:100EB000883499F60E94AF04D0CF883909F48CC0E9
:100EC00038F5883729F050F4883611F0803729F644
:100ED00083E08093EA011092E80157C0883809F452
:100EE0007BC0803919F0803809F0B7CF8091E801D4
:100EF000803208F071C0E091E80181E08E0F8093AC
:100F0000E8018091BB00F0E0E853FE4F80833DC0D4
:100F1000803B39F0E0F4803A09F479C0883A09F06E
:100F20009CCF84E08093EA011092C7011092C60121
:100F3000E0911702F091180209958091C601811184
:100F40000FC081E08093C6011092A60109C0803CC9
:100F500009F4A6CF883C09F4A3CF883B09F07DCFE4
:100F6000E091C70181E08E0F8093C701F0E0EA5560
:100F7000FE4F80818093BB009091C7018091C60194
:100F800029C080910F028093BB0085EC8093BC0048
:100F900064CF90910E0280910D02981758F5E09160
:100FA0000E0281E08E0F80930E02F0E0E351FE4FBF
:100FB0008081E9CFE0910E0281E08E0F80930E02D6
:100FC0008091BB00F0E0E351FE4F808390910E02D0
:100FD00080910D029817C8F285E8D8CFE0910E02F3
:100FE00081E08E0F80930E028091BB00F0E0E35110
:100FF000FE4F80838091EC0181115CCF81E0809372
:10100000EB0184EA8093BC001092EA0126CF85ECC4
:101010008093BC001092EA018091E801803230F4A4
:10102000E091E801F0E0E853FE4F10826091E801A2
:1010300070E0E0911502F091160288EC91E00995BC
:101040001092E8010ACF1092E90134CF1F920F925B
:101050000FB60F9211242F933F934F935F936F938B
:101060007F938F939F93AF93BF93CF93DF93EF9330
:10107000FF9380915D01C091EA02D0E087FF24C018
:10108000109285001092840080915D018F5F8093A3
:101090005D0180915D01082E000C990B8C179D0756
:1010A00024F480915D018C30C4F180918400909192
:1010B0008500049680349C4908F47AC080918400AD
:1010C00090918500049676C080915D01082E000CF9
:1010D000990B8C179D07C4F6E0915D018E2FEE0FE2
:1010E000990BFC01EE0FFF1FE80FF91FEA53FD4FAC
:1010F000808186FFC9CFE0915D018E2FEE0F990BA5
:10110000FC01EE0FFF1FE80FF91FEA53FD4F80812E
:1011100060E08F730E945202B7CF2091840030911B
:101120008500E0915D018E2FEE0F990BFC01EE0F13
:10113000FF1FE80FF91FEA53FD4F81819281820F53
:10114000931F9093890080938800E0915D018E2F1A
:10115000EE0F990BFC01EE0FFF1FE80FF91FEA538A
:10116000FD4F808186FF11C0E0915D018E2FEE0F53
:10117000990BFC01EE0FFF1FE80FF91FEA53FD4F1B
:10118000808161E08F730E945202FF91EF91DF91A5
:10119000CF91BF91AF919F918F917F916F915F910F
:1011A0004F913F912F910F900FBE0F901F90189568
:1011B00080E49CE990938900809388008FEF80936E
:1011C0005D01E3CFCF93DF931092200210921F02B4
:1011D00088EE93E0A0E0B0E0809321029093220299
:1011E000A0932302B093240222E131E030931E0247
:1011F00020931D0225EC30E030932A02209329022F
:1012000024EC30E030932C0220932B0220EC30E0D1
:1012100030932E0220932D0221EC30E030933002E7
:1012200020932F0222EC30E03093320220933102DF
:1012300026EC30E0309334022093330210923602D1
:101240001092370210923802109239021092BD02A9
:101250001092BC028093BE029093BF02A093C00282
:10126000B093C10284E291E09093BB028093BA02F2
:1012700080E092ECA1E0B0E08093FA029093FB0250
:10128000A093FC02B093FD021092010310920003A0
:1012900086E391E09093FF028093FE0287E28093C1
:1012A000020380E18093070382E080930803109299
:1012B00009038FB7F8944091EB025091EC026091D2
:1012C000ED027091EE028FBFC6E9D3E0E2E3F3E0F6
:1012D0002AE033E0199211921192D9014D935D9356
:1012E0006D937D939D01CF01825B9F4FDC011D9229
:1012F0001C92B3E0E634FB0769F71092B503109235
:10130000B4031092B6038091EA028C3008F03FC01B
:1013100091E0980F9093EA028093F70290E0FC012D
:10132000EE0FFF1FE80FF91FEA53FD4F88EB9BE01C
:101330009283818382E090E09093F0028093EF02A9
:10134000E0EBF0E02491ECE9F0E084918823C1F037
:1013500090E0880F991FFC01E057FF4FC591D49191
:10136000FC01EA57FF4FA591B4919FB7F8943881DB
:10137000822F809583238883EC91E22BEC939FBF8F
:101380001092F2021092F102DF91CF9108958FEF47
:101390008093F702CFCFCF93DF9300D000D0CDB7AB
:1013A000DEB7789484B5826084BD84B5816084BDE5
:1013B00085B5826085BD85B5816085BD80916E00F3
:1013C000816080936E001092810080918100826024
:1013D0008093810080918100816080938100809161
:1013E00080008160809380008091B1008460809350
:1013F000B1008091B00081608093B00080917A004C
:10140000846080937A0080917A00826080937A0071
:1014100080917A00816080937A0080917A00806860
:1014200080937A001092C100C090FA02D090FB0223
:10143000E090FC02F090FD0260E079E08DE390E046
:10144000A70196010E94FA0C215031094109510966
:101450005695479537952795E0912D02F0912E02EC
:1014600082E08083C11441EED406E104F10421F04E
:10147000211580E13807A8F0E0912D02F0912E02AD
:10148000108260E874E88EE190E0A70196010E9466
:10149000FA0C215031094109510956954795379564
:1014A0002795E0912902F0912A023083E0912B02E6
:1014B000F0912C02208310923502E0913102F091DC
:1014C000320286E08083E0912F02F0913002808129
:1014D00080618083E0912F02F091300280818860EA
:1014E0008083E0912F02F0913002808180688083B8
:1014F000E0912F02F091300280818F7D8083809176
:10150000B603811189C010921C0210921B02109226
:101510001A02109219020E94FF0281EF90E090934C
:1015200018028093170282EF90E090931602809346
:1015300015021092030380910803823018F098E09E
:10154000909303038093060362E370E080E090E0F1
:101550000E94A502609109038EEF92E00E94C403ED
:1015600068EE73E080E090E00E94A50260E38EEFF9
:1015700092E00E94E7048BE496E40197F1F760E3C0
:101580008EEF92E00E94E704ABE4B6E41197F1F726
:1015900060E38EEF92E00E94E70483E592E001971A
:1015A000F1F760E28EEF92E00E94E704609103039E
:1015B000606240E08EEF92E00E94000584E080933C
:1015C000040340E06CE08EEF92E00E94000540E0F2
:1015D00061E08EEF92E00E9400058BE39FE10197AE
:1015E000F1F782E08093050340E066E08EEF92E041
:1015F0000E94000540E062E08EEF92E00E9400054C
:10160000EBE3FFE13197F1F788E08093090360E0B5
:101610008EEF92E00E94C4038091F7028C3008F0B4
:1016200068C0E3EBF0E02491EFE9F0E084918823D7
:1016300099F090E0880F991FFC01E057FF4FA591AA
:10164000B491FC01EA57FF4F859194918FB7F894BC
:10165000EC91E22BEC938FBF8091F702282F30E0C2
:10166000F901EE0FFF1FE20FF31FEA53FD4F9081C8
:10167000907C956090831092F8021092F9022CE011
:10168000622F0E942B0D829FB001112430E020E0D8
:10169000AB01420F531FFA01EE0FFF1FE40FF51FBE
:1016A000EA53FD4F908196FD16C02F5F3F4F2C30BF
:1016B000310571F781110FC01092800082E0809394
:1016C00081001092850010928400B19A80916F0081
:1016D000826080936F00E091F7028E2F90E0FC0112
:1016E000EE0FFF1FE80FF91FEA53FD4F8081806462
:1016F00080838091B603811106C06FE471E090E0B1
:1017000080E00E9417058EE695E09093F2028093A8
:10171000F1020E94000601E010E032E0232E312C9D
:101720008091EF020E9429029A8389836AE070E027
:1017300080E090E00E94A5028091EF020E942902C1
:1017400029813A81232B49F0892B39F4E091F10268
:10175000F091F202309709F009958FB7F8948090D4
:10176000EB029090EC02A090ED02B090EE028FBFE1
:10177000E2E3F3E08AEF92E09C838B839A83898390
:1017800090E080E0AF0142595F4FDA011D921C9258
:10179000208131813296232BC9F1A981BA815096DB
:1017A0004D915D916D917C9153979D01245B3F4FCD
:1017B000D901CD90DD90ED90FC9024013501441AC3
:1017C000550A660A770A4C145D046E047F04F0F033
:1017D0004C0D5D1D6E1D7F1DA981BA8150964D93E4
:1017E0005D936D937C9353979C012A563C4FD9018E
:1017F0002C91222359F022AD33AD21153105C9F5C5
:101800009F0124593F4FD9010D931C9301962981C3
:101810003A812C5F3F4F3A8329838A30910509F042
:10182000B1CFF12CE12CCB80DC8036EAC30ED11C89
:10183000D6018D919C9181309105C1F10297E9F11A
:10184000BFEFEB1AFB0AEB81FC813296FC83EB8342
:10185000FAE0EF16F10439F720E030E0232B09F429
:101860005FCF0E945D01882309F45ACF0E940000D7
:1018700057CF7F01BEE4EB0EF11CD7016D917C9137
:10188000621773071CF6AF0144595F4FDA010D93DD
:101890001C936F5F7F4FD7016D937C936217730723
:1018A0000CF4B4CFDA012D923C92B0CFAB81BC8165
:1018B000D896ED91FC910995C3CFAB81BC81D896A8
:1018C000ED91FC9109958091B4039091B503009737
:1018D00009F4B6CFEB81FC8120AD31AD232B09F4A7
:1018E000AFCF11AE10AEF701EA56FC4F1082D60111
:1018F0001D921C92F701EE0FFF1FEE0FFF1FEA5B18
:10190000FC4F1082118212821382EB81FC81E85716
:10191000FF4F1182108201979093B5038093B40317
:101920008FCF052E97FB1EF400940E94A80C57FD44
:1019300007D00E94FA0C07FC03D04EF40C94A80CBC
:1019400050954095309521953F4F4F4F5F4F0895EB
:1019500090958095709561957F4F8F4F9F4F08951B
:101960000E941C0DA59F900DB49F900DA49F800D0B
:10197000911D11240895B7FF0C94B00C0E94B00C77
:10198000821B930B08952F923F924F925F926F921A
:101990007F928F929F92AF92BF92CF92DF92EF92FF
:1019A000FF920F931F93CF93DF93CDB7DEB7CA1B80
:1019B000DB0B0FB6F894DEBF0FBECDBF09942A88AB
:1019C000398848885F846E847D848C849B84AA8453
:1019D000B984C884DF80EE80FD800C811B81AA81E0
:1019E000B981CE0FD11D0FB6F894DEBF0FBECDBFAB
:1019F000ED010895A1E21A2EAA1BBB1BFD010DC02B
:101A0000AA1FBB1FEE1FFF1FA217B307E407F507AE
:101A100020F0A21BB30BE40BF50B661F771F881F8A
:101A2000991F1A9469F760957095809590959B0120
:101A3000AC01BD01CF010895A29FB001B39FC001C9
:101A4000A39F700D811D1124911DB29F700D811DEA
:101A50001124911D0895991B79E004C0991F9617D0
:101A600008F0961B881F7A95C9F780950895EE0FA8
:101A7000FF1F0590F491E02D0994AEE0B0E0E3E49F
:101A8000FDE00C94D10C0D891E8986E08C831A83AD
:101A900009838FEF9FE79E838D83AE01475E5F4F83
:101AA0006F89788DCE0101960E94600D2F81388557
:101AB000020F131FF80110822E96E4E00C94ED0C37
:101AC000ABE0B0E0E6E6FDE00C94C30C7C013B012A
:101AD0008A01FC0117821682838181FFC8C1CE0171
:101AE00001965C01F7019381F30193FD859193FFCA
:101AF00081913F01882309F453C1853239F493FD64
:101B0000859193FF81913F01853229F4B70190E0DF
:101B10000E94500FE7CF912C212C312CFFE1F315BF
:101B200038F08B3211F190F4803209F1833229F1CF
:101B300037FC3CC020ED280F2A3050F536FE20C07F
:101B40008AE0989E200D1124922E06C08D3291F0CD
:101B5000803371F7689430F8F30193FD859193FF1A
:101B600081913F018111DACF21C0689431F86894E6
:101B700032F8F2CF689433F8EFCF689434F8ECCFB2
:101B8000EAE02E9E200D1124222E689435F8E4CF31
:101B90008E3229F436FC04C1689436F8DDCF8C36D9
:101BA00019F4689437F8D8CF8836B1F2982F9F7D12
:101BB00095549330E0F08336A1F18337C1F183353A
:101BC00009F063C02801F2E04F0E511CF801C080FB
:101BD000D180692D70E036FC02C06FEF7FEFC60147
:101BE0000E943A0F4C01689437F882010AC00C5FDA
:101BF0001F4FFFE3F98388248394912C6501E894B7
:101C000037F833FE2DC0522C8114910471F5552004
:101C100009F468CFB70180E290E00E94500F5A9417
:101C2000F6CFF801808189830E5F1F4FE4CF280132
:101C3000F2E04F0E511CF801C080D180692D70E098
:101C400036FC02C06FEF7FEFC6010E94450F4C01CA
:101C50008201D5CFB70180E290E00E94500F2A9414
:101C60002814190409F0B0F7CECFF60137FC85919E
:101C700037FE81916F01B70190E00E94500F511023
:101C80005A94F1E08F1A9108BFCF843619F0893643
:101C900009F077C0F80137FE6BC0608171818281E5
:101CA00093810C5F1F4FF32DFF763F2E97FF09C0E6
:101CB00090958095709561957F4F8F4F9F4F689459
:101CC00037F82AE030E0A5010E94800FC82ECA181C
:101CD0008C2C432C36FE0CC0E89440F8C91440F418
:101CE00034FE05C032FC03C0F32DFE7E4F2E892C3E
:101CF00044FE95C0FE01EC0DF11D8081803309F09A
:101D000087C0242D297E422E842D8870582E43FCB6
:101D100095C040FE8FC09C2C821418F42C0C922C81
:101D2000981844FE91C0B70180E390E00E94500FE4
:101D300042FE09C088E790E041FE02C088E590E0DD
:101D4000B7010E94500FC91408F48AC0CA94D12C5C
:101D50009FEFC91AD90ACA0CDB1CF60182916F01E8
:101D6000B70190E00E94500FAC14BD04B1F74FCF03
:101D700060817181072E000C880B990B0E5F1F4F3D
:101D800092CFD32CE894D4F82AE030E0853739F1AB
:101D9000232D297FD22E8F3601F148F48835A9F002
:101DA000F701868197812B96E2E10C94DF0C803756
:101DB00049F08837A9F7D4FE02C06894D2F820E130
:101DC00030E00DC06894D4F8F6CF34FE03C0822F03
:101DD0008660D82E20E132E002C028E030E0F80131
:101DE000D7FE0FC060817181828193810C5F1F4F8C
:101DF000A5010E94800FC82ECA183D2CE89437F820
:101E000067CF6081718190E080E00E5F1F4FF0CF5F
:101E100042FC02C0839478CF8394839475CF842D41
:101E2000867809F471CFF6CFB70180E290E00E9486
:101E3000500F83948214C0F3512C73CF522C581836
:101E4000821408F46ECFF8CF842D867809F47BCF06
:101E50008BE241FE80E247FC8DE2B70190E071CF5A
:101E6000B70180E390E00E94500F9A946CCF8FEFFF
:101E70009FEF99CFFC010590615070400110D8F799
:101E8000809590958E0F9F1F0895FC0161507040C2
:101E900001900110D8F7809590958E0F9F1F08959F
:101EA0000F931F93CF93DF93182F092FEB018B8193
:101EB00081FD09C01FEF0FEF812F902FDF91CF9190
:101EC0001F910F91089582FF14C02E813F818C8154
:101ED0009D81281739073CF4E881F981CF010196EB
:101EE0009983888310838E819F8101969F838E833F
:101EF000E3CFE885F985812F0995892BA1F3DACF06
:101F0000FA01AA27283051F1203181F1E8946F932A
:101F10006E7F6E5F7F4F8F4F9F4FAF4FB1E03ED0D0
:101F2000B4E03CD0670F781F891F9A1FA11D680F6E
:101F3000791F8A1F911DA11D6A0F711D811D911DA1
:101F4000A11D20D009F468943F912AE0269F112416
:101F50003019305D3193DEF6CF010895462F47707A
:101F6000405D4193B3E00FD0C9F7F6CF462F4F70D5
:101F7000405D4A3318F0495D31FD4052419302D033
:101F8000A9F7EACFB4E0A6959795879577956795D9
:101F9000BA95C9F700976105710508959B01AC01D9
:101FA0000A2E06945795479537952795BA95C9F700
:101FB000620F731F841F951FA01D0895F894FFCF13
:101FC000FFFFD702D70200004000140054000000B9
:101FD00000009301F3002001E00151012F014301B2
:101FE0000000000095036803AC043E0361034E0348
:101FF0003F03000000001106F300AC04AB04252DE4
:10200000313673004F50454E00434C4F5345005BF3
:0C2010005B4D696E69436F6D5D5D000003
:107E0000112484B714BE81FFF0D085E080938100F7
:107E100082E08093C00088E18093C10086E0809377
:107E2000C20080E18093C4008EE0C9D0259A86E02C
:107E300020E33CEF91E0309385002093840096BBD3
:107E4000B09BFECF1D9AA8958150A9F7CC24DD24C4
:107E500088248394B5E0AB2EA1E19A2EF3E0BF2EE7
:107E6000A2D0813461F49FD0082FAFD0023811F036
:107E7000013811F484E001C083E08DD089C08234E0
:107E800011F484E103C0853419F485E0A6D080C0E4
:107E9000853579F488D0E82EFF2485D0082F10E0AE
:107EA000102F00270E291F29000F111F8ED06801E7
:107EB0006FC0863521F484E090D080E0DECF843638
:107EC00009F040C070D06FD0082F6DD080E0C81688
:107ED00080E7D80618F4F601B7BEE895C0E0D1E017
:107EE00062D089930C17E1F7F0E0CF16F0E7DF06D8
:107EF00018F0F601B7BEE89568D007B600FCFDCFD4
:107F0000A601A0E0B1E02C9130E011968C91119780
:107F100090E0982F8827822B932B1296FA010C0160
:107F200087BEE89511244E5F5F4FF1E0A038BF0790
:107F300051F7F601A7BEE89507B600FCFDCF97BE46
:107F4000E89526C08437B1F42ED02DD0F82E2BD052
:107F50003CD0F601EF2C8F010F5F1F4F84911BD097
:107F6000EA94F801C1F70894C11CD11CFA94CF0C13
:107F7000D11C0EC0853739F428D08EE10CD085E9AC
:107F80000AD08FE07ACF813511F488E018D01DD067
:107F900080E101D065CF982F8091C00085FFFCCF94
:107FA0009093C60008958091C00087FFFCCF809118
:107FB000C00084FD01C0A8958091C6000895E0E648
:107FC000F0E098E1908380830895EDDF803219F02E
:107FD00088E0F5DFFFCF84E1DECF1F93182FE3DFCA
:107FE0001150E9F7F2DF1F91089580E0E8DFEE27F6
:047FF000FF270994CA
:027FFE00040479
:00000001FF
