:020000040000FA
:100000000C945D000C947A000C947A000C947A00A5
:100010000C947A000C947A000C947A000C94F00002
:100020000C947A000C947A000C947A000C947A0068
:100030000C947A000C947A000C947A000C947A0058
:100040000C94B3010C947A000C947A000C947A000E
:100050000C947A000C947A000C947A000C947A0038
:100060000C947A000C947A00000000080002010051
:100070000003040700000000000000000200000070
:1000800000250028002B0000000000240027002A83
:100090000004040404040404040202020202020331
:1000A000030303030301020408102040800102043B
:1000B0000810200102040810200011241FBECFEFF9
:1000C000D8E0DEBFCDBF11E0A0E0B1E0E2EFFCE0A0
:1000D00002C005900D92A63CB107D9F721E0A6EC2D
:1000E000B1E001C01D92A03EB207E1F70E94FD0100
:1000F0000C9477060C940000EEEAF0E02491EAE913
:10010000F0E08491882399F090E0880F991FFC011A
:10011000E957FF4FA591B491FC01E358FF4F85913A
:1001200094918FB7F894EC91E22BEC938FBF0895E4
:100130003FB7F8948091CB019091CC01A091CD0173
:10014000B091CE0126B5A89B05C02F3F19F00196AE
:10015000A11DB11D3FBFBA2FA92F982F8827BC0121
:10016000CD01620F711D811D911D42E0660F771F49
:10017000881F991F4A95D1F708958F929F92AF9249
:10018000BF92CF92DF92EF92FF926B017C010E94AF
:1001900098004B015C01C114D104E104F104B9F0F1
:1001A0000E949800681979098A099B09683E734082
:1001B0008105910580F321E0C21AD108E108F10818
:1001C00088EE880E83E0981EA11CB11CE4CFFF903E
:1001D000EF90DF90CF90BF90AF909F908F90089559
:1001E0001F920F920FB60F9211242F933F938F936C
:1001F0009F93AF93BF93EF93FF938091D40190911E
:10020000D501A091D601B091D701892B8A2B8B2BD8
:10021000B1F19091CF01E091D001F091D1018081B5
:10022000892780838091D4019091D501A091D60136
:10023000B091D701181619061A061B069CF4809176
:10024000D4019091D501A091D601B091D701019729
:10025000A109B1098093D4019093D501A093D6014F
:10026000B093D701FF91EF91BF91AF919F918F9183
:100270003F912F910F900FBE0F901F901895809176
:100280000001ECE7F0E0E4919FEF90930001E13092
:1002900009F431C068F1E23009F433C090E0FC01A8
:1002A000E859FF4F2491FC01EB55FF4F3491FC01BD
:1002B000EF56FF4FE491EE23A9F2222351F02330B1
:1002C00009F43AC078F5213009F43CC0223009F431
:1002D0003DC0F0E0EE0FFF1FE358FF4FA591B49132
:1002E0008FB7F894EC9130953E233C938FBFBACFF3
:1002F00010926E00D3CF90916F009D7F90936F000E
:10030000CDCF909170009D7F9093700091E090937D
:10031000B0009091B100987F94609093B1001092DA
:10032000B300BCCF2730A9F02830C9F0243089F6BB
:10033000809180008F7D03C0809180008F778093B3
:100340008000C7CF84B58F7784BDC3CF84B58F7D40
:10035000FBCF8091B0008F778093B000BACF8091AF
:10036000B0008F7DF9CF1F920F920FB60F9211241C
:100370002F933F938F939F93AF93BF938091C70128
:100380009091C801A091C901B091CA013091C601F4
:1003900023E0230F2D3758F50196A11DB11D2093A1
:1003A000C6018093C7019093C801A093C901B0937F
:1003B000CA018091CB019091CC01A091CD01B09167
:1003C000CE010196A11DB11D8093CB019093CC016C
:1003D000A093CD01B093CE01BF91AF919F918F912A
:1003E0003F912F910F900FBE0F901F90189526E808
:1003F000230F0296A11DB11DD2CFCF93DF93CDB7AE
:10040000DEB72D970FB6F894DEBF0FBECDBF789440
:1004100084B5826084BD84B5816084BD85B5826009
:1004200085BD85B5816085BD80916E0081608093BA
:100430006E00109281008091810082608093810023
:100440008091810081608093810080918000816033
:10045000809380008091B10084608093B10080918E
:10046000B00081608093B00080917A0084608093B6
:100470007A0080917A00826080937A0080917A007D
:10048000816080937A0080917A00806880937A00FE
:100490001092C1000E947C0023E631E03A83298358
:1004A00081E091E098878F83E981FA816191719170
:1004B000FA83E98388EE93E00E94F8058B012B0113
:1004C000770F66087708C301B2010E94FF0426E691
:1004D00036E646EA5FE30E9463050E94C704698727
:1004E0007A878B879C87EF81F88521903190F887F8
:1004F000EF8380910001893089F4ECE7F0E0F4911A
:10050000FD87F7FD9BC10E947C00FD85FF2309F458
:100510003AC02D85223009F0C1C035C08F3F09F0A7
:100520008DC189E080930001ECE7F0E0F491FD8754
:10053000FF3F09F483C1F13009F490C048F0F23074
:1005400009F4E4C09D8597FD79C10E947C00E1CF4C
:1005500014BC15BC84B5826084BD85B5816085BD41
:10056000EAE9F0E08491E82FF0E0EE0FFF1FE35896
:10057000FF4F85919491EEEAF0E084918093D3014E
:100580000E947C001D864101B12CA12C60E072E12B
:100590008AE790E0A50191010E942E062B833C83FF
:1005A0004D835E8369017A0131E0C31AD108E10805
:1005B000F1088FEFC816D104E104F10409F00CF43E
:1005C00016C160E472E48FE090E0A50191010E9401
:1005D0002E0669017A0191E0C91AD108E108F108F3
:1005E000ED85E23009F0B7C082E0FFEFCF16D1040D
:1005F000E104F10409F00CF4C3C160E970ED83E09B
:1006000090E0A50191010E942E0669017A0181E026
:10061000C81AD108E108F10883E09FEFC916D10498
:10062000E104F10409F00CF4ABC168E478EE81E078
:1006300090E0A50191010E942E0669017A0181E0F6
:10064000C81AD108E108F1089FEFC916D104E104E6
:10065000F10411F00CF0A3C084E092C1109280006C
:100660001092810080918100886080938100809148
:100670008100816080938100EAE9F0E08491E82FB5
:10068000F0E0EE0FFF1FE358FF4F85919491EEEAE3
:10069000F0E084918093D2010E947C00B12CA12CC7
:1006A00060E072E18AE790E0A50191010E942E06C8
:1006B00069017A0181E0C81AD108E108F108C11482
:1006C000D10491E0E906F1040CF0D8C091E0FD8579
:1006D000F13009F094C080918100887F892B80934C
:1006E00081002FEF3FEFA90145284628472809F44C
:1006F000D6C09101220F331FD8010E944D0628EE6B
:1007000033E040E050E00E940C0681C01092B0003F
:100710001092B1008091B00082608093B00080910F
:10072000B10081608093B100EAE9F0E08491E82FA4
:10073000F0E0EE0FFF1FE358FF4F859194919093E7
:10074000D1018093D001EEEAF0E084918093CF0153
:100750000E947C0018CFEFEFCE16D104E104F10423
:1007600009F00CF489C068E478EE81E090E0A5011E
:1007700091010E942E0669017A01F1E0CF1AD10899
:10078000E108F1082D85222309F4C6C02FEFC21617
:10079000D104E104F10411F00CF0C7C05DCF64E2B4
:1007A00074EF80E090E0A50194010E942E0669019B
:1007B0007A0181E0C81AD108E108F10885E09FEFCD
:1007C000C916D104E104F10409F008F4D9C062E1CA
:1007D0007AE780E090E0A50194010E942E0669016D
:1007E0007A01E1E0CE1AD108E108F108B0C081E059
:1007F0002D852111C5C095B5987F892B85BD2FEF1B
:100800003FEFA90145284628472809F072CF8D857A
:10081000813009F444C0823009F453C081110EC004
:10082000C7BC2093DC013093DD014093DE0150937F
:10083000DF0180916E00826080936E00E985FA8509
:10084000BF01FF0F880B990B0E94BD0025EC31E022
:1008500089819A812817390709F026CE68EE73E05E
:1008600080E090E00E94BD0080E090E0892B09F4D8
:1008700013CE0E94000010CE82E0BACF68E478EE7A
:1008800081E090E0A50191010E942E0669017A01A4
:10089000E1E0CE1AD108E108F10893E018CFD09238
:1008A0008900C09288002093D8013093D9014093E9
:1008B000DA015093DB0180916F00826080936F00BA
:1008C000BDCFC092B3002093D4013093D5014093A3
:1008D000D6015093D70180917000826080937000A0
:1008E000ADCF84E0FFEFCF16D104E104F10409F0AD
:1008F00008F481CFCB80DC80ED80FE809AE0F59417
:10090000E794D794C7949A95D1F7E1E0CE1AD1082D
:10091000E108F10885E06FCF83E0FFEFCF16D10447
:10092000E104F10409F00CF466CF62E17AE780E0BB
:1009300090E0A50194010E942E0669017A01E1E090
:10094000CE1AD108E108F108FD85FF2351F286E0B7
:100950003FEFC316D104E104F10491F088F0CB809D
:10096000DC80ED80FE808AE0F594E794D794C7940C
:100970008A95D1F721E0C21AD108E108F10887E091
:100980009091B100987F892B8093B10038CF0E945D
:10099000CE046894B1110C945D0508950E9442053F
:1009A00088F09F5798F0B92F9927B751B0F0E1F030
:1009B000660F771F881F991F1AF0BA95C9F714C0E0
:1009C000B13091F00E945C05B1E008950C945C0593
:1009D000672F782F8827B85F39F0B93FCCF3869519
:1009E00077956795B395D9F73EF490958095709576
:1009F00061957F4F8F4F9F4F0895E89409C097FBF3
:100A00003EF490958095709561957F4F8F4F9F4FE5
:100A10009923A9F0F92F96E9BB279395F695879529
:100A200077956795B795F111F8CFFAF4BB0F11F4EC
:100A300060FF1BC06F5F7F4F8F4F9F4F16C0882393
:100A400011F096E911C0772321F09EE8872F762FC9
:100A500005C0662371F096E8862F70E060E02AF00A
:100A60009A95660F771F881FDAF7880F96958795F6
:100A700097F9089557FD9058440F551F59F05F3F5F
:100A800071F04795880F97FB991F61F09F3F79F0B0
:100A900087950895121613061406551FF2CF469532
:100AA000F1DF08C0161617061806991FF1CF8695B4
:100AB0007105610508940895E894BB276627772798
:100AC000CB0197F908950E9476050C94E7050E94E2
:100AD000D90538F00E94E00520F0952311F00C9420
:100AE000D0050C94D60511240C945D050E943A059E
:100AF00070F3959FC1F3950F50E0551F629FF00171
:100B0000729FBB27F00DB11D639FAA27F00DB11D89
:100B1000AA1F649F6627B00DA11D661F829F222712
:100B2000B00DA11D621F739FB00DA11D621F839F99
:100B3000A00D611D221F749F3327A00D611D231F6F
:100B4000849F600D211D822F762F6A2F11249F57BD
:100B500050409AF0F1F088234AF0EE0FFF1FBB1FC0
:100B6000661F771F881F91505040A9F79E3F51057F
:100B700080F00C94D0050C945D055F3FE4F3983E43
:100B8000D4F3869577956795B795F795E7959F5F29
:100B9000C1F7FE2B880F911D9695879597F90895BB
:100BA00097F99F6780E870E060E008959FEF80EC20
:100BB000089500240A9416161706180609060895C3
:100BC00000240A9412161306140605060895092E29
:100BD0000394000C11F4882352F0BB0F40F4BF2B98
:100BE00011F460FF04C06F5F7F4F8F4F9F4F0895D8
:100BF00097FB072E16F4009407D077FD09D00E94CA
:100C0000540607FC05D03EF4909581959F4F0895BA
:100C1000709561957F4F0895A1E21A2EAA1BBB1B08
:100C2000FD010DC0AA1FBB1FEE1FFF1FA217B307B8
:100C3000E407F50720F0A21BB30BE40BF50B661FCE
:100C4000771F881F991F1A9469F760957095809592
:100C500090959B01AC01BD01CF010895052E97FB36
:100C60001EF400940E94450657FD07D00E940C0612
:100C700007FC03D04EF40C944506509540953095F2
:100C800021953F4F4F4F5F4F0895909580957095F8
:100C900061957F4F8F4F9F4F08950E946806B7FF61
:100CA0000895821B930B0895AA1BBB1B51E107C03B
:100CB000AA1FBB1FA617B70710F0A61BB70B881FEC
:100CC000991F5A95A9F780959095BC01CD0108957B
:100CD000A29FB001B39FC001A39F700D811D11247D
:100CE000911DB29F700D811D1124911D0895F894DE
:100CF000FFCFFF060106010601060106014A018831
:100D00000188014A010601880188014A0188018899
:100D1000014A01060106010601880188014A01060F
:100D200001880188018801880188014A010601883B
:100D30000188018801880188014A0106018801882B
:100D4000018801B80188010B0288010B0288014A61
:100D50000126010601040008000800040004000444
:100D6000000800080004000400080008000400084F
:100D70000008000400040004000200040004000451
:100D80000004000400040002000400040004000445
:100D90000004000400020004000400040004000831
:100DA0000008000800080002000400040004000419
:080DB000000400040002000031
:107E0000112484B714BE81FFF0D085E080938100F7
:107E100082E08093C00088E18093C10086E0809377
:107E2000C20080E18093C4008EE0C9D0259A86E02C
:107E300020E33CEF91E0309385002093840096BBD3
:107E4000B09BFECF1D9AA8958150A9F7CC24DD24C4
:107E500088248394B5E0AB2EA1E19A2EF3E0BF2EE7
:107E6000A2D0813461F49FD0082FAFD0023811F036
:107E7000013811F484E001C083E08DD089C08234E0
:107E800011F484E103C0853419F485E0A6D080C0E4
:107E9000853579F488D0E82EFF2485D0082F10E0AE
:107EA000102F00270E291F29000F111F8ED06801E7
:107EB0006FC0863521F484E090D080E0DECF843638
:107EC00009F040C070D06FD0082F6DD080E0C81688
:107ED00080E7D80618F4F601B7BEE895C0E0D1E017
:107EE00062D089930C17E1F7F0E0CF16F0E7DF06D8
:107EF00018F0F601B7BEE89568D007B600FCFDCFD4
:107F0000A601A0E0B1E02C9130E011968C91119780
:107F100090E0982F8827822B932B1296FA010C0160
:107F200087BEE89511244E5F5F4FF1E0A038BF0790
:107F300051F7F601A7BEE89507B600FCFDCF97BE46
:107F4000E89526C08437B1F42ED02DD0F82E2BD052
:107F50003CD0F601EF2C8F010F5F1F4F84911BD097
:107F6000EA94F801C1F70894C11CD11CFA94CF0C13
:107F7000D11C0EC0853739F428D08EE10CD085E9AC
:107F80000AD08FE07ACF813511F488E018D01DD067
:107F900080E101D065CF982F8091C00085FFFCCF94
:107FA0009093C60008958091C00087FFFCCF809118
:107FB000C00084FD01C0A8958091C6000895E0E648
:107FC000F0E098E1908380830895EDDF803219F02E
:107FD00088E0F5DFFFCF84E1DECF1F93182FE3DFCA
:107FE0001150E9F7F2DF1F91089580E0E8DFEE27F6
:047FF000FF270994CA
:027FFE00040479
:00000001FF
