:100000000C945D000C947A000C947A000C947A00A5
:100010000C947A000C947A000C947A000C947A0078
:100020000C947A000C947A000C947A000C947A0068
:100030000C947A000C947A000C947A000C947A0058
:100040000C94D4010C947A000C947A000C947A00ED
:100050000C947A000C947A000C947A000C947A0038
:100060000C947A000C947A00000000080002010051
:100070000003040700000000000000000000000072
:10008000250028002B0000000000240027002A0083
:10009000040404040404040402020202020203032E
:1000A0000303030301020408102040800102040836
:1000B0001020010204081020C70211241FBECFEF38
:1000C000D8E0DEBFCDBF21E0A0E0B1E001C01D92CD
:1000D000A531B207E1F710E0CDE5D0E004C02197EB
:1000E000FE010E94F702CC35D107C9F70E941E021B
:1000F0000C94FD020C94000090E0FC01EC55FF4FC5
:10010000249180579F4FFC018491882399F090E0BF
:10011000880F991FFC01EA57FF4FA591B491FC018C
:10012000E458FF4F859194918FB7F894EC91E22BAE
:10013000EC938FBF089590E0FC01E859FF4F2491A4
:10014000FC01EC55FF4F3491FC01E057FF4FE49167
:10015000EE23C9F0222339F0233001F1A8F4213035
:1001600019F1223029F1F0E0EE0FFF1FE458FF4FA4
:10017000A591B4918FB7F894EC91611126C0309598
:100180003E233C938FBF08952730A9F02830C9F053
:10019000243049F7809180008F7D03C080918000DA
:1001A0008F7780938000DFCF84B58F7784BDDBCFDE
:1001B00084B58F7DFBCF8091B0008F778093B000A6
:1001C000D2CF8091B0008F7DF9CF3E2BDACF1F9335
:1001D000CF93DF93182FEB010E947C00209739F416
:1001E00060E0812FDF91CF911F910C949B00E12F54
:1001F000F0E0E859FF4FE491E33039F148F4E130A1
:10020000B9F0E230E9F0C038D10554F361E0E9CF4C
:10021000E73029F1E83059F1E430A9F78091800006
:10022000806280938000D0938B00C0938A0004C0CA
:1002300084B5806884BDC7BDDF91CF911F910895BB
:1002400084B5806284BDC8BDF7CF8091800080688E
:1002500080938000D0938900C0938800EDCF809177
:10026000B00080688093B000C093B300E5CF809168
:10027000B00080628093B000C093B400DDCF3FB780
:10028000F8948091050190910601A0910701B09129
:10029000080126B5A89B05C02F3F19F00196A11DA6
:1002A000B11D3FBFBA2FA92F982F8827BC01CD01C0
:1002B000620F711D811D911D42E0660F771F881F1F
:1002C000991F4A95D1F708958F929F92AF92BF924E
:1002D000CF92DF92EF92FF924B015C010E943F01AF
:1002E0006B017C010E943F016C197D098E099F09F9
:1002F000683E734081059105A8F321E0821A9108B8
:10030000A108B10888EEC80E83E0D81EE11CF11CDC
:1003100081149104A104B10429F7FF90EF90DF90BC
:10032000CF90BF90AF909F908F900895CF93DF9321
:10033000EC0160E08A810E949B0060E08C810E9459
:100340009B0070E060E08881DF91CF910C94E70022
:100350000F931F93CF93DF93EC018B0160E08A81B1
:100360000E949B0061E08C810E949B00B801888103
:10037000DF91CF911F910F910C94E7000F931F9382
:10038000CF93DF93EC018B0161E08A810E949B0097
:1003900060E08C810E949B00B8018881DF91CF9141
:1003A0001F910F910C94E7001F920F920FB60F92BE
:1003B00011242F933F938F939F93AF93BF9380917B
:1003C000010190910201A0910301B09104013091CB
:1003D000000123E0230F2D3758F50196A11DB11D13
:1003E000209300018093010190930201A0930301E7
:1003F000B09304018091050190910601A09107013D
:10040000B09108010196A11DB11D80930501909343
:100410000601A0930701B0930801BF91AF919F918E
:100420008F913F912F910F900FBE0F901F901895B5
:1004300026E8230F0296A11DB11DD2CF789484B572
:10044000826084BD84B5816084BD85B5826085BDD0
:1004500085B5816085BD80916E00816080936E005E
:100460001092810080918100826080938100809150
:100470008100816080938100809180008160809301
:1004800080008091B10084608093B1008091B000C1
:1004900081608093B00080917A00846080937A00BC
:1004A00080917A00826080937A0080917A008160E6
:1004B00080937A0080917A00806880937A0010920D
:1004C000C10089E091E00E9496018FE091E00E94D6
:1004D0009601C0E0D0E068EC70E089E091E00E9415
:1004E000BE0168EC70E08FE091E00E94BE0168EE12
:1004F00073E080E090E00E94640168EC70E089E0C5
:1005000091E00E94A80168EC70E08FE091E00E9409
:10051000A80168EE73E080E090E00E94640160EA68
:1005200070E089E091E00E94BE0160EA70E08FE037
:1005300091E00E94A80168EE73E080E090E00E94E4
:10054000640160EA70E089E091E00E94A80160EA3D
:1005500070E08FE091E00E94BE0168EE73E080E001
:1005600090E00E94640189E091E00E9496018FE092
:1005700091E00E94960168E873E180E090E00E94BB
:100580006401209709F4A7CF0E940000A4CFCF9365
:10059000DF93C9E0D1E083E090E09983888385E030
:1005A00090E09B838A8384E090E09D838C8383E04A
:1005B0000E947C0085E00E947C0084E00E947C0018
:1005C00089E090E09F838E8388E090E09987888718
:1005D00087E090E09B878A8789E00E947C0088E022
:1005E0000E947C0087E0DF91CF910C947C00EE0F9D
:0E05F000FF1F0590F491E02D0994F894FFCFC1
:00000001FF
