:020000040000FA
:100000000C9463000C948B000C948B000C94570898
:100010000C9457080C9457080C948B000C948B008C
:100020000C948B000C948B000C948B000C948B0024
:100030000C948B000C948B000C948B000C948B0014
:100040000C94EE060C948B000C94BC060C94960653
:100050000C948B000C948B000C948B000C948B00F4
:100060000C9438070C948B0000000000240027003B
:100070002A0000000008000201000003040700003D
:1000800000000000000000000000230026002900FE
:1000900000000000250028002B00040404040404D0
:1000A0000404020202020202030303030303010227
:1000B00004081020408001020408102001020408F6
:1000C0001020CF08BA0D11241FBECFEFD8E0DEBF3D
:1000D000CDBF23E0A2E5B1E001C01D92A03FB20771
:1000E000E1F711E0A0E0B1E0E2EEF0E202C005903D
:1000F0000D92A235B107D9F710E0C2E6D0E004C0F6
:100100002197FE010E94630EC136D107C9F70E94F4
:10011000200A0C9464100C94000008950895AF9286
:10012000BF92CF92DF92EF92FF920F931F93CF93E4
:10013000DF936C017B018B01040F151FEB015E0146
:10014000AE18BF08C017D10759F06991D601ED91DB
:10015000FC910190F081E02DC6010995892B79F77A
:10016000C501DF91CF911F910F91FF90EF90DF902C
:10017000CF90BF90AF900895FC01538D448D252FF3
:1001800030E0842F90E0821B930B541710F0CF9631
:10019000089501970895FC01918D828D981761F063
:1001A000A28DAE0FBF2FB11D5D968C91928D9F5F7A
:1001B0009F73928F90E008958FEF9FEF0895FC0159
:1001C000918D828D981731F0828DE80FF11D858D0C
:1001D00090E008958FEF9FEF0895FC01918D228D9F
:1001E000892F90E0805C9F4F821B91098F73992724
:1001F000089585E592E00E94ED0021E0892B09F445
:1002000020E0822F089580E090E0892B29F00E9461
:10021000F90081110C9400000895FC01A48DA80F31
:10022000B92FB11DA35ABF4F2C91848D90E0019638
:100230008F739927848FA689B7892C93A089B18958
:100240008C91837080648C93938D848D981306C0F9
:100250000288F389E02D80818F7D80830895EF925D
:10026000FF920F931F93CF93DF93EC0181E0888F70
:100270009B8D8C8D98131AC0E889F989808185FF40
:1002800015C09FB7F894EE89FF896083E889F989E2
:1002900080818370806480839FBF81E090E0DF91E4
:1002A000CF911F910F91FF90EF900895F62E0B8D37
:1002B00010E00F5F1F4F0F731127E02E8C8D8E11F2
:1002C0000CC00FB607FCFACFE889F989808185FF59
:1002D000F5CFCE010E940D01F1CFEB8DEC0FFD2F7C
:1002E000F11DE35AFF4FF0829FB7F8940B8FEA8914
:1002F000FB8980818062CFCFCF93DF93EC01888D23
:100300008823B9F0AA89BB89E889F9898C9185FD90
:1003100003C0808186FD0DC00FB607FCF7CF8C911E
:1003200085FFF2CF808185FFEDCFCE010E940D01C8
:10033000E9CFDF91CF91089590E0FC01EE58FF4F97
:100340002491FC01E255FF4F3491FC01E656FF4F2A
:10035000E491EE23C9F0222339F0233001F1A8F40F
:10036000213019F1223029F1F0E0EE0FFF1FE057A4
:10037000FF4FA591B4918FB7F894EC91611126C00D
:1003800030953E233C938FBF08952730A9F0283045
:10039000C9F0243049F7809180008F7D03C080919F
:1003A00080008F7780938000DFCF84B58F7784BD06
:1003B000DBCF84B58F7DFBCF8091B0008F778093AA
:1003C000B000D2CF8091B0008F7DF9CF3E2BDACF35
:1003D000CF93DF9390E0FC01E255FF4F24918656C6
:1003E0009F4FFC0184918823D1F090E0880F991FE2
:1003F000FC01E859FF4FA591B491FC01E057FF4F74
:10040000C591D49161110EC09FB7F8948C91E22FE1
:10041000E0958E238C932881E223E8839FBFDF91B0
:10042000CF9108958FB7F894EC91E22BEC938FBFA6
:10043000F6CF1F93CF93DF93182FEB0161E00E945B
:10044000E801209739F460E0812FDF91CF911F916F
:100450000C949C01E12FF0E0EE58FF4FE491E33063
:1004600039F148F4E130B9F0E230E9F0C038D105B3
:1004700054F361E0E9CFE73029F1E83059F1E43095
:10048000A9F780918000806280938000D0938B00D8
:10049000C0938A0004C084B5806884BDC7BDDF9165
:1004A000CF911F91089584B5806284BDC8BDF7CFF8
:1004B00080918000806880938000D0938900C093F1
:1004C0008800EDCF8091B00080688093B000C09329
:1004D000B300E5CF8091B00080628093B000C093FC
:1004E000B400DDCF3FB7F894809145029091460269
:1004F000A0914702B091480226B5A89B05C02F3FA6
:1005000019F00196A11DB11D3FBFBA2FA92F982F39
:100510008827BC01CD01620F711D811D911D42E034
:10052000660F771F881F991F4A95D1F708958F92FC
:100530009F92AF92BF92CF92DF92EF92FF924B01C8
:100540005C010E9472026B017C010E9472026C19B4
:100550007D098E099F09683E734081059105A8F3C6
:1005600021E0821A9108A108B10888EEC80E83E044
:10057000D81EE11CF11C81149104A104B10429F7D7
:10058000FF90EF90DF90CF90BF90AF909F908F90B3
:100590000895CF93DF93EC0160E08A810E949C0173
:1005A00060E08C810E949C0170E060E08881DF91B6
:1005B000CF910C9419020F931F93CF93DF93EC010B
:1005C0008B0160E08A810E949C0161E08C810E9425
:1005D0009C01B8018881DF91CF911F910F910C94FC
:1005E00019020F931F93CF93DF93EC018B0161E00E
:1005F0008A810E949C0160E08C810E949C01B8016C
:100600008881DF91CF911F910F910C941902209155
:10061000FA01260F3327331F21323105ECF42091E4
:100620001E02FC0190E080E0243069F082E0089531
:10063000A091FA012191AC0146525E4FA40FB52F53
:10064000B11D2C930196861798F38091FA01680FDB
:100650006093FA0180E0089581E0089510921E02EF
:1006600081E08093200210921F0261E082E10E94EB
:100670009C0161E083E10E949C01E9EBF0E0808154
:100680008E7F808380818D7F808388E48093B80013
:1006900085E48093BC000895CF93DF9391E090931D
:1006A000D9018823B9F0C091B800D091BA008091E7
:1006B000BC008A7B8093BC0060E082E10E949C01C8
:1006C00060E083E10E949C010E942E03D093BA0057
:1006D000C093B800DF91CF9108950895E09154023E
:1006E00080915302E81730F4F0E0EC54FE4F808123
:1006F00090E008958FEF9FEF0895909154028091BC
:1007000053022FEF3FEF981748F4E92FF0E0EC5435
:10071000FE4F208130E09F5F90935402C9010895FD
:100720008091530290915402891B990B0895CF92A6
:10073000DF92EF92FF920F931F93CF93DF937C0191
:10074000CB018A012091B301222389F0EB016B01D7
:10075000C40ED51ECC15DD0569F06991D701ED9168
:10076000FC910190F081E02DC7010995F3CF642F32
:100770000E940703C801DF91CF911F910F91FF9055
:10078000EF90DF90CF900895CF93DF931F92CDB776
:10079000DEB769832091B3012223F9F02091510241
:1007A000203258F021E030E0FC013383228390E0D6
:1007B00080E00F90DF91CF91089580915202E82F51
:1007C000F0E0ED56FE4F998190838F5F8093520247
:1007D0008093510281E090E0ECCF61E0CE01019680
:1007E0000E940703F7CFCF92DF92EF92FF920F9311
:1007F0001F93CF93DF93FC01C48121E02093B301C9
:10080000C093920110925202109251028385682B7C
:1008100082EF92E00E94C403D0915102D13208F0DD
:1008200092C00E9472026B017C0180911E028111B4
:1008300065C082E080931E0281E0809320028FEFEA
:1008400080931D0210924202D0934102A3E9B1E0CD
:10085000E1E2F2E080E0D81385C01092430280917B
:100860004302CC0FC82BC093430280911F028130FA
:1008700009F07CC010921F020E9472026B017C0181
:10088000809143028093BB008091D5019091D60165
:10089000A091D701B091D801892B8A2B8B2B99F08D
:1008A0000E9472020091D5011091D6012091D701CA
:1008B0003091D8016C197D098E099F090617170719
:1008C00028073907E0F18091BC0083FDD9CF85EC82
:1008D0008093BC000E9472026B017C0180911E0219
:1008E000823009F445C080911D028F3F61F18091F3
:1008F0001D02803241F180911D0225C08091D501F9
:100900009091D601A091D701B091D801892B8A2B63
:100910008B2B09F48ACF0E9472020091D5011091AD
:10092000D6012091D7013091D8016C197D098E092B
:100930009F09061717072807390708F076CF809117
:10094000D4010E944C031092520210925102109254
:10095000B301DF91CF911F910F91FF90EF90DF9046
:10096000CF9008959D9191938F5F75CF85EEB0CF15
:100970008091D5019091D601A091D701B091D80175
:10098000892B8A2B8B2B09F4A9CF0E94720200912C
:10099000D5011091D6012091D7013091D8016C1961
:1009A0007D098E099F09061717072807390708F0E0
:1009B00095CFC5CF089520914B0230914C02281756
:1009C000390771F49091490280914A02981741F0D9
:1009D000E0914902F0E0EE5AFE4F808190E00895E8
:1009E0008FEF9FEF0895EF92FF920F931F93CF9396
:1009F000DF93DC015C96ED90FC905D97E114F104CF
:100A000079F481E090E013969C938E93129790E096
:100A100080E0DF91CF911F910F91FF90EF900895AB
:100A20005196ED91FC91529750968C915097982F3A
:100A300090950FB75E962C915E97122F127021FD44
:100A40006095F8942081112319F1282B2083E70168
:100A50002197F1F728E0462F50E0308160FF1AC05F
:100A6000382B3083E7012197F1F7BA017595679527
:100A7000215089F7112381F08081892380830FBF62
:100A80005C968D919C910197F1F781E090E0C1CF48
:100A90002923DCCF3923E5CF9081892BEFCF20911B
:100AA0004B0230914C022817390771F480914A02A9
:100AB0002091490290E0805C9F4F821B910960E485
:100AC00070E00E94190E089590E080E00895209152
:100AD0004B0230914C0228173907B9F49091490222
:100AE00080914A02981789F0E0914902F0E0EE5AAD
:100AF000FE4F80812091490230E02F5F3F4F2F73DE
:100B000033272093490290E008958FEF9FEF0895D7
:100B100090E080E008950F931F93CF938C01C62F30
:100B20000E94F3036C2F6460C8010E94F3036C2FD2
:100B30006B7FC8010E94F30383EC90E00197F1F70B
:100B4000CF911F910F9108950F931F93CF93DF9330
:100B50008C01D62FC42F607F642B0E948B0580E10F
:100B6000D89FB00111246C2BC801DF91CF911F9148
:100B70000F910C948B0541E00E94A40581E090E068
:100B80000895FC0124813581232B39F421E0FB01F8
:100B90008081882349F020E007C0808191810E94F4
:100BA000541021E0892BB9F7822F0895CF93DF935A
:100BB000EC0168E471E00E94C105882371F068ECE3
:100BC00070E082E093E00E94F10268EC70E088E05F
:100BD00093E0DF91CF910C94F1026AE471E0CE01D1
:100BE0000E94C105882371F068EC70E082E093E018
:100BF0000E94DB0268EC70E088E093E0DF91CF9127
:100C00000C94DB026CE471E0CE010E94C1058823E4
:100C100049F060EA70E082E093E00E94F10260EA4D
:100C200070E0EACF6EE471E0CE010E94C105882336
:100C300049F060EA70E082E093E00E94DB0260EA43
:100C400070E0C5CF60E571E0CE010E94C105882348
:100C500051F082E093E00E94C90288E093E0DF91C6
:100C6000CF910C94C902DF91CF9108950F931F93F8
:100C7000CF93DF93EC0188819981009759F02A8105
:100C80003B812617370730F081E0DF91CF911F912C
:100C90000F9108958B016F5F7F4F0E948E0F009719
:100CA00059F0998388831B830A832C813D81232BF0
:100CB00059F7FC011082E8CF80E0E7CF85ED809303
:100CC000BC008091D5019091D601A091D701B0913F
:100CD000D8010796A11DB11D23E0B695A79597955C
:100CE00087952A95D1F72091BC0024FD03C010926E
:100CF0001E0208954091D5015091D6016091D7010F
:100D00007091D801452B462B472B69F30097A1051D
:100D1000B10541F025E32A95F1F700000197A109FB
:100D2000B109E1CF8091D4010C944C031F920F9232
:100D30000FB60F9211242F933F934F935F936F93AE
:100D40007F938F939F93AF93BF93EF93FF9385E52B
:100D500092E00E940D01FF91EF91BF91AF919F91A1
:100D60008F917F916F915F914F913F912F910F9054
:100D70000FBE0F901F9018951F920F920FB60F92F3
:100D800011242F938F939F93EF93FF93E09165022C
:100D9000F09166028081E0916B02F0916C0282FD1D
:100DA0001BC0908180916E028F5F8F7320916F02C4
:100DB000821741F0E0916E02F0E0EB5AFD4F958F03
:100DC00080936E02FF91EF919F918F912F910F90E1
:100DD0000FBE0F901F9018958081F4CF1F920F9235
:100DE0000FB60F9211242F933F938F939F93AF933E
:100DF000BF938091FE029091FF02A0910003B091F9
:100E000001033091440223E0230F2D3758F501965A
:100E1000A11DB11D209344028093FE029093FF0216
:100E2000A0930003B0930103809145029091460284
:100E3000A0914702B09148020196A11DB11D809377
:100E4000450290934602A0934702B0934802BF9197
:100E5000AF919F918F913F912F910F900FBE0F9067
:100E60001F90189526E8230F0296A11DB11DD2CF21
:100E70001F920F920FB60F9211242F933F934F930F
:100E80005F936F937F938F939F93AF93BF93EF93F2
:100E9000FF938091B900887F803609F44AC0F0F54D
:100EA000883209F4A7C018F5803109F49BC0B8F462
:100EB000882309F4F9C0883009F494C0FF91EF91B8
:100EC000BF91AF919F918F917F916F915F914F9162
:100ED0003F912F910F900FBE0F901F901895883162
:100EE00009F488C0803251F780931D0214C0803409
:100EF00009F49DC040F48033B9F38833F9F6809348
:100F00001D0285ECB0C0803509F485C0883509F430
:100F100096C0883499F60E945E06D0CF883909F4CD
:100F20008CC038F5883729F050F4883611F08037B6
:100F300029F683E080931E0210921C0257C0883865
:100F400009F47BC0803919F0803809F0B7CF80915F
:100F50001C02803208F071C0E0911C0281E08E0F0B
:100F600080931C028091BB00F0E0E450FE4F808330
:100F70003DC0803B39F0E0F4803A09F479C0883A0A
:100F800009F09CCF84E080931E021092FB01109226
:100F9000FA01E0914F02F091500209958091FA0117
:100FA00081110FC081E08093FA011092DA0109C02B
:100FB000803C09F4A6CF883C09F4A3CF883B09F014
:100FC0007DCFE091FB0181E08E0F8093FB01F0E08B
:100FD000E652FE4F80818093BB009091FB0180918F
:100FE000FA0129C0809143028093BB0085EC809375
:100FF000BC0064CF9091420280914102981758F54D
:10100000E091420281E08E0F80934202F0E0EF5DBA
:10101000FD4F8081E9CFE091420281E08E0F809305
:1010200042028091BB00F0E0EF5DFD4F8083909124
:101030004202809141029817C8F285E8D8CFE0912A
:10104000420281E08E0F809342028091BB00F0E06B
:10105000EF5DFD4F80838091200281115CCF81E0A4
:1010600080931F0284EA8093BC0010921E0226CF58
:1010700085EC8093BC0010921E0280911C0280328D
:1010800030F4E0911C02F0E0E450FE4F10826091D9
:101090001C0270E0E0914D02F0914E028CEF91E065
:1010A000099510921C020ACF10921D0234CF1F9294
:1010B0000F920FB60F9211242F933F934F935F938C
:1010C0006F937F938F939F93AF93BF93EF93FF9310
:1010D000E0914B02F0914C02309749F0A685B7851C
:1010E0008585968D91FF14C09C918923A1F4FF9171
:1010F000EF91BF91AF919F918F917F916F915F9190
:101100004F913F912F910F900FBE0F901F90189508
:101110009C91892361F7A389B4899C9185898095E5
:1011200089238C93868997890197F1F7608D718D5A
:10113000A685B785558538E020E0CB010197F1F70A
:10114000822F90E095958795282F4C91452309F0A3
:101150002068315091F7868D81FD209580914A025B
:1011600090E001968F73992730914902381799F0D2
:10117000A0914A02B0E0AE5ABE4F2C9380934A022F
:10118000828D938D0197F1F7A389B4898C9195890C
:10119000892B8C93ACCF868D8160868FF1CFCF93D6
:1011A000DF93109258021092570288EE93E0A0E06D
:1011B000B0E08093590290935A02A0935B02B093DF
:1011C0005C022AE031E0309356022093550225EC70
:1011D00030E0309362022093610224EC30E03093DF
:1011E00064022093630220EC30E030936602209387
:1011F000650221EC30E0309368022093670222EC14
:1012000030E030936A022093690226EC30E030939C
:101210006C0220936B0210926E0210926F02109279
:101220007002109271021092F5021092F4028093F3
:10123000F6029093F702A093F802B093F9028CE1C2
:1012400091E09093F3028093F20280E092ECA1E0AF
:10125000B0E080930E0390930F03A0931003B0931C
:101260001103109215031092140380E491E09093FF
:1012700013038093120387E28093160380E1809327
:101280001B0382E080931C0310921D038FB7F89418
:101290004091FE025091FF026091000370910103A2
:1012A0008FBFCAEAD3E0E6E4F3E02EE133E019921F
:1012B00011921192D9014D935D936D937D939D0190
:1012C000CF01825B9F4FDC011D921C92B3E0EA3597
:1012D000FB0769F71092C9031092C8031092CA0362
:1012E0001092CE031092CD0388EE93E0A0E0B0E020
:1012F0008093CF039093D003A093D103B093D203F4
:101300008EE291E09093CC038093CB031092E203A2
:101310001092E1031092E4031092E3031092E603AB
:101320001092E5031092E8031092E7036091E9033D
:101330006E7F6D7F6093E9036695617081E0682739
:101340008CE00E949C0161E08CE00E94E801EAEBE5
:10135000F0E0E491E093DB03E6EAF0E0E491F0E012
:10136000EE0FFF1FE057FF4F859194919093DD039F
:101370008093DC0360E08DE00E94E8018091E90346
:1013800081FD04C061E08DE00E949C018DE08093AE
:10139000D703EBEBF0E0E491E093D803E7EAF0E069
:1013A000E491F0E0EE0FFF1FEA57FF4F8591949113
:1013B0009093DA038093D90386ED95E09093EB0345
:1013C0008093EA0383E090E0909303038093020309
:1013D00085E090E0909305038093040384E090E01F
:1013E000909307038093060361E083E00E94E80185
:1013F00061E085E00E94E80161E084E00E94E8018C
:1014000089E090E0909309038093080388E090E0DE
:1014100090930B0380930A0387E090E090930D0371
:1014200080930C0361E089E00E94E80161E088E0BC
:101430000E94E80161E087E0DF91CF910C94E80120
:10144000CF93DF93CDB7DEB762970FB6F894DEBFC8
:101450000FBECDBF789484B5826084BD84B58160B1
:1014600084BD85B5826085BD85B5816085BD80916F
:101470006E00816080936E001092810080918100E7
:1014800082608093810080918100816080938100DF
:10149000809180008160809380008091B1008460A1
:1014A0008093B1008091B00081608093B000809102
:1014B0007A00846080937A0080917A0082608093C1
:1014C0007A0080917A00816080937A0080917A001E
:1014D000806880937A001092C100C0900E03D09073
:1014E0000F03E0901003F0901103E0916502F0917A
:1014F000660282E08083C11481EED806E104F10423
:10150000A1F060E079E08DE390E0A70196010E94F0
:101510002D0E2150310941095109569547953795AE
:101520002795211590E13907A8F0E0916502F09127
:101530006602108260E874E88EE190E0A7019601EF
:101540000E942D0E215031094109510956954795A8
:1015500037952795E0916102F09162023083E09126
:101560006302F0916402208310926D02E09169029F
:10157000F0916A0286E08083E0916702F091680250
:10158000808180618083E0916702F09168028081B0
:1015900088608083E0916702F091680280818068B2
:1015A0008083E0916702F091680280818F7D808363
:1015B0008091CA03811189C0109254021092530283
:1015C00010925202109251020E942E038DE890E078
:1015D0009093500280934F028EE890E090934E02D9
:1015E00080934D021092170380911C03823018F0F3
:1015F00098E09093170380931A0362E370E080E011
:1016000090E00E94970260911D0382E193E00E94A6
:10161000F30368EE73E080E090E00E94970260E3DD
:1016200082E193E00E948B050BE416E4C801019768
:10163000F1F760E382E193E00E948B05C801019716
:10164000F1F760E382E193E00E948B0583E592E08D
:101650000197F1F760E282E193E00E948B056091CF
:101660001703606240E082E193E00E94A40584E0F9
:101670008093180340E06CE082E193E00E94A405AF
:1016800040E061E082E193E00E94A4050BE31FE1EA
:10169000C8010197F1F782E08093190340E066E00A
:1016A00082E193E00E94A40540E062E082E193E0E1
:1016B0000E94A405C8010197F1F788E080931D03FB
:1016C00060E082E193E00E94F3031092E60310923F
:1016D000E5031092E4031092E3031092E2031092E8
:1016E000E1038DE991E09093E8038093E703909103
:1016F000D703963108F047C02DEB30E03093E2037A
:101700002093E1032BE931E03093E4032093E303DA
:101710002CE231E03093E6032093E503209168004A
:1017200084E0983048F031E09E3008F430E081E009
:1017300001C0880F3A95EAF7822B809368002DE666
:1017400030E0983050F02BE630E09E3030F02CE660
:1017500030E0963110F030E020E03093DF0320934A
:10176000DE03292F30E0983008F087C081E001C007
:10177000880F9A95EAF78093E0038091E7039091B0
:10178000E8030197F1F78091E5039091E603892B37
:1017900049F1E0914B02F0914C02A3E0EB3CFA07D7
:1017A00009F1309739F0A389B4899C918589809596
:1017B00089238C938091E9038E7F8093E9031092B3
:1017C0004A02109249028BEC93E090934C02809372
:1017D0004B02E091DE03F091DF0380819091E00302
:1017E000892B808322242394312C18861F821A8609
:1017F00019861C861B8670E060E0CE0107960E9469
:1018000036062F813885811145C02115310519F023
:10181000C9010E94050F18861F821C861B861A8626
:1018200019868BEC93E00E944F056C01892BD1F156
:101830008BEC93E00E94670589831A820B851C85D7
:101840000F5F1F4FB801CE0107960E94360688230E
:1018500069F02F8138858B859C85BE016F5F7F4F36
:10186000820F931F0E945D101C870B8765E070E05C
:1018700080E090E00E949702D4CF9E3040F4285040
:10188000310981E001C0880F2A95EAF774CF2E5004
:101890003109F7CF1C861B866BE471E0C9010E94F9
:1018A0005D10BFCFAF80B884A114B10439F00B85AF
:1018B0001C8575010115110509F0C9C06BE471E0C3
:1018C000CE0107960E94C105811133C00091EA0341
:1018D0001091EB030115110561F11A8219821C8226
:1018E0001B821E821D82EF80F884E114F104B9F09E
:1018F000AB84BC84B501CE0101960E9436062981D5
:101900003A818111DAC02115310519F0C9010E940F
:10191000050F1A8219821E821D821C821B82CE0133
:101920000196F801099589819A81009711F00E942A
:10193000050F8FB7F8948090FE029090FF02A09060
:101940000003B09001038FBFE6E4F3E00EE013E084
:101950001A8B098B30E020E0AF0142595F4FDA016A
:101960001D921C92808191813296892BD1F1A98997
:10197000BA8950964D915D916D917C915397CD01AF
:10198000845B9F4FDC014D905D906D907C90D50104
:10199000C401841B950BA60BB70B84159505A605F2
:1019A000B705F8F0440D551D661D771DA989BA8944
:1019B00050964D935D936D937C935397C9018655D3
:1019C0009C4FDC018C91882361F042AD53AD4115F1
:1019D000510509F079C0CF0184599F4FDC012D9248
:1019E0003C922F5F3F4FA989BA891496BA8BA98B75
:1019F0002A30310509F0B0CF7801B6EAEB0EF11CC0
:101A0000F701808191818130910509F47CC00297B2
:101A100009F47FC0BFEFCB1ADB0A0E5F1F4FEAE06D
:101A2000CE16D10449F78F819885009711F00E9456
:101A3000050F80E090E0892B09F4D7CE0E94F900D1
:101A4000882309F4D2CE0E940000CFCE7401470152
:101A5000BFEF8B1A9B0AF7018081082E000C990BAF
:101A60000E94D60D892B91F7015011090A0D1B1DFB
:101A7000D8018C91082E000C990B0E94D60D892B51
:101A800031F00E151F0518F001501109F1CF0F5F4D
:101A90001F4FA8014E195F095C874B87AE14BF0426
:101AA00020F4B701C5010E944B10EF81F8858B85AA
:101AB0009C85E80FF91F108201CFBE82AD82B7016D
:101AC000C9010E945D102BCF7F01BEE4EB0EF11C1B
:101AD000D7018D919C91841795070CF082CFBF019F
:101AE00064597F4FDB012D923C920196D7018D9373
:101AF0009C93841795070CF474CF82E090E0DB018F
:101B00008D939C936ECFD801D896ED91FC91099559
:101B100081CFD801D896ED91FC9109958091C803A9
:101B20009091C903009709F475CFF80120AD31AD4C
:101B3000232B09F46FCF11AE10AEF601E655FC4F22
:101B40001082D7011D921C92F601EE0FFF1FEE0FBF
:101B5000FF1FE65AFC4F1082118212821382F80195
:101B6000E857FF4F1182108201979093C903809329
:101B7000C80350CF8EE291E09093CC038093CB03C7
:101B800080914B0290914C028B5C934071F4E091F8
:101B9000DE03F091DF0390818091E003809589233B
:101BA000808310924C0210924B02089591110C9474
:101BB000DF0D803219F089508550C8F708959927B4
:101BC000882708952F923F924F925F926F927F9253
:101BD0008F929F92AF92BF92CF92DF92EF92FF923D
:101BE0000F931F93CF93DF93CDB7DEB7CA1BDB0BE9
:101BF0000FB6F894DEBF0FBECDBF09942A8839888E
:101C000048885F846E847D848C849B84AA84B98494
:101C1000C884DF80EE80FD800C811B81AA81B981A0
:101C2000CE0FD11D0FB6F894DEBF0FBECDBFED01B4
:101C3000089597FB072E16F4009407D077FD09D07E
:101C40000E944F0E07FC05D03EF4909581959F4F62
:101C50000895709561957F4F0895A1E21A2EAA1BF1
:101C6000BB1BFD010DC0AA1FBB1FEE1FFF1FA2174C
:101C7000B307E407F50720F0A21BB30BE40BF50B49
:101C8000661F771F881F991F1A9469F760957095D2
:101C9000809590959B01AC01BD01CF010895AA1BD1
:101CA000BB1B51E107C0AA1FBB1FA617B70710F047
:101CB000A61BB70B881F991F5A95A9F78095909579
:101CC000BC01CD010895EE0FFF1F0590F491E02DAA
:101CD00009940F931F93CF93DF938230910510F4F3
:101CE00082E090E0E091EE03F091EF0330E020E03D
:101CF000B0E0A0E0309799F42115310509F44AC00D
:101D0000281B390B24303105D8F58A819B81611558
:101D1000710589F1FB0193838283FE0111C040812B
:101D200051810281138148175907E0F0481759077C
:101D300099F4109761F012960C93129713961C93D6
:101D40003296CF01DF91CF911F910F9108950093AB
:101D5000EE031093EF03F4CF2115310551F0421734
:101D6000530738F0A901DB019A01BD01DF01F80139
:101D7000C1CFEF01F9CF9093EF038093EE03CDCF66
:101D8000FE01E20FF31F81939193225031093983B1
:101D90002883D7CF2091EC033091ED03232B41F41E
:101DA00020910201309103013093ED032093EC0365
:101DB00020910001309101012115310541F42DB729
:101DC0003EB74091040150910501241B350BE09171
:101DD000EC03F091ED03E217F307A0F42E1B3F0B89
:101DE0002817390778F0AC014E5F5F4F241735078D
:101DF00048F04E0F5F1F5093ED034093EC03819327
:101E000091939FCFF0E0E0E09CCFCF93DF930097DA
:101E1000E9F0FC01329713821282A091EE03B09197
:101E2000EF03ED0130E020E01097A1F42081318133
:101E3000820F931F2091EC033091ED03281739078F
:101E400009F061C0F093ED03E093EC03DF91CF91D3
:101E50000895EA01CE17DF07E8F54A815B819E010C
:101E600041155105B1F7E901FB83EA834991599185
:101E7000C40FD51FEC17FD0761F480819181029694
:101E8000840F951FE90199838883828193819B83C5
:101E90008A83F0E0E0E012968D919C911397009771
:101EA000B9F52D913C911197CD010296820F931FA8
:101EB0002091EC033091ED032817390739F630975C
:101EC00051F51092EF031092EE03B093ED03A0933F
:101ED000EC03BCCFD383C28340815181840F951F13
:101EE000C817D90761F44E5F5F4F88819981480F09
:101EF000591F518340838A819B819383828321155B
:101F0000310509F0B0CFF093EF03E093EE039ECFDD
:101F1000FD01DC01C0CF13821282D7CFB0E0A0E078
:101F2000E4E9FFE00C94E40D8C01009751F4CB013F
:101F30000E94690E8C01C801CDB7DEB7E0E10C94B8
:101F4000000EFC01E60FF71F9C0122503109E21739
:101F5000F30708F49DC0D901CD91DC911197C61704
:101F6000D70798F0C530D10530F3CE010497861716
:101F7000970708F3C61BD70B2297C193D1936D9394
:101F80007C93CF010E94050FD6CF5B01AC1ABD0A2E
:101F90004C018C0E9D1EA091EE03B091EF03512CCD
:101FA000412CF12CE12C109731F58091EC039091AC
:101FB000ED038815990509F05CC04616570608F030
:101FC00058C08091000190910101009741F48DB7B4
:101FD0009EB74091040150910501841B950BE817B1
:101FE000F90708F055C0F093ED03E093EC03F90115
:101FF00071836083A0CF8D919C91119712966C9004
:10200000129713967C901397A815B90559F56C0192
:1020100042E0C40ED11CCA14DB0420F1AC014A1901
:102020005B09DA011296159780F062827382518300
:102030004083D9016D937C93E114F10471F0D701D1
:102040001396FC93EE93129776CF22968C0F9D1FDA
:10205000F90191838083F301EFCFF093EF03E093D5
:10206000EE0369CF4816590608F42C017D01D3010F
:102070009ACFCB010E94690E7C01009749F0AE0116
:10208000B8010E944B10C8010E94050F870153CF71
:1020900010E000E050CFFB01DC0102C001900D9286
:1020A00041505040D8F70895FB01DC018D9101901B
:1020B00080190110D9F3990B0895FB01DC010190FF
:1020C0000D920020E1F7089510E0C2E6D0E004C0D0
:1020D000FE010E94630E2196C336D107C9F7F8941A
:1020E000FFCF0000F0038000000000002F018F00F0
:1020F000BC007C01ED00CB00DF0000000000C40349
:10210000970388056D0390037D036E0300000000B4
:10211000F3048F0088056D034F056705DB0400009D
:102120000000BB058F008805DA04460042004C0021
:042130005200530006
:107E0000112484B714BE81FFF0D085E080938100F7
:107E100082E08093C00088E18093C10086E0809377
:107E2000C20080E18093C4008EE0C9D0259A86E02C
:107E300020E33CEF91E0309385002093840096BBD3
:107E4000B09BFECF1D9AA8958150A9F7CC24DD24C4
:107E500088248394B5E0AB2EA1E19A2EF3E0BF2EE7
:107E6000A2D0813461F49FD0082FAFD0023811F036
:107E7000013811F484E001C083E08DD089C08234E0
:107E800011F484E103C0853419F485E0A6D080C0E4
:107E9000853579F488D0E82EFF2485D0082F10E0AE
:107EA000102F00270E291F29000F111F8ED06801E7
:107EB0006FC0863521F484E090D080E0DECF843638
:107EC00009F040C070D06FD0082F6DD080E0C81688
:107ED00080E7D80618F4F601B7BEE895C0E0D1E017
:107EE00062D089930C17E1F7F0E0CF16F0E7DF06D8
:107EF00018F0F601B7BEE89568D007B600FCFDCFD4
:107F0000A601A0E0B1E02C9130E011968C91119780
:107F100090E0982F8827822B932B1296FA010C0160
:107F200087BEE89511244E5F5F4FF1E0A038BF0790
:107F300051F7F601A7BEE89507B600FCFDCF97BE46
:107F4000E89526C08437B1F42ED02DD0F82E2BD052
:107F50003CD0F601EF2C8F010F5F1F4F84911BD097
:107F6000EA94F801C1F70894C11CD11CFA94CF0C13
:107F7000D11C0EC0853739F428D08EE10CD085E9AC
:107F80000AD08FE07ACF813511F488E018D01DD067
:107F900080E101D065CF982F8091C00085FFFCCF94
:107FA0009093C60008958091C00087FFFCCF809118
:107FB000C00084FD01C0A8958091C6000895E0E648
:107FC000F0E098E1908380830895EDDF803219F02E
:107FD00088E0F5DFFFCF84E1DECF1F93182FE3DFCA
:107FE0001150E9F7F2DF1F91089580E0E8DFEE27F6
:047FF000FF270994CA
:027FFE00040479
:00000001FF
