:100000000C945D000C9485000C9485000C94850084
:100010000C9485000C9485000C9485000C9485004C
:100020000C9485000C9485000C9485000C9485003C
:100030000C9485000C9485000C9485000C9485002C
:100040000C94F2000C9485000C9485000C948500AF
:100050000C9485000C9485000C9485000C9485000C
:100060000C9485000C94850000000008000201003B
:100070000003040700000000000000000000000072
:10008000250028002B0000000000240027002A0083
:10009000040404040404040402020202020203032E
:1000A0000303030301020408102040800102040836
:1000B0001020010204081020360211241FBECFEFC9
:1000C000D8E0DEBFCDBF11E0A0E0B1E0ECE9F5E0A3
:1000D00002C005900D92A030B107D9F721E0A0E051
:1000E000B1E001C01D92A731B207E1F710E0CDE504
:1000F000D0E004C02197FE010E94C602CC35D10792
:10010000C9F70E943C010C94CC020C94000090E0D2
:10011000FC01EC55FF4F249180579F4FFC018491C7
:10012000882399F090E0880F991FFC01EA57FF4F50
:10013000A591B491FC01E458FF4F859194918FB73C
:10014000F894EC91E22BEC938FBF089590E0FC01C2
:10015000E859FF4F2491FC01EC55FF4F3491FC010D
:10016000E057FF4FE491EE23C9F0222339F023300A
:1001700001F1A8F4213019F1223029F1F0E0EE0F5D
:10018000FF1FE458FF4FA591B4918FB7F894EC91FD
:10019000611126C030953E233C938FBF08952730D0
:1001A000A9F02830C9F0243049F7809180008F7D74
:1001B00003C0809180008F7780938000DFCF84B56B
:1001C0008F7784BDDBCF84B58F7DFBCF8091B0006E
:1001D0008F778093B000D2CF8091B0008F7DF9CF20
:1001E0003E2BDACF1F920F920FB60F9211242F934E
:1001F0003F938F939F93AF93BF938091050190910D
:100200000601A0910701B09108013091040123E09B
:10021000230F2D3758F50196A11DB11D2093040120
:100220008093050190930601A0930701B093080104
:100230008091000190910101A0910201B091030110
:100240000196A11DB11D8093000190930101A0931F
:100250000201B0930301BF91AF919F918F913F91A4
:100260002F910F900FBE0F901F90189526E8230F27
:100270000296A11DB11DD2CF789484B5826084BD51
:1002800084B5816084BD85B5826085BD85B581609A
:1002900085BD80916E00816080936E001092810018
:1002A00080918100826080938100809181008160D3
:1002B0008093810080918000816080938000809194
:1002C000B10084608093B1008091B0008160809320
:1002D000B00080917A00846080937A0080917A00E7
:1002E000826080937A0080917A00816080937A00A6
:1002F00080917A00806880937A001092C10080E03B
:10030000E82E80E0F82E80910D018E3008F08E509E
:100310008770806480937C0080917A0080648093F1
:100320007A0080917A0086FDFCCF80917800209140
:10033000790080900F0190901001092C000CAA0800
:10034000BB084090130150901401052C000C660866
:100350007708322F282F032E000C440B550B24193D
:100360003509460957096091110170911201072E54
:10037000000C880B990B681979098A099B090E945E
:10038000B6022091150130911601032E000C440B8A
:10039000550B24193509460957090E945B02820E44
:1003A000931EA41EB51E840190920C0180920B0135
:1003B000C0910901D0910A018C2F0E9487008114FD
:1003C000910429F460E08C2F0E94A60029C00F3F01
:1003D000110511F461E0F7CFFE01FF27E859FF4F47
:1003E000E491E33049F140F4E130B1F0E230F9F06A
:1003F000003811057CF7E6CFE73041F1E83071F1C4
:10040000E430B1F780918000806280938000909208
:100410008B0080928A0004C084B5806884BD87BC4C
:10042000E114F10409F46FCF0E9400006CCF84B591
:10043000806284BD88BCF4CF809180008068809306
:1004400080009092890080928800EACF8091B0006D
:1004500080688093B0008092B300E2CF8091B000BA
:1004600080628093B0008092B400DACFCF93DF93A4
:10047000EDE0F1E08EE090E0918380838FEF90E0FB
:1004800093838283158214821782168211861086C6
:10049000C9E0D1E089E090E0998388830E948700D9
:1004A0001B821A8289E00E94870060E089E0DF9168
:1004B000CF910C94A600052E97FB1EF400940E9489
:1004C000720257FD07D00E94850207FC03D04EF44C
:1004D0000C94720250954095309521953F4F4F4FA7
:1004E0005F4F089590958095709561957F4F8F4FE0
:1004F0009F4F08950E94A702A59F900DB49F900D55
:10050000A49F800D911D11240895A1E21A2EAA1B0B
:10051000BB1BFD010DC0AA1FBB1FEE1FFF1FA217B3
:10052000B307E407F50720F0A21BB30BE40BF50BB0
:10053000661F771F881F991F1A9469F76095709539
:10054000809590959B01AC01BD01CF010895A29FBC
:10055000B001B39FC001A39F700D811D1124911D97
:10056000B29F700D811D1124911D0895DB018F93A1
:100570009F930E947A02BF91AF91A29F800D911D1F
:10058000A39F900DB29F900D11240895EE0FFF1FB1
:0C0590000590F491E02D0994F894FFCF41
:00000001FF
