:020000040000FA
:100000000C9462000C948A000C948A000C948A0070
:100010000C948A000C948A000C948A000C948A0038
:100020000C948A000C948A000C948A000C948A0028
:100030000C948A000C948A000C948A000C948A0018
:100040000C94E2020C948A000C94B0020C948A0284
:100050000C948A000C948A000C948A000C948A00F8
:100060000C948A000C948A000000000024002700F1
:100070002A0000000000250028002B0000000000DE
:1000800023002600290004040404040404040202DA
:100090000202020203030303030301020408102007
:1000A0004080010204081020010204081020000012
:1000B0000008000201000003040700000000000027
:1000C00000002C0311241FBECFEFD8E0DEBFCDBF50
:1000D00011E0A0E0B1E0EAEDF9E002C005900D9278
:1000E000A831B107D9F721E0A8E1B1E001C01D9224
:1000F000A63CB207E1F710E0C2E6D0E004C02197C9
:10010000FE010E94E504C136D107C9F70E947A03B7
:100110000C94EB040C940000AF92BF92CF92DF924C
:10012000EF92FF920F931F93CF93DF936C017B01AC
:100130008B01040F151FEB015E01AE18BF08C0173D
:10014000D10759F06991D601ED91FC910190F081B0
:10015000E02DC6010995892B79F7C501DF91CF9173
:100160001F910F91FF90EF90DF90CF90BF90AF90D5
:100170000895FC01538D448D252F30E0842F90E0AD
:10018000821B930B541710F0CF9608950197089592
:10019000FC01918D828D981761F0A28DAE0FBF2F5B
:1001A000B11D5D968C91928D9F5F9F73928F90E0B1
:1001B00008958FEF9FEF0895FC01918D828D981720
:1001C00031F0828DE80FF11D858D90E008958FEF5D
:1001D0009FEF0895FC01918D228D892F90E0805C26
:1001E0009F4F821B91098F739927089581E291E0B7
:1001F0000E94EA0021E0892B09F420E0822F089573
:1002000080E090E0892B29F00E94F60081110C9487
:1002100000000895FC01A48DA80FB92FB11DA35AA9
:10022000BF4F2C91848D90E001968F739927848F16
:10023000A689B7892C93A089B1898C918370806439
:100240008C93938D848D981306C00288F389E02DDA
:1002500080818F7D80830895EF92FF920F931F938B
:10026000CF93DF93EC0181E0888F9B8D8C8D981369
:100270001AC0E889F989808185FF15C09FB7F89475
:10028000EE89FF896083E889F989808183708064C1
:1002900080839FBF81E090E0DF91CF911F910F910C
:1002A000FF90EF900895F62E0B8D10E00F5F1F4F1B
:1002B0000F731127E02E8C8D8E110CC00FB607FC2A
:1002C000FACFE889F989808185FFF5CFCE010E94B8
:1002D0000A01F1CFEB8DEC0FFD2FF11DE35AFF4F1B
:1002E000F0829FB7F8940B8FEA89FB898081806246
:1002F000CFCFCF93DF93EC01888D8823B9F0AA8903
:10030000BB89E889F9898C9185FD03C0808186FDD0
:100310000DC00FB607FCF7CF8C9185FFF2CF80811F
:1003200085FFEDCFCE010E940A01E9CFDF91CF9189
:100330000895833081F028F4813099F08230A9F05B
:1003400008958730A9F08830C9F08430B1F48091E5
:1003500080008F7D03C0809180008F778093800024
:10036000089584B58F7784BD089584B58F7DFBCFC4
:100370008091B0008F778093B00008958091B00095
:100380008F7DF9CFCF93DF93E0EBF0E08491ECE940
:10039000F0E0D491E8E8F0E0C491CC23A1F0811121
:1003A0000E949901EC2FF0E0EE0FFF1FE458FF4F81
:1003B000A591B491EC91ED2381E090E009F480E007
:1003C000DF91CF91089580E090E0FACFCF93DF9353
:1003D00090E0FC01E656FF4F24918A579F4FFC01A5
:1003E00084918823D1F090E0880F991FFC01E8598F
:1003F000FF4FA591B491FC01EE58FF4FC591D491E8
:10040000623071F49FB7F8943C91822F80958323DA
:100410008C93E8812E2B28839FBFDF91CF91089585
:100420008FB7F894EC912E2B2C938FBFF6CF3FB75C
:10043000F89480911D0190911E01A0911F01B0912F
:10044000200126B5A89B05C02F3F19F00196A11DDC
:10045000B11D3FBFBA2FA92F982F8827BC01CD010E
:10046000620F711D811D911D42E0660F771F881F6D
:10047000991F4A95D1F708958F929F92AF92BF929C
:100480000F931F93CF93DF93CDB7DEB7A1970FB62E
:10049000F894DEBF0FBECDBF19A2423008F44AE087
:1004A0008E010F5D1F4F842E912CB12CA12CA50124
:1004B00094010E94AF04E62FB901CA01EA3044F565
:1004C000E05DD801EE938D01232B242B252B79F7AA
:1004D00090E080E0109769F0FD0101900020E9F7BD
:1004E0003197AF014A1B5B0BBD0181E291E00E9495
:1004F0008C00A1960FB6F894DEBF0FBECDBFDF9182
:10050000CF911F910F91BF90AF909F908F900895C2
:10051000E95CD7CF1F920F920FB60F9211242F9341
:100520003F934F935F936F937F938F939F93AF937B
:10053000BF93EF93FF9381E291E00E940A01FF9144
:10054000EF91BF91AF919F918F917F916F915F914B
:100550004F913F912F910F900FBE0F901F901895C4
:100560001F920F920FB60F9211242F938F939F9388
:10057000EF93FF93E0913101F09132018081E0919E
:100580003701F091380182FD1BC0908180913A01C2
:100590008F5F8F7320913B01821741F0E0913A0108
:1005A000F0E0EF5DFE4F958F80933A01FF91EF9160
:1005B0009F918F912F910F900FBE0F901F901895C4
:1005C0008081F4CF1F920F920FB60F9211242F93B8
:1005D0003F938F939F93AF93BF9380911901909115
:1005E0001A01A0911B01B0911C013091180123E068
:1005F000230F2D3758F50196A11DB11D2093180129
:100600008093190190931A01A0931B01B0931C01D0
:1006100080911D0190911E01A0911F01B0912001B8
:100620000196A11DB11D80931D0190931E01A09301
:100630001F01B0932001BF91AF919F918F913F9186
:100640002F910F900FBE0F901F90189526E8230F43
:100650000296A11DB11DD2CFCF93DF93E1E2F1E06D
:100660001382128288EE93E0A0E0B0E08483958349
:10067000A683B78386E091E09183808385EC90E048
:100680009587848784EC90E09787868780EC90E05C
:10069000918B808B81EC90E0938B828B82EC90E04D
:1006A000958B848B86EC90E0978B868B118E128EC7
:1006B000138E148ECEEBD1E088E090E0998388838E
:1006C00061E00E94E60189E090E09B838A8361E01B
:1006D0000E94E6018AE090E09D838C8361E00E94A5
:1006E000E6018BE090E09F838E8361E0DF91CF9104
:1006F0000C94E601789484B5826084BD84B58160F1
:1007000084BD85B5826085BD85B5816085BD8091DC
:100710006E00816080936E00109281008091810054
:10072000826080938100809181008160809381004C
:10073000809180008160809380008091B10084600E
:100740008093B1008091B00081608093B00080916F
:100750007A00846080937A0080917A00826080932E
:100760007A0080917A00816080937A0080917A008B
:10077000806880937A001092C100E0913101F0917D
:10078000320182E08083E0912D01F0912E011082F0
:10079000E0912F01F091300180E1808310923901C6
:1007A000E0913501F091360186E08083E0913301DC
:1007B000F0913401808180618083E0913301F09178
:1007C0003401808188608083E0913301F0913401AD
:1007D000808180688083E0913301F09134018081D1
:1007E0008F7D808362E082E00E94E60124E0C22ED9
:1007F000D12C30E0E32E30E0F32E0E94C2018C01B8
:100800000E9417022B013C019AE0892E912CA12C09
:10081000B12C0E9417026419750986099709683E70
:10082000734081059105A8F321E0821A9108A1087F
:10083000B10888EE480E83E0581E611C711C8114BB
:100840009104A104B10429F70E94C201EC01012B1B
:1008500009F45FC0892B09F05CC080910001909180
:1008600001010196B6010E949B04909301018093BF
:1008700000014C01092E000CAA08BB0897FF55C0C7
:100880006DE281E291E00E942C0166277727CB017F
:10089000681979098A099B094AE00E943C0242E0F2
:1008A00050E064E171E081E291E00E948C000EEB87
:1008B00011E0F801219131918F013327F901E255BF
:1008C000FF4F8491F901E656FF4F9490F901EA57E2
:1008D000FF4F84908820C9F0A0900001B0900101E2
:1008E00081110E949901E82DF0E0EE0FFF1FEE58F4
:1008F000FF4FA591B4918FB7F894EC91AC16BD065B
:10090000C1F090949E229C928FBF2196C430D10555
:1009100081F6E114F10409F470CF0E94F6008823F7
:1009200009F46BCF0E94000068CF4AE0C501B40112
:10093000B4CF9E2AE8CF97FB072E16F4009407D079
:1009400077FD09D00E94D10407FC05D03EF49095B4
:1009500081959F4F0895709561957F4F0895A1E20D
:100960001A2EAA1BBB1BFD010DC0AA1FBB1FEE1F29
:10097000FF1FA217B307E407F50720F0A21BB30B74
:10098000E40BF50B661F771F881F991F1A9469F7F0
:1009900060957095809590959B01AC01BD01CF014C
:1009A0000895AA1BBB1B51E107C0AA1FBB1FA617B6
:1009B000B70710F0A61BB70B881F991F5A95A9F708
:1009C00080959095BC01CD010895EE0FFF1F059015
:1009D000F491E02D0994F894FFCFFFFF0000000090
:1009E0002C018C00B9007901EA00C800DC000D0A76
:0209F000000005
:107E0000112484B714BE81FFF0D085E080938100F7
:107E100082E08093C00088E18093C10086E0809377
:107E2000C20080E18093C4008EE0C9D0259A86E02C
:107E300020E33CEF91E0309385002093840096BBD3
:107E4000B09BFECF1D9AA8958150A9F7CC24DD24C4
:107E500088248394B5E0AB2EA1E19A2EF3E0BF2EE7
:107E6000A2D0813461F49FD0082FAFD0023811F036
:107E7000013811F484E001C083E08DD089C08234E0
:107E800011F484E103C0853419F485E0A6D080C0E4
:107E9000853579F488D0E82EFF2485D0082F10E0AE
:107EA000102F00270E291F29000F111F8ED06801E7
:107EB0006FC0863521F484E090D080E0DECF843638
:107EC00009F040C070D06FD0082F6DD080E0C81688
:107ED00080E7D80618F4F601B7BEE895C0E0D1E017
:107EE00062D089930C17E1F7F0E0CF16F0E7DF06D8
:107EF00018F0F601B7BEE89568D007B600FCFDCFD4
:107F0000A601A0E0B1E02C9130E011968C91119780
:107F100090E0982F8827822B932B1296FA010C0160
:107F200087BEE89511244E5F5F4FF1E0A038BF0790
:107F300051F7F601A7BEE89507B600FCFDCF97BE46
:107F4000E89526C08437B1F42ED02DD0F82E2BD052
:107F50003CD0F601EF2C8F010F5F1F4F84911BD097
:107F6000EA94F801C1F70894C11CD11CFA94CF0C13
:107F7000D11C0EC0853739F428D08EE10CD085E9AC
:107F80000AD08FE07ACF813511F488E018D01DD067
:107F900080E101D065CF982F8091C00085FFFCCF94
:107FA0009093C60008958091C00087FFFCCF809118
:107FB000C00084FD01C0A8958091C6000895E0E648
:107FC000F0E098E1908380830895EDDF803219F02E
:107FD00088E0F5DFFFCF84E1DECF1F93182FE3DFCA
:107FE0001150E9F7F2DF1F91089580E0E8DFEE27F6
:047FF000FF270994CA
:027FFE00040479
:00000001FF
