:020000040000FA
:100000000C945D000C947A000C947A000C947A00A5
:100010000C947A000C947A000C947A000C947A0078
:100020000C947A000C941C010C947A000C947A00C5
:100030000C947A000C947A000C947A000C947A0058
:100040000C94D2000C947A000C947A000C947A00F0
:100050000C947A000C947A000C947A000C947A0038
:100060000C947A000C947A00000000080002010051
:100070000003040700000000000000000000000072
:10008000250028002B0000000000240027002A0083
:10009000040404040404040402020202020203032E
:1000A0000303030301020408102040800102040836
:1000B0001020010204081020280211241FBECFEFD7
:1000C000D8E0DEBFCDBF21E0A0E0B1E001C01D92CD
:1000D000A931B207E1F710E0CDE5D0E004C02197E7
:1000E000FE010E944A02CC35D107C9F70E948E0159
:1000F0000C9450020C9400004091000181E04827CC
:100100004093000180910101909102019927FC0127
:10011000E859FF4F3491FC01EC55FF4F2491FC014D
:10012000E057FF4FE491EE23C9F0332339F0333029
:1001300001F1A8F4313019F1323029F1F0E0EE0F7D
:10014000FF1FE458FF4FA591B4918FB7F894EC913D
:10015000411126C020952E232C938FBF0895373050
:10016000A9F03830C9F0343049F7809180008F7D94
:1001700003C0809180008F7780938000DFCF84B5AB
:100180008F7784BDDBCF84B58F7DFBCF8091B000AE
:100190008F778093B000D2CF8091B0008F7DF9CF60
:1001A0002E2BDACF1F920F920FB60F9211242F939E
:1001B0003F938F939F93AF93BF938091080190914A
:1001C0000901A0910A01B0910B013091070123E0D0
:1001D000230F2D3758F50196A11DB11D209307015E
:1001E0008093080190930901A0930A01B0930B0139
:1001F0008091030190910401A0910501B091060145
:100200000196A11DB11D8093030190930401A09359
:100210000501B0930601BF91AF919F918F913F91DE
:100220002F910F900FBE0F901F90189526E8230F67
:100230000296A11DB11DD2CF1F920F920FB60F9241
:1002400011242F933F934F935F936F937F938F93DB
:100250009F93AF93BF93EF93FF938091120190917F
:1002600013018093B2008091150190911601A09125
:100270001701B09118010196A11DB11D80931501C0
:1002800090931601A0931701B09318018091150166
:1002900090911601A0911701B091180140910E01A3
:1002A00050910F0160911001709111018417950711
:1002B000A607B70710F18091140181111EC081E0DB
:1002C000809314018091150190911601A09117015E
:1002D000B0911801841B950BA60BB70B80931501E9
:1002E00090931601A0931701B0931801E0910C01AF
:1002F000F0910D01099510921401FF91EF91BF91BA
:10030000AF919F918F917F916F915F914F913F91AD
:100310002F910F900FBE0F901F901895789484B571
:10032000826084BD84B5816084BD85B5826085BDF1
:1003300085B5816085BD80916E00816080936E007F
:100340001092810080918100826080938100809171
:100350008100816080938100809180008160809322
:1003600080008091B10084608093B1008091B000E2
:1003700081608093B00080917A00846080937A00DD
:1003800080917A00826080937A0080917A00816007
:1003900080937A0080917A00806880937A0010922E
:1003A000C10084EF91E0A0E0B0E080930E01909353
:1003B0000F01A0931001B09311018CE790E090938E
:1003C0000D0180930C01809170008E7F80937000EE
:1003D0008091B0008C7F8093B0008091B100877FC6
:1003E0008093B1008091B6008F7D8093B60080919C
:1003F00070008D7F809370008091B1008460809345
:10040000B1008091B1008C7F8093B10086E090E0D4
:10041000909313018093120110921501109216010E
:10042000109217011092180110921401809112017C
:10043000909113018093B20080917000816080934D
:100440007000C0E0D0E02097F1F30E940000FBCFE5
:1004500088E090E09093020180930101ECEAF0E0E3
:100460002491E8E9F0E08491882399F090E0880FE6
:10047000991FFC01EA57FF4FA591B491FC01E45884
:10048000FF4F859194918FB7F894EC91E22BEC9308
:100490008FBF0895EE0FFF1F0590F491E02D099492
:0404A000F894FFCFFE
:107E0000112484B714BE81FFF0D085E080938100F7
:107E100082E08093C00088E18093C10086E0809377
:107E2000C20080E18093C4008EE0C9D0259A86E02C
:107E300020E33CEF91E0309385002093840096BBD3
:107E4000B09BFECF1D9AA8958150A9F7CC24DD24C4
:107E500088248394B5E0AB2EA1E19A2EF3E0BF2EE7
:107E6000A2D0813461F49FD0082FAFD0023811F036
:107E7000013811F484E001C083E08DD089C08234E0
:107E800011F484E103C0853419F485E0A6D080C0E4
:107E9000853579F488D0E82EFF2485D0082F10E0AE
:107EA000102F00270E291F29000F111F8ED06801E7
:107EB0006FC0863521F484E090D080E0DECF843638
:107EC00009F040C070D06FD0082F6DD080E0C81688
:107ED00080E7D80618F4F601B7BEE895C0E0D1E017
:107EE00062D089930C17E1F7F0E0CF16F0E7DF06D8
:107EF00018F0F601B7BEE89568D007B600FCFDCFD4
:107F0000A601A0E0B1E02C9130E011968C91119780
:107F100090E0982F8827822B932B1296FA010C0160
:107F200087BEE89511244E5F5F4FF1E0A038BF0790
:107F300051F7F601A7BEE89507B600FCFDCF97BE46
:107F4000E89526C08437B1F42ED02DD0F82E2BD052
:107F50003CD0F601EF2C8F010F5F1F4F84911BD097
:107F6000EA94F801C1F70894C11CD11CFA94CF0C13
:107F7000D11C0EC0853739F428D08EE10CD085E9AC
:107F80000AD08FE07ACF813511F488E018D01DD067
:107F900080E101D065CF982F8091C00085FFFCCF94
:107FA0009093C60008958091C00087FFFCCF809118
:107FB000C00084FD01C0A8958091C6000895E0E648
:107FC000F0E098E1908380830895EDDF803219F02E
:107FD00088E0F5DFFFCF84E1DECF1F93182FE3DFCA
:107FE0001150E9F7F2DF1F91089580E0E8DFEE27F6
:047FF000FF270994CA
:027FFE00040479
:00000001FF
