:100000000C945D000C947C010C9455010C948500BB
:100010000C9485000C9485000C9485000C9485004C
:100020000C9485000C9485000C9485000C9485003C
:100030000C9485000C9485000C9485000C9485002C
:100040000C940B010C9485000C9485000C94850095
:100050000C9485000C9485000C9485000C9485000C
:100060000C9485000C94850000000008000201003B
:100070000003040700000000000000000000000072
:10008000250028002B0000000000240027002A0083
:10009000040404040404040402020202020203032E
:1000A0000303030301020408102040800102040836
:1000B0001020010204081020240211241FBECFEFDB
:1000C000D8E0DEBFCDBF11E0A0E0B1E0E8EFF4E0A2
:1000D00002C005900D92A430B107D9F721E0A4E049
:1000E000B1E001C01D92A831B207E1F710E0CDE503
:1000F000D0E004C02197FE010E947402CC35D107E4
:10010000C9F70E94A3010C947A020C940000089590
:100110000F931F932FB7F89480910C0190910D01CC
:10012000A0910E01B0910F012FBF40911401509189
:10013000150160911601709117018C019D01041B3E
:10014000150B260B370BB901A801483C5105610579
:10015000710508F43AC08093140190931501A0939F
:100160001601B09317014091040181E048274093A4
:10017000040180910501909106019927FC01E8593D
:10018000FF4F3491FC01EC55FF4F2491FC01E057E7
:10019000FF4FE491EE23C9F0332339F0333011F1EE
:1001A000B8F4313029F1323039F1F0E0EE0FFF1FB1
:1001B000E458FF4FA591B4918FB7F894EC91411199
:1001C00028C020952E232C938FBF1F910F91089547
:1001D0003730A9F03830C9F0343039F780918000D9
:1001E0008F7D03C0809180008F7780938000DDCF6A
:1001F00084B58F7784BDD9CF84B58F7DFBCF8091B7
:10020000B0008F778093B000D0CF8091B0008F7D09
:10021000F9CF2E2BD8CF1F920F920FB60F92112429
:100220002F933F938F939F93AF93BF9380910C0134
:1002300090910D01A0910E01B0910F0130910B0131
:1002400023E0230F2D3758F50196A11DB11D2093F2
:100250000B0180930C0190930D01A0930E01B093BC
:100260000F018091070190910801A0910901B091BF
:100270000A010196A11DB11D809307019093080109
:10028000A0930901B0930A01BF91AF919F918F9103
:100290003F912F910F900FBE0F901F90189526E859
:1002A000230F0296A11DB11DD2CF1F920F920FB640
:1002B0000F9211242F933F934F935F936F937F93EC
:1002C0008F939F93AF93BF93EF93FF93E0910201BE
:1002D000F09103010995FF91EF91BF91AF919F912B
:1002E0008F917F916F915F914F913F912F910F90DF
:1002F0000FBE0F901F9018951F920F920FB60F927E
:1003000011242F933F934F935F936F937F938F931A
:100310009F93AF93BF93EF93FF93E0910001F09110
:1003200001010995FF91EF91BF91AF919F918F913D
:100330007F916F915F914F913F912F910F900FBEE1
:100340000F901F901895789484B5826084BD84B511
:10035000816084BD85B5826085BD85B5816085BDC0
:1003600080916E00816080936E0010928100809178
:100370008100826080938100809181008160809300
:100380008100809180008160809380008091B10025
:1003900084608093B1008091B00081608093B00050
:1003A00080917A00846080937A0080917A008260E4
:1003B00080937A0080917A00816080937A008091A6
:1003C0007A00806880937A001092C10080911001B9
:1003D000909111018230910549F1039769F488E801
:1003E00090E0909303018093020180916900837FE4
:1003F000886080936900E99A2FB7F89480910C0186
:1004000090910D01A0910E01B0910F012FBF80932B
:10041000140190931501A0931601B0931701C0E049
:10042000D0E02097F1F30E940000FBCF88E890E035
:100430009093010180930001809169008C7F82601C
:1004400080936900E89AD8CFCF93DF9388E090E05B
:100450009093060180930501ECEAF0E02491E8E92D
:10046000F0E08491882399F090E0880F991FFC01B7
:10047000EA57FF4FA591B491FC01E458FF4F8591D5
:1004800094918FB7F894EC91E22BEC938FBF82E0BC
:1004900090E09093110180931001E6EAF0E024913E
:1004A000E2E9F0E084918823C1F090E0880F991F81
:1004B000FC01EA57FF4FC591D491FC01E458FF4F6E
:1004C000A591B4919FB7F8943881822F80958323AA
:1004D0008883EC91E22BEC939FBF10921301109252
:1004E0001201DF91CF910895EE0FFF1F0590F49157
:0804F000E02D0994F894FFCF00
:0404F80087008700F2
:00000001FF
