:020000040000FA
:100000000C9453000C94F3020C94CC020C947B00DF
:100010000C947B000C947B000C947B000C947B0074
:100020000C947B000C947B000C947B000C947B0064
:100030000C947B000C947B000C947B000C947B0054
:100040000C9482020C947B000C9450020C942A02B3
:100050000C947B000C947B000C947B000C947B0034
:100060000C947B000C947B0000000000250028000D
:100070002B0000000000240027002A0004040404D0
:100080000404040402020202020203030303030342
:10009000010204081020408001020408102001021F
:1000A00004081020D90311241FBECFEFD8E0DEBF13
:1000B000CDBF11E0A0E0B1E0E0E6F8E002C00590BD
:1000C0000D92AA31B107D9F721E0AAE1B1E001C050
:1000D0001D92A43CB207E1F710E0C3E5D0E004C0F4
:1000E0002197FE010E942804C235D107C9F70E945A
:1000F0001A030C942E040C940000AF92BF92CF927E
:10010000DF92EF92FF920F931F93CF93DF936C01D7
:100110007B018B01040F151FEB015E01AE18BF08B8
:10012000C017D10759F06991D601ED91FC9101906A
:10013000F081E02DC6010995892B79F7C501DF9182
:10014000CF911F910F91FF90EF90DF90CF90BF90D4
:10015000AF900895FC01538D448D252F30E0842FFE
:1001600090E0821B930B541710F0CF9608950197DF
:100170000895FC01918D828D981761F0A28DAE0FCC
:10018000BF2FB11D5D968C91928D9F5F9F73928F53
:1001900090E008958FEF9FEF0895FC01918D828D7F
:1001A000981731F0828DE80FF11D858D90E008954C
:1001B0008FEF9FEF0895FC01918D228D892F90E0A4
:1001C000805C9F4F821B91098F739927089587E266
:1001D00091E00E94DB0021E0892B09F420E0822FCE
:1001E000089580E090E0892B29F00E94E7008111BA
:1001F0000C9400000895FC01A48DA80FB92FB11D27
:10020000A35ABF4F2C91848D90E001968F7399274C
:10021000848FA689B7892C93A089B1898C9183702A
:1002200080648C93938D848D981306C00288F38923
:10023000E02D80818F7D80830895EF92FF920F9350
:100240001F93CF93DF93EC0181E0888F9B8D8C8D82
:1002500098131AC0E889F989808185FF15C09FB776
:10026000F894EE89FF896083E889F9898081837039
:10027000806480839FBF81E090E0DF91CF911F91E8
:100280000F91FF90EF900895F62E0B8D10E00F5F09
:100290001F4F0F731127E02E8C8D8E110CC00FB6DF
:1002A00007FCFACFE889F989808185FFF5CFCE0177
:1002B0000E94FB00F1CFEB8DEC0FFD2FF11DE35AF7
:1002C000FF4FF0829FB7F8940B8FEA89FB898081FA
:1002D0008062CFCFCF93DF93EC01888D8823B9F074
:1002E000AA89BB89E889F9898C9185FD03C0808141
:1002F00086FD0DC00FB607FCF7CF8C9185FFF2CFBE
:10030000808185FFEDCFCE010E94FB00E9CFDF9118
:10031000CF91089508958F929F92AF92BF920F93BD
:100320001F93CF93DF93CDB7DEB7A1970FB6F894A5
:10033000DEBF0FBECDBF19A2423008F44AE08E01E5
:100340000F5D1F4F842E912CB12CA12CA50194017F
:100350000E940604E62FB901CA01EA3044F5E05DC7
:10036000D801EE938D01232B242B252B79F790E0D8
:1003700080E0109769F0FD0101900020E9F73197C6
:10038000AF014A1B5B0BBD0187E291E00E947D003B
:10039000A1960FB6F894DEBF0FBECDBFDF91CF910F
:1003A0001F910F91BF90AF909F908F900895E95C3F
:1003B000D7CFCF92DF92EF92FF922FB7F894809130
:1003C000210190912201A0912301B09124012FBF1E
:1003D0002091250130912601AC01421B530B483C72
:1003E00051059CF19093260180932501C0901A013C
:1003F000D0901B015FEFC51AD50AD0921B01C092A5
:100400001A010D2C000CEE08FF084AE0C701B601E6
:10041000F7FE0DC06DE287E291E00E941D016627A4
:100420007727CB016C197D098E099F094AE00E944C
:100430008B0142E050E066E171E087E291E0FF90DD
:10044000EF90DF90CF900C947D00FF90EF90DF90C5
:10045000CF9008951F920F920FB60F9211242F93F1
:100460003F934F935F936F937F938F939F93AF933C
:10047000BF93EF93FF9387E291E00E94FB00FF910F
:10048000EF91BF91AF919F918F917F916F915F910C
:100490004F913F912F910F900FBE0F901F90189585
:1004A0001F920F920FB60F9211242F938F939F9349
:1004B000EF93FF93E0913701F09138018081E09153
:1004C0003D01F0913E0182FD1BC090818091400171
:1004D0008F5F8F7320914101821741F0E0914001BD
:1004E000F0E0E95DFE4F958F80934001FF91EF9121
:1004F0009F918F912F910F900FBE0F901F90189585
:100500008081F4CF1F920F920FB60F9211242F9378
:100510003F938F939F93AF93BF93809121019091CD
:100520002201A0912301B09124013091200123E008
:10053000230F2D3758F50196A11DB11D20932001E1
:100540008093210190932201A0932301B093240171
:1005500080911C0190911D01A0911E01B0911F017D
:100560000196A11DB11D80931C0190931D01A093C4
:100570001E01B0931F01BF91AF919F918F913F9149
:100580002F910F900FBE0F901F90189526E8230F04
:100590000296A11DB11DD2CF1F920F920FB60F92DE
:1005A00011242F933F934F935F936F937F938F9378
:1005B0009F93AF93BF93EF93FF93E0910201F0916C
:1005C00003010995FF91EF91BF91AF919F918F9199
:1005D0007F916F915F914F913F912F910F900FBE3F
:1005E0000F901F9018951F920F920FB60F92112423
:1005F0002F933F934F935F936F937F938F939F932B
:10060000AF93BF93EF93FF93E0910001F09101014D
:100610000995FF91EF91BF91AF919F918F917F913C
:100620006F915F914F913F912F910F900FBE0F905F
:100630001F901895789484B5826084BD84B58160DC
:1006400084BD85B5826085BD85B5816085BD80919D
:100650006E00816080936E00109281008091810015
:10066000826080938100809181008160809381000D
:10067000809180008160809380008091B1008460CF
:100680008093B1008091B00081608093B000809130
:100690007A00846080937A0080917A0082608093EF
:1006A0007A0080917A00816080937A0080917A004C
:1006B000806880937A001092C100E0913701F09138
:1006C000380182E08083E0913301F091340110829F
:1006D000E0913501F091360180E1808310923F0175
:1006E000E0913B01F0913C0186E08083E09139018B
:1006F000F0913A01808180618083E0913901F0912D
:100700003A01808188608083E0913901F0913A015B
:10071000808180688083E0913901F0913A01808185
:100720008F7D8083E2E9F0E02491EEE7F0E08491B0
:100730008823C1F090E0880F991FFC01EE58FF4F0D
:10074000C591D491FC01E859FF4FA591B4919FB791
:10075000F8943881822F809583238883EC91E22B53
:10076000EC939FBF89ED91E090930101809300018C
:10077000809169008C7F816080936900E89A2FB72F
:10078000F8948091210190912201A0912301B091D0
:1007900024012FBF9093260180932501C0E0D0E073
:1007A0002097F1F30E94E7008823D1F30E94000014
:1007B000F7CFE7E2F1E01382128288EE93E0A0E047
:1007C000B0E084839583A683B78388E091E091832A
:1007D000808385EC90E09587848784EC90E0978710
:1007E000868780EC90E0918B808B81EC90E0938BFE
:1007F000828B82EC90E0958B848B86EC90E0978BDB
:10080000868B118E128E138E148E0895A1E21A2EED
:10081000AA1BBB1BFD010DC0AA1FBB1FEE1FFF1FA4
:10082000A217B307E407F50720F0A21BB30BE40BF4
:10083000F50B661F771F881F991F1A9469F760953B
:100840007095809590959B01AC01BD01CF010895F5
:10085000EE0FFF1F0590F491E02D0994F894FFCF5F
:100860008A018A01000000001D017D00AA006A01C2
:0A087000DB00B900CD000D0A000006
:107E0000112484B714BE81FFF0D085E080938100F7
:107E100082E08093C00088E18093C10086E0809377
:107E2000C20080E18093C4008EE0C9D0259A86E02C
:107E300020E33CEF91E0309385002093840096BBD3
:107E4000B09BFECF1D9AA8958150A9F7CC24DD24C4
:107E500088248394B5E0AB2EA1E19A2EF3E0BF2EE7
:107E6000A2D0813461F49FD0082FAFD0023811F036
:107E7000013811F484E001C083E08DD089C08234E0
:107E800011F484E103C0853419F485E0A6D080C0E4
:107E9000853579F488D0E82EFF2485D0082F10E0AE
:107EA000102F00270E291F29000F111F8ED06801E7
:107EB0006FC0863521F484E090D080E0DECF843638
:107EC00009F040C070D06FD0082F6DD080E0C81688
:107ED00080E7D80618F4F601B7BEE895C0E0D1E017
:107EE00062D089930C17E1F7F0E0CF16F0E7DF06D8
:107EF00018F0F601B7BEE89568D007B600FCFDCFD4
:107F0000A601A0E0B1E02C9130E011968C91119780
:107F100090E0982F8827822B932B1296FA010C0160
:107F200087BEE89511244E5F5F4FF1E0A038BF0790
:107F300051F7F601A7BEE89507B600FCFDCF97BE46
:107F4000E89526C08437B1F42ED02DD0F82E2BD052
:107F50003CD0F601EF2C8F010F5F1F4F84911BD097
:107F6000EA94F801C1F70894C11CD11CFA94CF0C13
:107F7000D11C0EC0853739F428D08EE10CD085E9AC
:107F80000AD08FE07ACF813511F488E018D01DD067
:107F900080E101D065CF982F8091C00085FFFCCF94
:107FA0009093C60008958091C00087FFFCCF809118
:107FB000C00084FD01C0A8958091C6000895E0E648
:107FC000F0E098E1908380830895EDDF803219F02E
:107FD00088E0F5DFFFCF84E1DECF1F93182FE3DFCA
:107FE0001150E9F7F2DF1F91089580E0E8DFEE27F6
:047FF000FF270994CA
:027FFE00040479
:00000001FF
