:020000040000FA
:100000000C9458000C9480000C9480000C94800098
:100010000C9480000C9480000C9480000C94800060
:100020000C9480000C9480000C9480000C94800050
:100030000C9480000C9480000C9480000C94800040
:100040000C949D060C9480000C946B060C94450651
:100050000C9480000C9480000C9480000C94800020
:100060000C94E7060C948000000000002500280096
:100070002B00040404040404040402020202020229
:10008000030303030303010204081020408001025C
:1000900004081020010204081020000000080002DB
:1000A0000100000304070000000000000000060833
:1000B00011241FBECFEFD8E0DEBFCDBF11E0A0E01E
:1000C000B1E0E2E8F1E202C005900D92A835B10777
:1000D000D9F723E0A8E5B1E001C01D92AF38B2071F
:1000E000E1F710E0C8E5D0E004C02197FE010E94CE
:1000F000260CC735D107C9F70E94C4080C94BF105D
:100100000C94000008950895AF92BF92CF92DF92B1
:10011000EF92FF920F931F93CF93DF936C017B01BC
:100120008B01040F151FEB015E01AE18BF08C0174D
:10013000D10759F06991D601ED91FC910190F081C0
:10014000E02DC6010995892B79F7C501DF91CF9183
:100150001F910F91FF90EF90DF90CF90BF90AF90E5
:100160000895FC01538D448D252F30E0842F90E0BD
:10017000821B930B541710F0CF96089501970895A2
:10018000FC01918D828D981761F0A28DAE0FBF2F6B
:10019000B11D5D968C91928D9F5F9F73928F90E0C1
:1001A00008958FEF9FEF0895FC01918D828D981730
:1001B00031F0828DE80FF11D858D90E008958FEF6D
:1001C0009FEF0895FC01918D228D892F90E0805C36
:1001D0009F4F821B91098F739927089587E192E0C1
:1001E0000E94E20021E0892B09F420E0822F08958B
:1001F00080E090E0892B29F00E94EE0081110C94A0
:1002000000000895FC01A48DA80FB92FB11DA35AB9
:10021000BF4F2C91848D90E001968F739927848F26
:10022000A689B7892C93A089B1898C918370806449
:100230008C93938D848D981306C00288F389E02DEA
:1002400080818F7D80830895EF92FF920F931F939B
:10025000CF93DF93EC0181E0888F9B8D8C8D981379
:100260001AC0E889F989808185FF15C09FB7F89485
:10027000EE89FF896083E889F989808183708064D1
:1002800080839FBF81E090E0DF91CF911F910F911C
:10029000FF90EF900895F62E0B8D10E00F5F1F4F2B
:1002A0000F731127E02E8C8D8E110CC00FB607FC3A
:1002B000FACFE889F989808185FFF5CFCE010E94C8
:1002C0000201F1CFEB8DEC0FFD2FF11DE35AFF4F33
:1002D000F0829FB7F8940B8FEA89FB898081806256
:1002E000CFCFCF93DF93EC01888D8823B9F0AA8913
:1002F000BB89E889F9898C9185FD03C0808186FDE1
:100300000DC00FB607FCF7CF8C9185FFF2CF80812F
:1003100085FFEDCFCE010E940201E9CFDF91CF91A1
:10032000089590E0FC01E656FF4F2491FC01EA5746
:10033000FF4F3491FC01EE58FF4FE491EE23C9F0DA
:10034000222339F0233001F1A8F4213019F12230B1
:1003500029F1F0E0EE0FFF1FE859FF4FA591B4918E
:100360008FB7F894EC91611126C030953E233C93F1
:100370008FBF08952730A9F02830C9F0243049F7FD
:10038000809180008F7D03C0809180008F77809363
:100390008000DFCF84B58F7784BDDBCF84B58F7DC0
:1003A000FBCF8091B0008F778093B000D2CF809147
:1003B000B0008F7DF9CF3E2BDACF3FB7F894809114
:1003C0000B0290910C02A0910D02B0910E0226B585
:1003D000A89B05C02F3F19F00196A11DB11D3FBF7D
:1003E000BA2FA92F982F8827BC01CD01620F711D4C
:1003F000811D911D42E0660F771F881F991F4A9546
:10040000D1F708958F929F92AF92BF92CF92DF92D1
:10041000EF92FF924B015C010E94DD016B017C01B8
:100420000E94DD016C197D098E099F09683E7340A9
:1004300081059105A8F321E0821A9108A108B1086D
:1004400088EEC80E83E0D81EE11CF11C81149104D3
:10045000A104B10429F7FF90EF90DF90CF90BF90F7
:10046000AF909F908F9008952091C001260F332761
:10047000331F21323105ECF42091E401FC0190E0BE
:1004800080E0243069F082E00895A091C0012191BC
:10049000AC0140565E4FA40FB52FB11D2C930196B1
:1004A000861798F38091C001680F6093C00180E0C7
:1004B000089581E008951092E40181E08093E601BF
:1004C0001092E50161E082E10E94910161E083E127
:1004D0000E949101E9EBF0E080818E7F8083808132
:1004E0008D7F808388E48093B80085E48093BC008E
:1004F0000895CF93DF9391E090939F018823B9F003
:10050000C091B800D091BA008091BC008A7B8093E2
:10051000BC0060E082E10E94910160E083E10E9402
:1005200091010E945B02D093BA00C093B800DF91A2
:10053000CF9108950895E091160280911502E81771
:1005400030F4F0E0E658FE4F808190E008958FEFA0
:100550009FEF089590911602809115022FEF3FEFC3
:10056000981748F4E92FF0E0E658FE4F208130E07C
:100570009F5F90931602C901089580911502909192
:100580001602891B990B0895CF92DF92EF92FF928A
:100590000F931F93CF93DF937C01CB018A012091AE
:1005A0007901222389F0EB016B01C40ED51ECC1515
:1005B000DD0569F06991D701ED91FC910190F08121
:1005C000E02DC7010995F3CF642F0E943402C801C2
:1005D000DF91CF911F910F91FF90EF90DF90CF901F
:1005E0000895CF93DF931F92CDB7DEB76983209133
:1005F00079012223F9F020911302203258F021E0F2
:1006000030E0FC013383228390E080E00F90DF91A3
:10061000CF91089580911402E82FF0E0E75AFE4F41
:10062000998190838F5F809314028093130281E0FD
:1006300090E0ECCF61E0CE0101960E943402F7CF4A
:10064000CF92DF92EF92FF920F931F93CF93DF939E
:10065000FC01C48121E020937901C09358011092DC
:100660001402109213028385682B84EB92E00E949F
:10067000F102D0911302D13208F092C00E94DD0144
:100680006B017C018091E401811165C082E080935F
:10069000E40181E08093E6018FEF8093E301109203
:1006A0000802D0930702A9E5B1E0E7EEF1E080E0AF
:1006B000D81385C01092090280910902CC0FC82B73
:1006C000C09309028091E501813009F07CC010924D
:1006D000E5010E94DD016B017C018091090280939C
:1006E000BB0080919B0190919C01A0919D01B091D4
:1006F0009E01892B8A2B8B2B99F00E94DD010091A2
:100700009B0110919C0120919D0130919E016C19DB
:100710007D098E099F090617170728073907E0F199
:100720008091BC0083FDD9CF85EC8093BC000E94F2
:10073000DD016B017C018091E401823009F445C048
:100740008091E3018F3F61F18091E301803241F1BB
:100750008091E30125C080919B0190919C01A09123
:100760009D01B0919E01892B8A2B8B2B09F48ACF96
:100770000E94DD0100919B0110919C0120919D013F
:1007800030919E016C197D098E099F090617170784
:100790002807390708F076CF80919A010E947902E4
:1007A000109214021092130210927901DF91CF91EE
:1007B0001F910F91FF90EF90DF90CF9008959D9142
:1007C00091938F5F75CF85EEB0CF80919B01909113
:1007D0009C01A0919D01B0919E01892B8A2B8B2BAE
:1007E00009F4A9CF0E94DD0100919B0110919C01A9
:1007F00020919D0130919E016C197D098E099F0900
:10080000061717072807390708F095CFC5CF0895B1
:1008100090E080E008950F931F93CF93DF93EC0156
:1008200088819981009759F02A813B8126173707E3
:1008300030F081E0DF91CF911F910F9108958B01EE
:100840006F5F7F4F0E94510D009759F09983888305
:100850001B830A832C813D81232B59F7FC011082D5
:10086000E8CF80E0E7CFCF93DF93EC0188819981D7
:10087000009711F00E94C80C198218821D821C82F8
:100880001B821A82DF91CF910895EF92FF920F930E
:100890001F93CF93DF93EC018617970781F0FB013D
:1008A000008111810115110539F0E480F580B7014F
:1008B0000E940B0481110BC0CE010E943304CE01B3
:1008C000DF91CF911F910F91FF90EF900895FD82DE
:1008D000EC82B801888199810E94170EF0CFFC014B
:1008E00080819181009711F00C94C80C089585EDDA
:1008F0008093BC0080919B0190919C01A0919D01EF
:10090000B0919E010796A11DB11D23E0B695A79554
:10091000979587952A95D1F72091BC0024FD03C0B7
:100920001092E401089540919B0150919C016091C7
:100930009D0170919E01452B462B472B69F3009733
:10094000A105B10541F025E32A95F1F700000197D3
:10095000A109B109E1CF80919A010C9479020F931A
:100960001F93CF938C01C62F0E9420036C2F6460CD
:10097000C8010E9420036C2F6B7FC8010E942003D6
:1009800083EC90E00197F1F7CF911F910F910895BB
:100990000F931F93CF93DF938C01D62FC42F607FCB
:1009A000642B0E94AF0480E1D89FB00111246C2B0E
:1009B000C801DF91CF911F910F910C94AF04EF927A
:1009C000FF921F93CF93DF93CDB7DEB769970FB632
:1009D000F894DEBF0FBECDBF182F7F936F938EE3C9
:1009E00091E09F938F93CE0101967C019F938F930B
:1009F0000E941E0E812F98E0E6E0F1E0DE015296A3
:100A000001900D929A95E1F79091DA020F900F9074
:100A10000F900F900F900F90911710F48FEF890F98
:100A2000E82FF0E0EE0FFF1FEE0DFF1D61896068FB
:100A300040E082ED92E00E94C804F701019000209E
:100A4000E9F73197AF014E195F09B70182ED92E0E6
:100A50000E94840069960FB6F894DEBF0FBECDBF2A
:100A6000DF91CF911F91FF90EF900895EF92FF9249
:100A70000F931F93CF93DF93CDB7DEB72E970FB6AB
:100A8000F894DEBF0FBECDBF20918A0321114FC065
:100A90008B01BC011A8619861C861B861E861D8644
:100AA000CE0109960E9445044AE0CE0101967C01E0
:100AB000BC01C8010E944F0BF70101900020E9F72B
:100AC0003197EE19FF09B1F00D851E850E0F1F1F1E
:100AD000B801CE0109960E940B048823A9F129854B
:100AE0003A858D859E85B701820F931F0E94170E50
:100AF0001E870D871A8219821C821B821E821D820C
:100B0000BE01675F7F4FC7010E944504CE01099671
:100B10000E946F0480918A03811106C069817A81E5
:100B200081E090E00E94DF04C7010E946F042E96CE
:100B30000FB6F894DEBF0FBECDBFDF91CF911F91EE
:100B40000F91FF90EF900895CE0109960E94330413
:100B5000D1CF8F929F92AF92BF92CF92DF92EF92BE
:100B6000FF92CF93DF9300D000D000D0CDB7DEB797
:100B70008091C4028E3008F08E508770806480931C
:100B80007C0080917A00806480937A0080917A0062
:100B900086FDFCCF8091780020917900C090C6023C
:100BA000D090C7020D2C000CEE08FF088090CA02FE
:100BB0009090CB02092C000CAA08BB08322F282FDA
:100BC000032E000C440B550B281939094A095B09FF
:100BD0006091C8027091C902072E000C880B990B16
:100BE0006C197D098E099F090E94160C2091CC0278
:100BF0003091CD02032E000C440B550B28193909F6
:100C00004A095B090E94840BC20ED31EE41EF51E26
:100C10001A8219821C821B821E821D8266E070E08D
:100C2000CE0101960E940B0481111EC0CE010196D7
:100C30000E943304B601CE0101960E943605CE0112
:100C400001960E946F0426960FB6F894DEBF0FBE81
:100C5000CDBFDF91CF91FF90EF90DF90CF90BF900D
:100C6000AF909F908F90089586E090E09E838D8353
:100C700064E471E089819A810E94170EDBCF41E024
:100C80000E94C80481E090E008951F920F920FB671
:100C90000F9211242F933F934F935F936F937F9302
:100CA0008F939F93AF93BF93EF93FF9387E192E06E
:100CB0000E940201FF91EF91BF91AF919F918F919F
:100CC0007F916F915F914F913F912F910F900FBE48
:100CD0000F901F9018951F920F920FB60F9211242C
:100CE0002F938F939F93EF93FF93E0912702F091BF
:100CF00028028081E0912D02F0912E0282FD1BC01E
:100D00009081809130028F5F8F7320913102821722
:100D100041F0E0913002F0E0E95EFD4F958F809365
:100D20003002FF91EF919F918F912F910F900FBE05
:100D30000F901F9018958081F4CF1F920F920FB6DD
:100D40000F9211242F933F938F939F93AF93BF9351
:100D50008091C0029091C102A091C202B091C302E1
:100D600030910A0223E0230F2D3758F50196A11D7B
:100D7000B11D20930A028093C0029093C102A093F8
:100D8000C202B093C30280910B0290910C02A09119
:100D90000D02B0910E020196A11DB11D80930B02B0
:100DA00090930C02A0930D02B0930E02BF91AF91ED
:100DB0009F918F913F912F910F900FBE0F901F9099
:100DC000189526E8230F0296A11DB11DD2CF1F92C0
:100DD0000F920FB60F9211242F933F934F935F936F
:100DE0006F937F938F939F93AF93BF93EF93FF93F3
:100DF0008091B900887F803609F44AC0F0F58832C6
:100E000009F4A7C018F5803109F49BC0B8F4882311
:100E100009F4F9C0883009F494C0FF91EF91BF91B3
:100E2000AF919F918F917F916F915F914F913F9182
:100E30002F910F900FBE0F901F901895883109F4D5
:100E400088C0803251F78093E30114C0803409F4E4
:100E50009DC040F48033B9F38833F9F68093E30101
:100E600085ECB0C0803509F485C0883509F496C09A
:100E7000883499F60E947704D0CF883909F48CC061
:100E800038F5883729F050F4883611F0803729F684
:100E900083E08093E4011092E20157C0883809F49E
:100EA0007BC0803919F0803809F0B7CF8091E2011A
:100EB000803208F071C0E091E20181E08E0F8093F2
:100EC000E2018091BB00F0E0EE53FE4F80833DC015
:100ED000803B39F0E0F4803A09F479C0883A09F0AF
:100EE0009CCF84E08093E4011092C1011092C00174
:100EF000E0911102F091120209958091C0018111D7
:100F00000FC081E08093C0011092A00109C0803C15
:100F100009F4A6CF883C09F4A3CF883B09F07DCF24
:100F2000E091C10181E08E0F8093C101F0E0E056B5
:100F3000FE4F80818093BB009091C1018091C001E0
:100F400029C0809109028093BB0085EC8093BC008E
:100F500064CF9091080280910702981758F5E091AC
:100F6000080281E08E0F80930802F0E0E951FE4F05
:100F70008081E9CFE091080281E08E0F8093080222
:100F80008091BB00F0E0E951FE4F80839091080210
:100F9000809107029817C8F285E8D8CFE09108023F
:100FA00081E08E0F809308028091BB00F0E0E95150
:100FB000FE4F80838091E60181115CCF81E08093B8
:100FC000E50184EA8093BC001092E40126CF85EC11
:100FD0008093BC001092E4018091E201803230F4F1
:100FE000E091E201F0E0EE53FE4F10826091E201E9
:100FF00070E0E0910F02F091100282EC91E009950F
:101000001092E2010ACF1092E30134CFCF93DF9325
:1010100010921A021092190288EE93E0A0E0B0E05C
:1010200080931B0290931C02A0931D02B0931E029A
:1010300022E131E0309318022093170225EC30E0D2
:10104000309324022093230224EC30E030932602D4
:101050002093250220EC30E03093280220932702D1
:1010600021EC30E030932A022093290222EC30E078
:1010700030932C0220932B0226EC30E030932E028A
:1010800020932D02109230021092310210923202FF
:10109000109233021092B7021092B6028093B802F7
:1010A0009093B902A093BA02B093BB0284E291E09C
:1010B0009093B5028093B40280E092ECA1E0B0E09E
:1010C0008093CE029093CF02A093D002B093D1022E
:1010D0001092D5021092D40286E391E09093D3024D
:1010E0008093D20287E28093D60280E18093DB0274
:1010F00082E08093DC021092DD028FB7F894409179
:10110000C0025091C1026091C2027091C3028FBFB0
:10111000CAE6D3E0E6E0F3E02EED32E01992119258
:101120001192D9014D935D936D937D939D01CF01F4
:10113000825B9F4FDC011D921C92B3E0EA31FB07FA
:1011400069F7109289031092880310928A038EE047
:1011500090E09093C5028093C4021092C70210924F
:10116000C60284E690E09093C9028093C802109270
:10117000CB021092CA028FEF93E09093CD0280933E
:10118000CC02DF91CF910895CF93DF9300D000D0B0
:10119000CDB7DEB7789484B5826084BD84B58160B4
:1011A00084BD85B5826085BD85B5816085BD809132
:1011B0006E00816080936E001092810080918100AA
:1011C00082608093810080918100816080938100A2
:1011D000809180008160809380008091B100846064
:1011E0008093B1008091B00081608093B0008091C5
:1011F0007A00846080937A0080917A008260809384
:101200007A0080917A00816080937A0080917A00E0
:10121000806880937A001092C100C090CE02D09076
:10122000CF02E090D002F090D10260E079E08DE34F
:1012300090E0A70196010E94E50B21503109410978
:1012400051095695479537952795E0912702F091DA
:10125000280282E08083C11441EED406E104F10447
:1012600021F0211580E13807A8F0E0912702F091E4
:101270002802108260E874E88EE190E0A7019601F0
:101280000E94E50B215031094109510956954795B6
:1012900037952795E0912302F09124023083E09165
:1012A0002502F0912602208310922F02E0912B025A
:1012B000F0912C0286E08083E0912902F0912A02CD
:1012C000808180618083E0912902F0912A028081EF
:1012D00088608083E0912902F0912A0280818068F1
:1012E0008083E0912902F0912A0280818F7D8083A2
:1012F00080918A03811189C0109216021092150202
:1013000010921402109213020E945B0282E890E095
:10131000909312028093110283E890E09093100260
:1013200080930F021092D7028091DC02823018F075
:1013300098E09093D7028093DA0262E370E080E055
:1013400090E00E9402026091DD0282ED92E00E9434
:10135000200368EE73E080E090E00E94020260E308
:1013600082ED92E00E94AF048BE496E40197F1F7DE
:1013700060E382ED92E00E94AF04ABE4B6E4119723
:10138000F1F760E382ED92E00E94AF0483E592E022
:101390000197F1F760E282ED92E00E94AF04609164
:1013A000D702606240E082ED92E00E94C80484E0CF
:1013B0008093D80240E06CE082ED92E00E94C80485
:1013C00040E061E082ED92E00E94C8048BE39FE17F
:1013D0000197F1F782E08093D90240E066E082ED68
:1013E00092E00E94C80440E062E082ED92E00E9438
:1013F000C804EBE3FFE13197F1F788E08093DD0269
:1014000060E082ED92E00E94200380918803909139
:1014100089030A976CF4E6E0F3E090E080E0219124
:101420003191232B09F4F7C001968A309105B9F761
:1014300080918A03811106C06BE471E090E080E046
:101440000E94DF0401E010E0B2E02B2E312C8FB7B8
:10145000F8948090C0029090C102A090C202B09017
:10146000C3028FBFE6E0F3E02EEC32E03C832B8337
:101470003A83298390E080E0AF0142595F4FDA015F
:101480001D921C92208131813296232BC9F1A981B2
:10149000BA8150964D915D916D917C9153979D01CC
:1014A000245B3F4FD901CD90DD90ED90FC9024015D
:1014B0003501441A550A660A770A4C145D046E0415
:1014C0007F04F0F04C0D5D1D6E1D7F1DA981BA815A
:1014D00050964D935D936D937C9353979C01265941
:1014E0003C4FD9012C91222359F022AD33AD211567
:1014F0003105C9F59F0124593F4FD9010D931C9324
:10150000019629813A812C5F3F4F3A8329838A30A3
:10151000910509F0B1CFF12CE12CCB80DC8036EACB
:10152000C30ED11CD6018D919C9181309105C1F1E2
:101530000297E9F1BFEFEB1AFB0AEB81FC813296CF
:10154000FC83EB83FAE0EF16F10439F720E030E09A
:10155000232B09F47CCF0E94EE00882309F477CF77
:101560000E94000074CF7F01BEE4EB0EF11CD70196
:101570006D917C91621773071CF6AF0144595F4F60
:10158000DA010D931C936F5F7F4FD7016D937C93AE
:10159000621773070CF4B4CFDA012D923C92B0CFEE
:1015A000AB81BC81D896ED91FC910995C3CFAB81FD
:1015B000BC81D896ED91FC9109958091880390911A
:1015C0008903009709F4B6CFEB81FC8120AD31ADE2
:1015D000232B09F4AFCF11AE10AEF701E659FC4F43
:1015E0001082D6011D921C92F701EE0FFF1FEE0F25
:1015F000FF1FE65EFC4F1082118212821382EB8184
:10160000FC81E857FF4F1182108201979093890364
:10161000809388038FCFFC01EE0FFF1FEE0FFF1F9B
:10162000E65FFC4F44E650E060E070E0408B518B99
:10163000628B738BFC01EE0FFF1FEA50FD4F29EA0E
:1016400035E0318B208BFC01EE0FFF1FEE5CFC4F71
:10165000118A108AFC01E659FC4F21E020832FB744
:10166000F8944091C0025091C1026091C202709101
:10167000C3022FBF880F991F880F991FFC01E253E7
:10168000FD4F408B518B628B738B809188039091BF
:10169000890301969093890380938803C9CEBB2761
:1016A0004A3031F4992322F4BDE2909581959F4F01
:1016B0000C945B0BBB27FB015527AA27880F991FAA
:1016C000AA1FA41710F0A41B83955051B9F7A05D71
:1016D000AA3308F0A95DA193009779F7B111B193EE
:1016E0001192CB010C94740BDC01FC01672F7191FA
:1016F0007723E1F7329704C07C916D9370836291F8
:10170000AE17BF07C8F30895052E97FB1EF400948B
:101710000E949B0B57FD07D00E94E50B07FC03D0EE
:101720004EF40C949B0B50954095309521953F4F6E
:101730004F4F5F4F089590958095709561957F4FBD
:101740008F4F9F4F08950E94070CA59F900DB49F47
:10175000900DA49F800D911D112408952F923F920A
:101760004F925F926F927F928F929F92AF92BF92B1
:10177000CF92DF92EF92FF920F931F93CF93DF935D
:10178000CDB7DEB7CA1BDB0B0FB6F894DEBF0FBEBA
:10179000CDBF09942A88398848885F846E847D8407
:1017A0008C849B84AA84B984C884DF80EE80FD8009
:1017B0000C811B81AA81B981CE0FD11D0FB6F8947F
:1017C000DEBF0FBECDBFED010895A1E21A2EAA1B08
:1017D000BB1BFD010DC0AA1FBB1FEE1FFF1FA217E1
:1017E000B307E407F50720F0A21BB30BE40BF50BDE
:1017F000661F771F881F991F1A9469F76095709567
:10180000809590959B01AC01BD01CF010895A29FE9
:10181000B001B39FC001A39F700D811D1124911DC4
:10182000B29F700D811D1124911D0895DB018F93CE
:101830009F930E94A30BBF91AF91A29F800D911D1A
:10184000A39F900DB29F900D11240895EE0FFF1FDE
:101850000590F491E02D09940F931F93CF93DF939C
:101860008230910510F482E090E0E0918D03F091D8
:101870008E0330E020E0B0E0A0E0309799F421152D
:10188000310509F44AC0281B390B24303105D8F53D
:101890008A819B816115710589F1FB0193838283A4
:1018A000FE0111C0408151810281138148175907FF
:1018B000E0F04817590799F4109761F012960C93CD
:1018C000129713961C933296CF01DF91CF911F91FF
:1018D0000F91089500938D0310938E03F4CF21157B
:1018E000310551F04217530738F0A901DB019A0185
:1018F000BD01DF01F801C1CFEF01F9CF90938E0355
:1019000080938D03CDCFFE01E20FF31F819391935E
:101910002250310939832883D7CF20918B0330910E
:101920008C03232B41F42091020130910301309369
:101930008C0320938B03209100013091010121152C
:10194000310541F42DB73EB7409104015091050196
:10195000241B350BE0918B03F0918C03E217F30706
:10196000A0F42E1B3F0B2817390778F0AC014E5F0F
:101970005F4F2417350748F04E0F5F1F50938C03BD
:1019800040938B03819391939FCFF0E0E0E09CCF55
:10199000CF93DF930097E9F0FC0132971382128214
:1019A000A0918D03B0918E03ED0130E020E01097FF
:1019B000A1F420813181820F931F20918B033091FC
:1019C0008C032817390709F061C0F0938C03E0936A
:1019D0008B03DF91CF910895EA01CE17DF07E8F579
:1019E0004A815B819E0141155105B1F7E901FB83F5
:1019F000EA8349915991C40FD51FEC17FD0761F493
:101A0000808191810296840F951FE90199838883D3
:101A1000828193819B838A83F0E0E0E012968D912E
:101A20009C9113970097B9F52D913C911197CD0199
:101A30000296820F931F20918B0330918C032817FD
:101A4000390739F6309751F510928E0310928D03B5
:101A5000B0938C03A0938B03BCCFD383C28340810C
:101A60005181840F951FC817D90761F44E5F5F4FEE
:101A700088819981480F591F518340838A819B81B6
:101A8000938382832115310509F0B0CFF0938E0343
:101A9000E0938D039ECFFD01DC01C0CF1382128243
:101AA000D7CFB0E0A0E0E7E5FDE00C94B00B8C01EF
:101AB000009751F4CB010E942C0C8C01C801CDB7CA
:101AC000DEB7E0E10C94CC0BFC01E60FF71F9C01A4
:101AD00022503109E217F30708F49DC0D901CD91D6
:101AE000DC911197C617D70798F0C530D10530F3B0
:101AF000CE0104978617970708F3C61BD70B2297CA
:101B0000C193D1936D937C93CF010E94C80CD6CF23
:101B10005B01AC1ABD0A4C018C0E9D1EA0918D0379
:101B2000B0918E03512C412CF12CE12C109731F502
:101B300080918B0390918C038815990509F05CC006
:101B40004616570608F058C0809100019091010197
:101B5000009741F48DB79EB7409104015091050163
:101B6000841B950BE817F90708F055C0F0938C0318
:101B7000E0938B03F90171836083A0CF8D919C91D9
:101B8000119712966C90129713967C901397A81544
:101B9000B90559F56C0142E0C40ED11CCA14DB042E
:101BA00020F1AC014A195B09DA011296159780F011
:101BB0006282738251834083D9016D937C93E114D7
:101BC000F10471F0D7011396FC93EE93129776CF40
:101BD00022968C0F9D1FF90191838083F301EFCF33
:101BE000F0938E03E0938D0369CF4816590608F4ED
:101BF0002C017D01D3019ACFCB010E942C0C7C01DA
:101C0000009749F0AE01B8010E940E0EC8010E9473
:101C1000C80C870153CF10E000E050CFFB01DC017E
:101C200002C001900D9241505040D8F70895FB0139
:101C3000DC0101900D920020E1F70895AEE0B0E0E4
:101C4000E4E2FEE00C94BC0B0D891E8986E08C83D7
:101C50001A8309838FEF9FE79E838D83AE01475ED2
:101C60005F4F6F89788DCE0101960E94410E2F81C2
:101C70003885020F131FF80110822E96E4E00C94B1
:101C8000D80BABE0B0E0E7E4FEE00C94AE0B7C01D7
:101C90003B018A01FC0117821682838181FFC8C142
:101CA000CE0101965C01F7019381F30193FD8591CB
:101CB00093FF81913F01882309F453C1853239F4A0
:101CC00093FD859193FF81913F01853229F4B701FE
:101CD00090E00E943110E7CF912C212C312CFFE1B4
:101CE000F31538F08B3211F190F4803209F1833220
:101CF00029F137FC3CC020ED280F2A3050F536FE84
:101D000020C08AE0989E200D1124922E06C08D32AC
:101D100091F0803371F7689430F8F30193FD859169
:101D200093FF81913F018111DACF21C0689431F88E
:101D3000689432F8F2CF689433F8EFCF689434F8AF
:101D4000ECCFEAE02E9E200D1124222E689435F867
:101D5000E4CF8E3229F436FC04C1689436F8DDCF26
:101D60008C3619F4689437F8D8CF8836B1F2982FAA
:101D70009F7D95549330E0F08336A1F18337C1F114
:101D8000833509F063C02801F2E04F0E511CF801C1
:101D9000C080D180692D70E036FC02C06FEF7FEF0C
:101DA000C6010E941B104C01689437F882010AC0DA
:101DB0000C5F1F4FFFE3F98388248394912C650106
:101DC000E89437F833FE2DC0522C8114910471F53C
:101DD000552009F468CFB70180E290E00E943110ED
:101DE0005A94F6CFF801808189830E5F1F4FE4CFAC
:101DF0002801F2E04F0E511CF801C080D180692DFE
:101E000070E036FC02C06FEF7FEFC6010E94261023
:101E10004C018201D5CFB70180E290E00E943110E1
:101E20002A942814190409F0B0F7CECFF60137FC34
:101E3000859137FE81916F01B70190E00E943110CA
:101E400051105A94F1E08F1A9108BFCF843619F0DF
:101E5000893609F077C0F80137FE6BC06081718167
:101E6000828193810C5F1F4FF32DFF763F2E97FFEA
:101E700009C090958095709561957F4F8F4F9F4FCA
:101E8000689437F82AE030E0A5010E946110C82E5E
:101E9000CA188C2C432C36FE0CC0E89440F8C914A8
:101EA00040F434FE05C032FC03C0F32DFE7E4F2EFD
:101EB000892C44FE95C0FE01EC0DF11D808180331C
:101EC00009F087C0242D297E422E842D8870582E3B
:101ED00043FC95C040FE8FC09C2C821418F42C0C3F
:101EE000922C981844FE91C0B70180E390E00E94C4
:101EF000311042FE09C088E790E041FE02C088E54B
:101F000090E0B7010E943110C91408F48AC0CA9445
:101F1000D12C9FEFC91AD90ACA0CDB1CF601829199
:101F20006F01B70190E00E943110AC14BD04B1F70D
:101F30004FCF60817181072E000C880B990B0E5FCB
:101F40001F4F92CFD32CE894D4F82AE030E08537A5
:101F500039F1232D297FD22E8F3601F148F48835AF
:101F6000A9F0F701868197812B96E2E10C94CA0BC8
:101F7000803749F08837A9F7D4FE02C06894D2F8B8
:101F800020E130E00DC06894D4F8F6CF34FE03C0F1
:101F9000822F8660D82E20E132E002C028E030E0B7
:101FA000F801D7FE0FC060817181828193810C5F3F
:101FB0001F4FA5010E946110C82ECA183D2CE8943D
:101FC00037F867CF6081718190E080E00E5F1F4F2E
:101FD000F0CF42FC02C0839478CF8394839475CF72
:101FE000842D867809F471CFF6CFB70180E290E0B6
:101FF0000E94311083948214C0F3512C73CF522C61
:102000005818821408F46ECFF8CF842D867809F41E
:102010007BCF8BE241FE80E247FC8DE2B70190E08E
:1020200071CFB70180E390E00E9431109A946CCF99
:102030008FEF9FEF99CFFC01059061507040011028
:10204000D8F7809590958E0F9F1F0895FC016150E1
:10205000704001900110D8F7809590958E0F9F1FCA
:1020600008950F931F93CF93DF93182F092FEB0140
:102070008B8181FD09C01FEF0FEF812F902FDF9122
:10208000CF911F910F91089582FF14C02E813F813F
:102090008C819D81281739073CF4E881F981CF01B3
:1020A00001969983888310838E819F8101969F83F7
:1020B0008E83E3CFE885F985812F0995892BA1F3DC
:1020C000DACFFA01AA27283051F1203181F1E894C2
:1020D0006F936E7F6E5F7F4F8F4F9F4FAF4FB1E01B
:1020E0003ED0B4E03CD0670F781F891F9A1FA11D16
:1020F000680F791F8A1F911DA11D6A0F711D811D17
:10210000911DA11D20D009F468943F912AE0269FDB
:1021100011243019305D3193DEF6CF010895462F3A
:102120004770405D4193B3E00FD0C9F7F6CF462F1B
:102130004F70405D4A3318F0495D31FD4052419384
:1021400002D0A9F7EACFB4E0A69597958795779541
:102150006795BA95C9F700976105710508959B01C8
:10216000AC010A2E06945795479537952795BA9551
:10217000C9F7620F731F841F951FA01D0895F8945F
:10218000FFCF00008F0380000000400014005400C7
:102190000000000024018400B1007101E200C000D1
:1021A000D40000000000F102C40208049A02BD023B
:1021B000AA029B02000000003F06840008040704F6
:1021C000252D31367300496C6C753A20005B5B43FA
:0A21D000445320546573745D5D00F4
:107E0000112484B714BE81FFF0D085E080938100F7
:107E100082E08093C00088E18093C10086E0809377
:107E2000C20080E18093C4008EE0C9D0259A86E02C
:107E300020E33CEF91E0309385002093840096BBD3
:107E4000B09BFECF1D9AA8958150A9F7CC24DD24C4
:107E500088248394B5E0AB2EA1E19A2EF3E0BF2EE7
:107E6000A2D0813461F49FD0082FAFD0023811F036
:107E7000013811F484E001C083E08DD089C08234E0
:107E800011F484E103C0853419F485E0A6D080C0E4
:107E9000853579F488D0E82EFF2485D0082F10E0AE
:107EA000102F00270E291F29000F111F8ED06801E7
:107EB0006FC0863521F484E090D080E0DECF843638
:107EC00009F040C070D06FD0082F6DD080E0C81688
:107ED00080E7D80618F4F601B7BEE895C0E0D1E017
:107EE00062D089930C17E1F7F0E0CF16F0E7DF06D8
:107EF00018F0F601B7BEE89568D007B600FCFDCFD4
:107F0000A601A0E0B1E02C9130E011968C91119780
:107F100090E0982F8827822B932B1296FA010C0160
:107F200087BEE89511244E5F5F4FF1E0A038BF0790
:107F300051F7F601A7BEE89507B600FCFDCF97BE46
:107F4000E89526C08437B1F42ED02DD0F82E2BD052
:107F50003CD0F601EF2C8F010F5F1F4F84911BD097
:107F6000EA94F801C1F70894C11CD11CFA94CF0C13
:107F7000D11C0EC0853739F428D08EE10CD085E9AC
:107F80000AD08FE07ACF813511F488E018D01DD067
:107F900080E101D065CF982F8091C00085FFFCCF94
:107FA0009093C60008958091C00087FFFCCF809118
:107FB000C00084FD01C0A8958091C6000895E0E648
:107FC000F0E098E1908380830895EDDF803219F02E
:107FD00088E0F5DFFFCF84E1DECF1F93182FE3DFCA
:107FE0001150E9F7F2DF1F91089580E0E8DFEE27F6
:047FF000FF270994CA
:027FFE00040479
:00000001FF
