:100000000C9458000C9443060C941C060C9480002D
:100010000C9480000C9480000C9480000C94800060
:100020000C9480000C9480000C9480000C94800050
:100030000C9480000C9480000C9480000C94800040
:100040000C94D2050C9480000C94A0050C947A05B5
:100050000C9480000C9480000C9480000C94800020
:100060000C946A060C948000000000002500280013
:100070002B00040404040404040402020202020229
:10008000030303030303010204081020408001025C
:1000900004081020010204081020000000080002DB
:1000A00001000003040700000000000000008907B1
:1000B00011241FBECFEFD8E0DEBFCDBF11E0A0E01E
:1000C000B1E0E2E9FCE102C005900D92AA35B1076A
:1000D000D9F723E0AAE5B1E001C01D92A13AB20729
:1000E000E1F710E0C8E5D0E004C02197FE010E94CE
:1000F000A00BC735D107C9F70E9473080C94470EAF
:100100000C94000008950895AF92BF92CF92DF92B1
:10011000EF92FF920F931F93CF93DF936C017B01BC
:100120008B01040F151FEB015E01AE18BF08C0174D
:10013000D10759F06991D601ED91FC910190F081C0
:10014000E02DC6010995892B79F7C501DF91CF9183
:100150001F910F91FF90EF90DF90CF90BF90AF90E5
:100160000895FC01538D448D252F30E0842F90E0BD
:10017000821B930B541710F0CF96089501970895A2
:10018000FC01918D828D981761F0A28DAE0FBF2F6B
:10019000B11D5D968C91928D9F5F9F73928F90E0C1
:1001A00008958FEF9FEF0895FC01918D828D981730
:1001B00031F0828DE80FF11D858D90E008958FEF6D
:1001C0009FEF0895FC01918D228D892F90E0805C36
:1001D0009F4F821B91098F739927089589E192E0BF
:1001E0000E94E20021E0892B09F420E0822F08958B
:1001F00080E090E0892B29F00E94EE0081110C94A0
:1002000000000895FC01A48DA80FB92FB11DA35AB9
:10021000BF4F2C91848D90E001968F739927848F26
:10022000A689B7892C93A089B1898C918370806449
:100230008C93938D848D981306C00288F389E02DEA
:1002400080818F7D80830895EF92FF920F931F939B
:10025000CF93DF93EC0181E0888F9B8D8C8D981379
:100260001AC0E889F989808185FF15C09FB7F89485
:10027000EE89FF896083E889F989808183708064D1
:1002800080839FBF81E090E0DF91CF911F910F911C
:10029000FF90EF900895F62E0B8D10E00F5F1F4F2B
:1002A0000F731127E02E8C8D8E110CC00FB607FC3A
:1002B000FACFE889F989808185FFF5CFCE010E94C8
:1002C0000201F1CFEB8DEC0FFD2FF11DE35AFF4F33
:1002D000F0829FB7F8940B8FEA89FB898081806256
:1002E000CFCFCF93DF93EC01888D8823B9F0AA8913
:1002F000BB89E889F9898C9185FD03C0808186FDE1
:100300000DC00FB607FCF7CF8C9185FFF2CF80812F
:1003100085FFEDCFCE010E940201E9CFDF91CF91A1
:10032000089590E0FC01E656FF4F2491FC01EA5746
:10033000FF4F3491FC01EE58FF4FE491EE23C9F0DA
:10034000222339F0233001F1A8F4213019F12230B1
:1003500029F1F0E0EE0FFF1FE859FF4FA591B4918E
:100360008FB7F894EC91611126C030953E233C93F1
:100370008FBF08952730A9F02830C9F0243049F7FD
:10038000809180008F7D03C0809180008F77809363
:100390008000DFCF84B58F7784BDDBCF84B58F7DC0
:1003A000FBCF8091B0008F778093B000D2CF809147
:1003B000B0008F7DF9CF3E2BDACF3FB7F894809114
:1003C0000D0290910E02A0910F02B091100226B57D
:1003D000A89B05C02F3F19F00196A11DB11D3FBF7D
:1003E000BA2FA92F982F8827BC01CD01620F711D4C
:1003F000811D911D42E0660F771F881F991F4A9546
:10040000D1F708958F929F92AF92BF92CF92DF92D1
:10041000EF92FF924B015C010E94DD016B017C01B8
:100420000E94DD016C197D098E099F09683E7340A9
:1004300081059105A8F321E0821A9108A108B1086D
:1004400088EEC80E83E0D81EE11CF11C81149104D3
:10045000A104B10429F7FF90EF90DF90CF90BF90F7
:10046000AF909F908F90089508958F929F92AF9232
:10047000BF92CF92DF92EF92FF92FC0180818E308B
:1004800008F08E508770806480937C0080917A00A1
:10049000806480937A0080917A0086FDFCCF9091F1
:1004A000780020917900C280D3800D2C000CEE08DA
:1004B000FF0886809780092C000CAA08BB08322F01
:1004C000292F032E000C440B550B281939094A0912
:1004D0005B0964817581072E000C880B990B6C19E0
:1004E0007D098E099F090E94900B20853185032E7E
:1004F000000C440B550B281939094A095B090E9465
:10050000FE0ADA01C9018C0D9D1DAE1DBF1DFF90B5
:10051000EF90DF90CF90BF90AF909F908F90089515
:100520002091C201260F3327331F21323105ECF40D
:100530002091E601FC0190E080E0243069F082E047
:100540000895A091C2012191AC014E555E4FA40FB8
:10055000B52FB11D2C930196861798F38091C20197
:10056000680F6093C20180E0089581E008951092C1
:10057000E60181E08093E8011092E70161E082E109
:100580000E94910161E083E10E949101E9EBF0E0BA
:1005900080818E7F808380818D7F808388E48093BB
:1005A000B80085E48093BC000895CF93DF9391E079
:1005B0009093A1018823B9F0C091B800D091BA00FE
:1005C0008091BC008A7B8093BC0060E082E10E9445
:1005D000910160E083E10E9491010E94B702D093F3
:1005E000BA00C093B800DF91CF9108950895E091CB
:1005F000180280911702E81730F4F0E0E458FE4F3B
:10060000808190E008958FEF9FEF089590911802F8
:10061000809117022FEF3FEF981748F4E92FF0E091
:10062000E458FE4F208130E09F5F90931802C9018B
:1006300008958091170290911802891B990B0895D3
:10064000CF92DF92EF92FF920F931F93CF93DF939E
:100650007C01CB018A0120917B01222389F0EB01EF
:100660006B01C40ED51ECC15DD0569F06991D7016B
:10067000ED91FC910190F081E02DC7010995F3CF38
:10068000642F0E949002C801DF91CF911F910F91BA
:10069000FF90EF90DF90CF900895CF93DF931F925C
:1006A000CDB7DEB7698320917B012223F9F0209139
:1006B0001502203258F021E030E0FC013383228320
:1006C00090E080E00F90DF91CF9108958091160225
:1006D000E82FF0E0E55AFE4F998190838F5F809379
:1006E00016028093150281E090E0ECCF61E0CE012C
:1006F00001960E949002F7CFCF92DF92EF92FF9285
:100700000F931F93CF93DF93FC01C48121E02093CB
:100710007B01C0935A011092160210921502838534
:10072000682B86EB92E00E944D03D0911502D132E6
:1007300008F092C00E94DD016B017C018091E6010E
:10074000811165C082E08093E60181E08093E80139
:100750008FEF8093E50110920A02D0930902ABE576
:10076000B1E0E9EEF1E080E0D81385C010920B0211
:1007700080910B02CC0FC82BC0930B028091E70134
:10078000813009F07CC01092E7010E94DD016B010D
:100790007C0180910B028093BB0080919D01909120
:1007A0009E01A0919F01B091A001892B8A2B8B2BD8
:1007B00099F00E94DD0100919D0110919E01209110
:1007C0009F013091A0016C197D098E099F090617C0
:1007D000170728073907E0F18091BC0083FDD9CFC6
:1007E00085EC8093BC000E94DD016B017C0180914F
:1007F000E601823009F445C08091E5018F3F61F147
:100800008091E501803241F18091E50125C0809120
:100810009D0190919E01A0919F01B091A001892B13
:100820008A2B8B2B09F48ACF0E94DD0100919D0158
:1008300010919E0120919F013091A0016C197D09BA
:100840008E099F09061717072807390708F076CF82
:1008500080919C010E94D5021092160210921502FE
:1008600010927B01DF91CF911F910F91FF90EF903C
:10087000DF90CF9008959D9191938F5F75CF85EE16
:10088000B0CF80919D0190919E01A0919F01B09168
:10089000A001892B8A2B8B2B09F4A9CF0E94DD01A3
:1008A00000919D0110919E0120919F013091A00126
:1008B0006C197D098E099F09061717072807390744
:1008C00008F095CFC5CF089590E080E0089585EDBC
:1008D0008093BC0080919D0190919E01A0919F0109
:1008E000B091A0010796A11DB11D23E0B695A79573
:1008F000979587952A95D1F72091BC0024FD03C0D8
:100900001092E601089540919D0150919E016091E1
:100910009F017091A001452B462B472B69F300974F
:10092000A105B10541F025E32A95F1F700000197F3
:10093000A109B109E1CF80919C010C94D5020F93DC
:100940001F93CF938C01C62F0E947C036C2F646091
:10095000C8010E947C036C2F6B7FC8010E947C033E
:1009600083EC90E00197F1F7CF911F910F910895DB
:100970000F931F93CF93DF938C01D62FC42F607FEB
:10098000642B0E949F0480E1D89FB00111246C2B3E
:10099000C801DF91CF911F910F910C949F04EF92AA
:1009A000FF921F93CF93DF93CDB7DEB769970FB652
:1009B000F894DEBF0FBECDBF182F7F936F938CE3EB
:1009C00091E09F938F93CE0101967C019F938F932B
:1009D0000E94A60B812F98E0E4E0F1E0DE01529640
:1009E00001900D929A95E1F79091F0020F900F907F
:1009F0000F900F900F900F90911710F48FEF890FB9
:100A0000E82FF0E0EE0FFF1FEE0DFF1D618960681B
:100A100040E088EE92E00E94B804F70101900020C7
:100A2000E9F73197AF014E195F09B70188EE92E0FF
:100A30000E94840069960FB6F894DEBF0FBECDBF4A
:100A4000DF91CF911F91FF90EF900895EF92FF9269
:100A50000F931F93CF93DF93CDB7DEB761970FB698
:100A6000F894DEBF0FBECDBF8AED92E00E94350242
:100A7000182F092F80ED92E00E943502F82EE92E02
:100A800086EC92E00E94350221E0892B09F420E0F7
:100A90001F922F93EF92FF920F931F9382E491E0A6
:100AA0009F938F938E010F5F1F4F1F930F930E9491
:100AB000A60B0FB6F894DEBF0FBECDBF8091A0038A
:100AC000811105C0B80181E090E00E94CF046196D9
:100AD0000FB6F894DEBF0FBECDBFDF91CF911F914F
:100AE0000F91FF90EF90089541E00E94B80481E0DB
:100AF00090E008951F920F920FB60F9211242F933A
:100B00003F934F935F936F937F938F939F93AF9395
:100B1000BF93EF93FF9389E192E00E940201FF915E
:100B2000EF91BF91AF919F918F917F916F915F9165
:100B30004F913F912F910F900FBE0F901F901895DE
:100B40001F920F920FB60F9211242F938F939F93A2
:100B5000EF93FF93E0912902F0912A028081E091C6
:100B60002F02F091300282FD1BC0908180913202F1
:100B70008F5F8F7320913302821741F0E091320230
:100B8000F0E0E75EFD4F958F80933202FF91EF9189
:100B90009F918F912F910F900FBE0F901F901895DE
:100BA0008081F4CF1F920F920FB60F9211242F93D2
:100BB0003F938F939F93AF93BF938091C202909185
:100BC000C302A091C402B091C50230910C0223E08F
:100BD000230F2D3758F50196A11DB11D20930C024E
:100BE0008093C2029093C302A093C402B093C50243
:100BF00080910D0290910E02A0910F02B09110020F
:100C00000196A11DB11D80930D0290930E02A09339
:100C10000F02B0931002BF91AF919F918F913F91BE
:100C20002F910F900FBE0F901F90189526E8230F5D
:100C30000296A11DB11DD2CF1F920F920FB60F9237
:100C400011242F933F934F935F936F937F938F93D1
:100C50009F93AF93BF93EF93FF93E0910201F091C5
:100C600003010995FF91EF91BF91AF919F918F91F2
:100C70007F916F915F914F913F912F910F900FBE98
:100C80000F901F9018951F920F920FB60F9211247C
:100C90002F933F934F935F936F937F938F939F9384
:100CA000AF93BF93EF93FF93E0910001F0910101A7
:100CB0000995FF91EF91BF91AF919F918F917F9196
:100CC0006F915F914F913F912F910F900FBE0F90B9
:100CD0001F9018951F920F920FB60F9211242F9309
:100CE0003F934F935F936F937F938F939F93AF93B4
:100CF000BF93EF93FF938091B900887F803609F40A
:100D00004AC0F0F5883209F4A7C018F5803109F41B
:100D10009BC0B8F4882309F4F9C0883009F494C062
:100D2000FF91EF91BF91AF919F918F917F916F91C3
:100D30005F914F913F912F910F900FBE0F901F9099
:100D40001895883109F488C0803251F78093E50105
:100D500014C0803409F49DC040F48033B9F3883363
:100D6000F9F68093E50185ECB0C0803509F485C0C3
:100D7000883509F496C0883499F60E946704D0CF6C
:100D8000883909F48CC038F5883729F050F4883652
:100D900011F0803729F683E08093E6011092E40198
:100DA00057C0883809F47BC0803919F0803809F0C1
:100DB000B7CF8091E401803208F071C0E091E40186
:100DC00081E08E0F8093E4018091BB00F0E0EC5352
:100DD000FE4F80833DC0803B39F0E0F4803A09F457
:100DE00079C0883A09F09CCF84E08093E6011092A4
:100DF000C3011092C201E0911302F091140209950F
:100E00008091C20181110FC081E08093C2011092D4
:100E1000A20109C0803C09F4A6CF883C09F4A3CF05
:100E2000883B09F07DCFE091C30181E08E0F809374
:100E3000C301F0E0EE55FE4F80818093BB0090919E
:100E4000C3018091C20129C080910B028093BB0035
:100E500085EC8093BC0064CF90910A0280910902D6
:100E6000981758F5E0910A0281E08E0F80930A02EC
:100E7000F0E0E751FE4F8081E9CFE0910A0281E086
:100E80008E0F80930A028091BB00F0E0E751FE4F85
:100E9000808390910A02809109029817C8F285E830
:100EA000D8CFE0910A0281E08E0F80930A028091F0
:100EB000BB00F0E0E751FE4F80838091E801811193
:100EC0005CCF81E08093E70184EA8093BC001092BC
:100ED000E60126CF85EC8093BC001092E60180915C
:100EE000E401803230F4E091E401F0E0EC53FE4F95
:100EF00010826091E40170E0E0911102F091120221
:100F000084EC91E009951092E4010ACF1092E5017A
:100F100034CFCF93DF9310921C0210921B0288EE05
:100F200093E0A0E0B0E080931D0290931E02A09396
:100F30001F02B093200220E131E030931A02209387
:100F4000190225EC30E0309326022093250224EC90
:100F500030E0309328022093270220EC30E03093D9
:100F60002A022093290221EC30E030932C022093B6
:100F70002B0222EC30E030932E0220932D0226EC3F
:100F800030E03093300220932F0210923202109200
:100F9000330210923402109235021092B90210926C
:100FA000B8028093BA029093BB02A093BC02B093A4
:100FB000BD0282E291E09093B7028093B60280E096
:100FC00092ECA1E0B0E08093E4029093E502A0935C
:100FD000E602B093E7021092EB021092EA0284E379
:100FE00091E09093E9028093E80287E28093EC021B
:100FF00080E18093F10282E08093F2021092F3028A
:101000008FB7F8944091C2025091C3026091C4021C
:101010007091C5028FBFC0E8D3E0ECE1F3E024EFAC
:1010200032E0199211921192D9014D935D936D9313
:101030007D939D01CF01825B9F4FDC011D921C922D
:10104000B3E0E033FB0769F710929F0310929E0311
:101050001092A0038EE090E09093DB028093DA027E
:101060001092DD021092DC022FEF30E03093DF02AD
:101070002093DE021092E1021092E0028FEF93E0E3
:101080009093E3028093E2024FE050E05093D1024C
:101090004093D0021092D3021092D2023093D50224
:1010A0002093D4021092D7021092D6029093D902C4
:1010B0008093D80240E150E05093C7024093C602AB
:1010C0001092C9021092C8023093CB022093CA0238
:1010D0001092CD021092CC029093CF028093CE0258
:1010E000DF91CF910895CF93DF9300D000D0CDB79B
:1010F000DEB7789484B5826084BD84B5816084BD98
:1011000085B5826085BD85B5816085BD80916E00A5
:10111000816080936E0010928100809181008260D6
:101120008093810080918100816080938100809113
:1011300080008160809380008091B1008460809302
:10114000B1008091B00081608093B00080917A00FE
:10115000846080937A0080917A00826080937A0024
:1011600080917A00816080937A0080917A00806813
:1011700080937A001092C100C090E402D090E50202
:10118000E090E602F090E70260E079E08DE390E025
:10119000A70196010E945F0B2150310941095109B5
:1011A0005695479537952795E0912902F0912A02A7
:1011B00082E08083C11441EED406E104F10421F001
:1011C000211580E13807A8F0E0912902F0912A0268
:1011D000108260E874E88EE190E0A70196010E9419
:1011E0005F0B2150310941095109569547953795B3
:1011F0002795E0912502F09126023083E0912702A5
:10120000F0912802208310923102E0912D02F0919A
:101210002E0286E08083E0912B02F0912C028081E7
:1012200080618083E0912B02F0912C0280818860A4
:101230008083E0912B02F0912C0280818068808372
:10124000E0912B02F0912C0280818F7D8083809130
:10125000A003811189C010921802109217021092F7
:101260001602109215020E94B70282E890E0909355
:1012700014028093130283E890E09093120280930B
:1012800011021092ED028091F202823018F098E083
:101290009093ED028093F00262E370E080E090E0D2
:1012A0000E9402026091F30288EE92E00E947C03A9
:1012B00068EE73E080E090E00E94020260E388EE56
:1012C00092E00E949F048BE496E40197F1F760E3BB
:1012D00088EE92E00E949F04ABE4B6E41197F1F728
:1012E00060E388EE92E00E949F0483E592E001971C
:1012F000F1F760E288EE92E00E949F046091ED02B7
:10130000606240E088EE92E00E94B80484E080933E
:10131000EE0240E06CE088EE92E00E94B80440E00B
:1013200061E088EE92E00E94B8048BE39FE10197B0
:10133000F1F782E08093EF0240E066E088EE92E011
:101340000E94B80440E062E088EE92E00E94B80497
:10135000EBE3FFE13197F1F788E08093F30260E07F
:1013600088EE92E00E947C0380919E0390919F03FF
:101370000A976CF4ECE1F3E090E080E02191319188
:10138000232B09F4F7C001968A309105B9F78091B3
:10139000A003811106C06EE471E090E080E00E943D
:1013A000CF0401E010E0B2E02B2E312C8FB7F8947F
:1013B0008090C2029090C302A090C402B090C50277
:1013C0008FBFECE1F3E024EE32E03C832B833A83E1
:1013D000298390E080E0AF0142595F4FDA011D920E
:1013E0001C92208131813296232BC9F1A981BA81C7
:1013F00050964D915D916D917C9153979D01245B29
:101400003F4FD901CD90DD90ED90FC902401350146
:10141000441A550A660A770A4C145D046E047F0468
:10142000F0F04C0D5D1D6E1D7F1DA981BA81509697
:101430004D935D936D937C9353979C0120583C4F43
:10144000D9012C91222359F022AD33AD211531055C
:10145000C9F59F0124593F4FD9010D931C93019663
:1014600029813A812C5F3F4F3A8329838A30910545
:1014700009F0B1CFF12CE12CCB80DC8036EAC30E31
:10148000D11CD6018D919C9181309105C1F10297BB
:10149000E9F1BFEFEB1AFB0AEB81FC813296FC838A
:1014A000EB83FAE0EF16F10439F720E030E0232B6C
:1014B00009F47CCF0E94EE00882309F477CF0E94C4
:1014C000000074CF7F01BEE4EB0EF11CD7016D91DB
:1014D0007C91621773071CF6AF0144595F4FDA0124
:1014E0000D931C936F5F7F4FD7016D937C936217B1
:1014F00073070CF4B4CFDA012D923C92B0CFAB81DC
:10150000BC81D896ED91FC910995C3CFAB81BC818C
:10151000D896ED91FC91099580919E0390919F033F
:10152000009709F4B6CFEB81FC8120AD31AD232BC0
:1015300009F4AFCF11AE10AEF701E058FC4F1082A6
:10154000D6011D921C92F701EE0FFF1FEE0FFF1F39
:10155000E05DFC4F1082118212821382EB81FC81CC
:10156000E857FF4F11821082019790939F03809359
:101570009E038FCFFC01EE0FFF1FEE0FFF1FE05EFB
:10158000FC4F44E650E060E070E0408B518B628B92
:10159000738BFC01EE0FFF1FE45FFC4F26E235E08A
:1015A000318B208BFC01EE0FFF1FE85BFC4F118A93
:1015B000108AFC01E058FC4F21E020832FB7F894FB
:1015C0004091C2025091C3026091C4027091C50261
:1015D0002FBF880F991F880F991FFC01EC51FD4FF9
:1015E000408B518B628B738B80919E0390919F03F4
:1015F000019690939F0380939E03C9CE052E97FB7F
:101600001EF400940E94150B57FD07D00E945F0B3B
:1016100007FC03D04EF40C94150B50954095309573
:1016200021953F4F4F4F5F4F08959095809570954E
:1016300061957F4F8F4F9F4F08950E94810BA59F0B
:10164000900DB49F900DA49F800D911D11240895BD
:101650002F923F924F925F926F927F928F929F92C2
:10166000AF92BF92CF92DF92EF92FF920F931F93B0
:10167000CF93DF93CDB7DEB7CA1BDB0B0FB6F89461
:10168000DEBF0FBECDBF09942A88398848885F84A1
:101690006E847D848C849B84AA84B984C884DF8012
:1016A000EE80FD800C811B81AA81B981CE0FD11DF6
:1016B0000FB6F894DEBF0FBECDBFED010895A1E2D5
:1016C0001A2EAA1BBB1BFD010DC0AA1FBB1FEE1FBC
:1016D000FF1FA217B307E407F50720F0A21BB30B07
:1016E000E40BF50B661F771F881F991F1A9469F783
:1016F00060957095809590959B01AC01BD01CF01DF
:101700000895A29FB001B39FC001A39F700D811DDA
:101710001124911DB29F700D811D1124911D0895FA
:10172000DB018F939F930E941D0BBF91AF91A29FEE
:10173000800D911DA39F900DB29F900D11240895CF
:10174000EE0FFF1F0590F491E02D0994AEE0B0E09C
:10175000ECEAFBE00C94360B0D891E8986E08C8345
:101760001A8309838FEF9FE79E838D83AE01475EC7
:101770005F4F6F89788DCE0101960E94C90B2F8132
:101780003885020F131FF80110822E96E4E00C94A6
:10179000520BABE0B0E0EFECFBE00C94280B7C01CB
:1017A0003B018A01FC0117821682838181FFC8C137
:1017B000CE0101965C01F7019381F30193FD8591C0
:1017C00093FF81913F01882309F453C1853239F495
:1017D00093FD859193FF81913F01853229F4B701F3
:1017E00090E00E94B90DE7CF912C212C312CFFE124
:1017F000F31538F08B3211F190F4803209F1833215
:1018000029F137FC3CC020ED280F2A3050F536FE78
:1018100020C08AE0989E200D1124922E06C08D32A1
:1018200091F0803371F7689430F8F30193FD85915E
:1018300093FF81913F018111DACF21C0689431F883
:10184000689432F8F2CF689433F8EFCF689434F8A4
:10185000ECCFEAE02E9E200D1124222E689435F85C
:10186000E4CF8E3229F436FC04C1689436F8DDCF1B
:101870008C3619F4689437F8D8CF8836B1F2982F9F
:101880009F7D95549330E0F08336A1F18337C1F109
:10189000833509F063C02801F2E04F0E511CF801B6
:1018A000C080D180692D70E036FC02C06FEF7FEF01
:1018B000C6010E94A30D4C01689437F882010AC04A
:1018C0000C5F1F4FFFE3F98388248394912C6501FB
:1018D000E89437F833FE2DC0522C8114910471F531
:1018E000552009F468CFB70180E290E00E94B90D5D
:1018F0005A94F6CFF801808189830E5F1F4FE4CFA1
:101900002801F2E04F0E511CF801C080D180692DF2
:1019100070E036FC02C06FEF7FEFC6010E94AE0D93
:101920004C018201D5CFB70180E290E00E94B90D51
:101930002A942814190409F0B0F7CECFF60137FC29
:10194000859137FE81916F01B70190E00E94B90D3A
:1019500051105A94F1E08F1A9108BFCF843619F0D4
:10196000893609F077C0F80137FE6BC0608171815C
:10197000828193810C5F1F4FF32DFF763F2E97FFDF
:1019800009C090958095709561957F4F8F4F9F4FBF
:10199000689437F82AE030E0A5010E94E90DC82ECE
:1019A000CA188C2C432C36FE0CC0E89440F8C9149D
:1019B00040F434FE05C032FC03C0F32DFE7E4F2EF2
:1019C000892C44FE95C0FE01EC0DF11D8081803311
:1019D00009F087C0242D297E422E842D8870582E30
:1019E00043FC95C040FE8FC09C2C821418F42C0C34
:1019F000922C981844FE91C0B70180E390E00E94B9
:101A0000B90D42FE09C088E790E041FE02C088E5BA
:101A100090E0B7010E94B90DC91408F48AC0CA94B5
:101A2000D12C9FEFC91AD90ACA0CDB1CF60182918E
:101A30006F01B70190E00E94B90DAC14BD04B1F77D
:101A40004FCF60817181072E000C880B990B0E5FC0
:101A50001F4F92CFD32CE894D4F82AE030E085379A
:101A600039F1232D297FD22E8F3601F148F48835A4
:101A7000A9F0F701868197812B96E2E10C94440B43
:101A8000803749F08837A9F7D4FE02C06894D2F8AD
:101A900020E130E00DC06894D4F8F6CF34FE03C0E6
:101AA000822F8660D82E20E132E002C028E030E0AC
:101AB000F801D7FE0FC060817181828193810C5F34
:101AC0001F4FA5010E94E90DC82ECA183D2CE894AD
:101AD00037F867CF6081718190E080E00E5F1F4F23
:101AE000F0CF42FC02C0839478CF8394839475CF67
:101AF000842D867809F471CFF6CFB70180E290E0AB
:101B00000E94B90D83948214C0F3512C73CF522CD0
:101B10005818821408F46ECFF8CF842D867809F413
:101B20007BCF8BE241FE80E247FC8DE2B70190E083
:101B300071CFB70180E390E00E94B90D9A946CCF09
:101B40008FEF9FEF99CFFC0105906150704001101D
:101B5000D8F7809590958E0F9F1F0895FC016150D6
:101B6000704001900110D8F7809590958E0F9F1FBF
:101B700008950F931F93CF93DF93182F092FEB0135
:101B80008B8181FD09C01FEF0FEF812F902FDF9117
:101B9000CF911F910F91089582FF14C02E813F8134
:101BA0008C819D81281739073CF4E881F981CF01A8
:101BB00001969983888310838E819F8101969F83EC
:101BC0008E83E3CFE885F985812F0995892BA1F3D1
:101BD000DACFFA01AA27283051F1203181F1E894B7
:101BE0006F936E7F6E5F7F4F8F4F9F4FAF4FB1E010
:101BF0003ED0B4E03CD0670F781F891F9A1FA11D0B
:101C0000680F791F8A1F911DA11D6A0F711D811D0B
:101C1000911DA11D20D009F468943F912AE0269FD0
:101C200011243019305D3193DEF6CF010895462F2F
:101C30004770405D4193B3E00FD0C9F7F6CF462F10
:101C40004F70405D4A3318F0495D31FD4052419379
:101C500002D0A9F7EACFB4E0A69597958795779536
:101C60006795BA95C9F700976105710508959B01BD
:101C7000AC010A2E06945795479537952795BA9546
:101C8000C9F7620F731F841F951FA01D0895F89454
:021C9000FFCF84
:101C9200340234020000400014005400000000002E
:101CA20024018400B1007101E200C000D4000000F0
:101CB20000004D0320036404F60219030603F70231
:101CC200000000007405840064046304252D31368D
:101CD200730025642C202564205B25645D005B5B1A
:0A1CE2004A6F79737469636B0000A8
:00000001FF
