:100000000C9462000C948A000C948A000C948A0070
:100010000C948A000C948A000C948A000C948A0038
:100020000C948A000C948A000C948A000C948A0028
:100030000C948A000C948A000C948A000C948A0018
:100040000C94E7060C948A000C94B5060C948F0669
:100050000C948A000C948A000C948A000C948A00F8
:100060000C948A000C948A000000000025002800EF
:100070002B0000000000240027002A0000000000E0
:1000800023002600290004040404040404040202DA
:100090000202020203030303030301020408102007
:1000A0004080010204081020010204081020000012
:1000B0000008000201000003040700000000000027
:1000C0000000310711241FBECFEFD8E0DEBFCDBF47
:1000D00011E0A0E0B1E0E4EEF3E102C005900D9282
:1000E000AA33B107D9F721E0AAE3B1E001C01D921C
:1000F000AE3FB207E1F710E0C2E6D0E004C02197BE
:10010000FE010E94EA09C136D107C9F70E9486079D
:100110000C94F0090C9400008CBD9DBD0895AF9225
:10012000BF92CF92DF92EF92FF920F931F93CF93E4
:10013000DF936C017B018B01040F151FEB015E0146
:10014000AE18BF08C017D10759F06991D601ED91DB
:10015000FC910190F081E02DC6010995892B79F77A
:10016000C501DF91CF911F910F91FF90EF90DF902C
:10017000CF90BF90AF900895FC01538D448D252FF3
:1001800030E0842F90E0821B930B541710F0CF9631
:10019000089501970895FC01918D828D981761F063
:1001A000A28DAE0FBF2FB11D5D968C91928D9F5F7A
:1001B0009F73928F90E008958FEF9FEF0895FC0159
:1001C000918D828D981731F0828DE80FF11D858D0C
:1001D00090E008958FEF9FEF0895FC01918D228D9F
:1001E000892F90E0805C9F4F821B91098F73992724
:1001F000089584E491E00E94ED0021E0892B09F448
:1002000020E0822F089580E090E0892B29F00E9461
:10021000F90081110C9400000895FC01A48DA80F31
:10022000B92FB11DA35ABF4F2C91848D90E0019638
:100230008F739927848FA689B7892C93A089B18958
:100240008C91837080648C93938D848D981306C0F9
:100250000288F389E02D80818F7D80830895EF925D
:10026000FF920F931F93CF93DF93EC0181E0888F70
:100270009B8D8C8D98131AC0E889F989808185FF40
:1002800015C09FB7F894EE89FF896083E889F989E2
:1002900080818370806480839FBF81E090E0DF91E4
:1002A000CF911F910F91FF90EF900895F62E0B8D37
:1002B00010E00F5F1F4F0F731127E02E8C8D8E11F2
:1002C0000CC00FB607FCFACFE889F989808185FF59
:1002D000F5CFCE010E940D01F1CFEB8DEC0FFD2F7C
:1002E000F11DE35AFF4FF0829FB7F8940B8FEA8914
:1002F000FB8980818062CFCFCF93DF93EC01888D23
:100300008823B9F0AA89BB89E889F9898C9185FD90
:1003100003C0808186FD0DC00FB607FCF7CF8C911E
:1003200085FFF2CF808185FFEDCFCE010E940D01C8
:10033000E9CFDF91CF910895833081F028F48130A7
:1003400099F08230A9F008958730A9F08830C9F07B
:100350008430B1F4809180008F7D03C08091800053
:100360008F7780938000089584B58F7784BD08953A
:1003700084B58F7DFBCF8091B0008F778093B000E4
:1003800008958091B0008F7DF9CF1F93CF93DF93B5
:10039000282F30E0F901E255FF4F8491F901E6562C
:1003A000FF4FD491F901EA57FF4FC491CC23A9F034
:1003B000162F81110E949C01EC2FF0E0EE0FFF1F21
:1003C000E859FF4FA591B4918FB7F894EC911111B2
:1003D00008C0D095DE23DC938FBFDF91CF911F91B2
:1003E0000895DE2BF8CFCF93DF9390E0FC01E65623
:1003F000FF4F24918A579F4FFC0184918823D1F0AD
:1004000090E0880F991FFC01EE58FF4FA591B49121
:10041000FC01E859FF4FC591D49161110EC09FB7FF
:10042000F8948C91E22FE0958E238C932881E2231F
:10043000E8839FBFDF91CF9108958FB7F894EC9137
:10044000E22BEC938FBFF6CF3FB7F89480913F013A
:1004500090914001A0914101B091420126B5A89B25
:1004600005C02F3F19F00196A11DB11D3FBFBA2F46
:10047000A92F982F8827BC01CD01620F711D811D06
:10048000911D42E0660F771F881F991F4A95D1F78B
:1004900008958F929F92AF92BF92CF92DF92EF9288
:1004A000FF926B017C010E9424024B015C01C1148C
:1004B000D104E104F104B9F00E9424026819790919
:1004C0008A099B09683E73408105910580F321E00C
:1004D000C21AD108E108F10888EE880E83E0981E60
:1004E000A11CB11CE4CFFF90EF90DF90CF90BF90A4
:1004F000AF909F908F9008950F931F93CF93DF93AA
:10050000EC0101EE11E061E0F80180810E94C5017B
:10051000BE01DD0F880B990B0E94490260E0F801D3
:100520008081DF91CF911F910F910C94C5012FB75E
:10053000F89460913B0170913C0180913D01909154
:100540003E012FBF0895BC016E5F7F4FDC01ED912E
:10055000FC910190F081E02D40E0099591E081113E
:1005600090E0892F089508958EBD00000DB407FE18
:10057000FDCF8EB50895DF92EF92FF920F931F93F8
:10058000CF93DF937C01062FD42E152F80E590E0CA
:100590000E948C0060E0F70186850E94C50182E11F
:1005A0000E94B402CD2DD12F0C0F1D2F111DC0178D
:1005B000D10721F089910E94B402F9CF61E0F701DF
:1005C0008685DF91CF911F910F91FF90EF90DF9083
:1005D0000C94C5011F93CF93DF93EC01162F80E598
:1005E00090E00E948C0060E08E850E94C501812F02
:1005F00080680E94B40280E00E94B402182F61E07B
:100600008E850E94C501812FDF91CF911F910895A2
:100610000F931F93CF93DF93EC01062F142F80E5E8
:1006200090E00E948C0060E08E850E94C501802FC2
:100630000E94B402812F0E94B40261E08E85DF9196
:10064000CF911F910F910C94C501CF92DF92EF9241
:10065000FF920F931F93CF93DF93EC016B01F42E66
:10066000890140E062E00E94080344E06AE0CE01B4
:100670000E94080340E864E1CE010E940803A6013D
:100680006F2DCE010E94BB0243E062E0CE010E94CA
:1006900008030E9497026B017C0129E5C20ED11C60
:1006A000E11CF11C6AE0CE010E94EA0282FF1BC03D
:1006B00040E062E0CE010E94080364E4CE010E94A3
:1006C000EA02F801808362E4CE010E94EA02F801A6
:1006D000818380E0DF91CF911F910F91FF90EF9088
:1006E000DF90CF9008950E9497026C157D058E05CE
:1006F0009F05C0F283E0EECF2F923F924F925F9220
:100700006F927F928F929F92AF92CF92DF92EF92F1
:10071000FF920F931F93CF93DF9300D0CDB7DEB737
:100720004C012B01D42E390180E0E114F10411F0C9
:10073000F70180813C2C329490EF3922380E40E052
:1007400062E0C4010E9408034FE768E0C4010E9410
:10075000080340E864E1C4010E940803A2016D2D72
:10076000C4010E94BB02432D6AE1C4010E94080338
:100770004CE062E0C4010E9408036AE1C4010E94E7
:10078000EA02482F40686AE1C4010E9408030E94FF
:1007900097021B012C01F4E22F0E311C411C511C4D
:1007A00068E0C4010E94EA02982F907309F0B7C074
:1007B00080FF15C083E00F900F90DF91CF911F91C4
:1007C0000F91FF90EF90DF90CF90AF909F908F9020
:1007D0007F906F905F904F903F902F9008950E9470
:1007E00097026215730584059505D0F2E3CF611475
:1007F000710409F469C00115110509F465C064E1CB
:10080000C4010E94EA02382EF8018081831508F4A1
:1008100080C030823320E1F180E590E00E948C00BE
:1008200060E0F40186850E94C5013A9482E90E9445
:10083000B402CC20B1F08FEF90E09C0102C0220FF7
:10084000331FCA94E2F7690182E90E94B4029C2D29
:100850009095F301208192238C21982B9083CC24B6
:10086000C39423014C0C511CC31440F482E90E9430
:10087000B402F20181932F01C394F6CF80E00E946D
:10088000B402F201808361E0F40186850E94C50113
:1008900068E1C4010E94EA028770E114F10411F0DA
:1008A000F701808323FC37C061147104B1F1011595
:1008B000110599F1AA2089F1F8014081413031F404
:1008C000843029F58FEF77CF80E0ECCF4230F8F01D
:1008D00081111DC042509E012F5F3F4FB301C401E3
:1008E0000E942503811167CFF8019081690E711C68
:1008F000F301329720819981291309C0F1E06F1A21
:100900007108F30120819A81291709F454CF87E0F7
:1009100052CF84E050CF82E04ECF80E04CCF6CE0ED
:10092000C4010E94EA02282E837109F460CF81E09D
:1009300042CF8F929F92AF92CF92EF92FF920F93FE
:100940001F93CF93DF9300D000D01F92CDB7DEB7B7
:100950004C0182E08D8340E064E2C4010E94080300
:1009600040E066E2C4010E94080346E268E4C40174
:100970000E94080386E28B838D818230D8F16CE17E
:10098000C4010E94EA02482F4F776CE1C4010E9423
:10099000080387E08C83A12CC12CCE0104967C0136
:1009A0008E010B5F1F4F9E012F5F3F4F41E0BE0145
:1009B0006D5F7F4FC4010E947C03982F811117C087
:1009C0008D818230B9F48C81811114C081E00F9047
:1009D0000F900F900F900F90DF91CF911F910F917B
:1009E000FF90EF90CF90AF909F908F90089581E00F
:1009F000923069F380E0EBCF2F923F924F925F925B
:100A00006F927F928F929F92AF92BF92CF92DF921E
:100A1000EF92FF920F931F93CF93DF93CDB7DEB783
:100A20002D970FB6F894DEBF0FBECDBF16E041354F
:100A300008F04AC1342E3B014C016CE10E94EA02ED
:100A4000482F4F776CE1C4010E94080383E9898332
:100A5000332029F081E0F3019081953008F480E0A3
:100A600022242394B12C9B2D990F990F990FD32CED
:100A7000D91AD7FCD12C32E0882319F098E89B834F
:100A800033E021E09D2D977009F420E09D2D959590
:100A900095959595290FC9F094E0811193E0291758
:100AA00008F4922FEB2DF0E03196E60DF71D232F81
:100AB0004191A1E0B0E0AC0FBD1FA20FB11D4C935E
:100AC0002F5F422F431B491798F3882311F0F8E05A
:100AD000DF0E8FE18D150CF082C090E79A838B8139
:100AE0009C8189279D8189279E8189278F839E01EB
:100AF000285F3F4F47E0BE016F5F7F4FC4010E94F8
:100B00002503182F8111E0C01A86E3E0EB87DC860D
:100B1000CE0107962C0199E09D87CA844C2D429501
:100B2000407F4C0D6AE1C4010E940803A12CCE0154
:100B30000A967C018E01055F1F4F92014D85BE0113
:100B40006F5F7F4FC4010E947C03182F823009F031
:100B500065C06CE1C4010E94EA0285FDB5C08F71D9
:100B600009F480E2282F30E04D2DDD0C550B4217A3
:100B700053070CF09DC0D82EE82FE595E595E59537
:100B8000EF5F982F977081E009F480E0E80F81E033
:100B900090E08C0F9D1F8E0F911DFC01215031099B
:100BA0002770332781E090E002C0880F991F2A95B3
:100BB000E2F79C018081822B80838BCF85E989833A
:100BC000332031F081E0F3019081983008F04BCF71
:100BD00080E049CF87E9898326E0B22EF9CF9D2DA9
:100BE00097709A878D2D8595859585958E5F282F91
:100BF0002295207F290F2A8321E0911101C020E056
:100C0000280F2D8744244394512C4C0E5D1E480E12
:100C1000511CE9E0E81BEB87DC867FCF811154C0D3
:100C200080E2D82E9C8590320CF457CF8B81883887
:100C300009F040C083E093E0EB2DF0E03196E60D43
:100C4000F71D980FA1E0B0E0AC0FBD1FA80FB11DBC
:100C50002C9121938F5F8913F5CFBB84E3E0BE1203
:100C60004DC08A8581114AC09E012D5F3F4F41E0F2
:100C7000B201C4010E942503182F811125C09B8158
:100C8000F201818198133CC09C818281981338C005
:100C9000808182FF12C02394F2E02F1609F48ECFD8
:100CA00083E0281609F496CF91E0291609F4CECEF8
:100CB00015E00AC082E094E0BFCFF3018387822D64
:100CC000880F820D8F5F8083812F2D960FB6F89449
:100CD000DEBF0FBECDBFDF91CF911F910F91FF906F
:100CE000EF90DF90CF90BF90AF909F908F907F90CC
:100CF0006F905F904F903F902F90089511E0E4CF58
:100D000017E0E2CFFC0101900020E9F73197AF0135
:100D1000481B590BBC0184E491E00C948F001F9296
:100D20000F920FB60F9211242F933F934F935F931F
:100D30006F937F938F939F93AF93BF93EF93FF93A3
:100D400084E491E00E940D01FF91EF91BF91AF917A
:100D50009F918F917F916F915F914F913F912F91D3
:100D60000F900FBE0F901F9018951F920F920FB605
:100D70000F9211242F938F939F93EF93FF93E09102
:100D80005401F09155018081E0915A01F0915B018D
:100D900082FD1BC0908180915D018F5F8F732091D8
:100DA0005E01821741F0E0915D01F0E0EC5BFE4FE7
:100DB000958F80935D01FF91EF919F918F912F917E
:100DC0000F900FBE0F901F9018958081F4CF1F9247
:100DD0000F920FB60F9211242F933F938F939F93EF
:100DE000AF93BF9380913B0190913C01A0913D0155
:100DF000B0913E0130913A0123E0230F2D3758F591
:100E00000196A11DB11D20933A0180933B0190935F
:100E10003C01A0933D01B0933E0180913F01909130
:100E20004001A0914101B09142010196A11DB11D67
:100E300080933F0190934001A0934101B093420100
:100E4000BF91AF919F918F913F912F910F900FBEC6
:100E50000F901F90189526E8230F0296A11DB11D33
:100E6000D2CFCF93DF93E4E4F1E01382128288EED5
:100E700093E0A0E0B0E084839583A683B78388E005
:100E800091E09183808385EC90E09587848784EC62
:100E900090E09787868780EC90E0918B808B81EC47
:100EA00090E0938B828B82EC90E0958B848B86EC28
:100EB00090E0978B868B118E128E138E148EEEEE31
:100EC000F1E08AE191E0918380838AE0868789E07E
:100ED0008787C1EED1E083E090E0998388831B820D
:100EE0001A821F821E8284E690E09D838C830E947A
:100EF0009702688779878A879B8761E083E00E94F1
:100F0000F30181E08C87DF91CF910895CF93DF9338
:100F1000CDB7DEB7A1970FB6F894DEBF0FBECDBF39
:100F2000789484B5826084BD84B5816084BD85B5C4
:100F3000826085BD85B5816085BD80916E008160D0
:100F400080936E0010928100809181008260809376
:100F50008100809181008160809381008091800078
:100F60008160809380008091B10084608093B100A3
:100F70008091B00081608093B00080917A0084609D
:100F800080937A0080917A00826080937A008091C9
:100F90007A00816080937A0080917A0080688093E3
:100FA0007A001092C100E0915401F091550182E065
:100FB0008083E0915001F09151011082E091520143
:100FC000F091530180E1808310925C01E09158011F
:100FD000F091590186E08083E0915601F09157012C
:100FE000808180618083E0915601F091570180817A
:100FF00088608083E0915601F0915701808180687C
:101000008083E0915601F091570180818F7D80832C
:101010001FB7F89480914301811127C0E0E9F0E007
:101020008491E4EAF0E09491E82FF0E0EE0FFF1FE6
:10103000EE58FF4FA591B491EC91E92321F461E0C2
:101040008AE00E94C50161E08AE00E94F3018CB54C
:1010500080618CBD8CB580648CBD61E08DE00E94A8
:10106000F30161E08BE00E94F301809143018F5F07
:10107000809343011FBF61E08091FC010E94F30156
:1010800061E08091FC010E94C5018091FD018F3FCC
:1010900009F4A8C060E00E94F3012091FD0130E056
:1010A000F901E255FF4F8491F901E656FF4F049193
:1010B000F901EA57FF4F1491111185C061E0809149
:1010C000FD010E94F30160E08091FD010E94C501D5
:1010D00083E090E00197F1F761E08091FD010E94CB
:1010E000C50162E370E080E090E00E94490240E0C8
:1010F00064E28EEE91E00E94080340E066E28EEE2C
:1011000091E00E94080346E268E48EEE91E00E94BE
:10111000080340E864E58EEE91E00E94080349EA86
:1011200066E58EEE91E00E94080343E068E58EEEEE
:1011300091E00E94080348EE6AE58EEE91E00E947D
:10114000080340E46AE28EEE91E00E9408034DE35A
:1011500062E28EEE91E00E94080368E28EEE91E07A
:101160000E94EA02982F9370933039F0482F436021
:1011700068E28EEE91E00E94080395EF892E91E0DF
:10118000992E2AE0422E512C612C712C30E0232E16
:1011900030E0332EAA24A394B12C8EEE91E00E946D
:1011A0009904811136C064EF71E080E090E00E9404
:1011B00049022114310489F30E94F900882369F35C
:1011C0000E940000EACF81110E949C01E12FF0E013
:1011D000EE0FFF1FE458FF4FA591B491EC910E2341
:1011E00009F46CCF4FE062E08EEE91E00E940803BC
:1011F00013E062E370E080E090E00E94490262E068
:101200008EEE91E00E94EA0284FF71CF115089F7BF
:101210006ECF8EEE91E00E94A302882309F4C3CF23
:101220009091F10180910001981312C09091F20108
:101230008091010198130CC09091F30180910201FB
:10124000981306C0909103018091F401981719F149
:101250008FE291E00E9482068CE291E00E94820679
:1012600080ED97E022C08091E7019091E801092E7E
:10127000000CAA0BBB0B84179507A607B70708F04D
:1012800055C061E08091E1010E94C501B092E40186
:10129000A092E30143C083E391E00E9482068CE2C6
:1012A00091E00E94820684E690E00E947C0280E247
:1012B00091E00E9482068091ED01811137C00E9469
:1012C00097026B017C018091E9019091EA01A09164
:1012D000EB01B091EC01B701A601481B590B6A0B59
:1012E0007B0B8091E3019091E401892B09F4BBCF42
:1012F0008091E5019091E601092E000CAA0BBB0B31
:1013000084179507A607B70788F460E08091E1018C
:101310000E94C5011092E4011092E301C092E9011C
:10132000D092EA01E092EB01F092EC0182E390E0CE
:101330000E947C0281EFE82E81E0F82EF7012191D6
:101340007F0130E050E040E019A28E010F5D1F4F99
:10135000CA01B901A30192010E94C809605DF801A8
:1013600062938F01211531054105510589F73097A9
:1013700019F0CF010E9482068AE291E00E94820663
:101380008E149F04D9F68CE291E00E94820611CF60
:10139000A1E21A2EAA1BBB1BFD010DC0AA1FBB1F79
:1013A000EE1FFF1FA217B307E407F50720F0A21BEB
:1013B000B30BE40BF50B661F771F881F991F1A9458
:1013C00069F760957095809590959B01AC01BD0182
:1013D000CF010895EE0FFF1F0590F491E02D0994C1
:0413E000F894FFCFAF
:1013E400A2360A1A000000002F018F00BC007C0105
:1013F400ED00CB00DF0000000000FC049904A30210
:1014040043617264205549443A0020000D0A004E9D
:0A1414006F7420457175616C0000D3
:00000001FF
