:100000000C9463000C948B000C948B000C948B006C
:100010000C948B000C948B000C948B000C948B0034
:100020000C948B000C948B000C948B000C94600748
:100030000C948B000C948B000C948B000C948B0014
:100040000C9416070C948B000C94E4060C94BE06DA
:100050000C948B000C948B000C948B000C948B00F4
:100060000C941C080C948B00000000002400270056
:100070002A0000000000250028002B0000000000DE
:1000800023002600290004040404040404040202DA
:100090000202020203030303030301020408102007
:1000A0004080010204081020010204081020000012
:1000B0000008000201000003040700000000000027
:1000C00000007709441011241FBECFEFD8E0DEBF37
:1000D000CDBF11E0A0E0B1E0EAE4FBE202C0059090
:1000E0000D92AE38B107D9F724E0AEE8B1E001C017
:1000F0001D92A636B207E1F710E0C2E6D0E004C0D8
:100100002197FE010E94F610C136D107C9F70E945F
:10011000890A0C9498150C9400008F929F92AF92CC
:10012000BF92FF920F931F93CF93DF93F0905F04E2
:100130002BE02F1508F44CC02091610408E512E073
:10014000021B110927FD1395000F111F000F111F2E
:1001500020916004C8E8D0E0C21BD10927FDD395E7
:10016000CC0FDD1FCC0FDD1F4E010D2E000CAA0899
:10017000BB089801012E000C440B550B28193909B6
:100180004A095B09DC010E947A1024EB30E040E070
:1001900050E00E945010820E931EA41EB51E8C16B5
:1001A0009D062CF0E801801691060CF4E4012297DC
:1001B000CC0FDD1F2FB7F8948F2D90E0FC01EE0FD0
:1001C000FF1FE80FF91FE450FD4FD283C1832FBFFB
:1001D000DF91CF911F910F91FF90BF90AF909F90B3
:1001E0008F90089596E0899FD0011124AD5CBC4F9B
:1001F00090967C936E935F9791E091969C939197E4
:10020000E091A003F091A10390919F03992339F00D
:10021000309751F0811108C080914F0309943097B5
:1002200019F05C968C91FACF089590E080E00C94E0
:100230008D0008950895AF92BF92CF92DF92EF9212
:10024000FF920F931F93CF93DF936C017B018B0180
:10025000040F151FEB015E01AE18BF08C017D107D0
:1002600059F06991D601ED91FC910190F081E02D5A
:10027000C6010995892B79F7C501DF91CF911F91AF
:100280000F91FF90EF90DF90CF90BF90AF900895C7
:10029000FC01538D448D252F30E0842F90E0821B8C
:1002A000930B541710F0CF96089501970895FC0111
:1002B000918D828D981761F0A28DAE0FBF2FB11D69
:1002C0005D968C91928D9F5F9F73928F90E00895C1
:1002D0008FEF9FEF0895FC01918D828D981731F07B
:1002E000828DE80FF11D858D90E008958FEF9FEFCF
:1002F0000895FC01918D228D892F90E0805C9F4FA5
:10030000821B91098F739927089583E592E00E94DB
:10031000790121E0892B09F420E0822F089580E003
:1003200090E0892B29F00E94850181110C94000036
:100330000895FC01A48DA80FB92FB11DA35ABF4F7A
:100340002C91848D90E001968F739927848FA689D4
:10035000B7892C93A089B1898C91837080648C9328
:10036000938D848D981306C00288F389E02D8081D7
:100370008F7D80830895EF92FF920F931F93CF9309
:10038000DF93EC0181E0888F9B8D8C8D98131AC0D0
:10039000E889F989808185FF15C09FB7F894EE89B7
:1003A000FF896083E889F989808183708064808314
:1003B0009FBF81E090E0DF91CF911F910F91FF905F
:1003C000EF900895F62E0B8D10E00F5F1F4F0F7307
:1003D0001127E02E8C8D8E110CC00FB607FCFACFC2
:1003E000E889F989808185FFF5CFCE010E949901C6
:1003F000F1CFEB8DEC0FFD2FF11DE35AFF4FF08293
:100400009FB7F8940B8FEA89FB8980818062CFCFF8
:10041000CF93DF93EC01888D8823B9F0AA89BB893B
:10042000E889F9898C9185FD03C0808186FD0DC026
:100430000FB607FCF7CF8C9185FFF2CF808185FF47
:10044000EDCFCE010E949901E9CFDF91CF910895C0
:10045000833081F028F4813099F08230A9F008953A
:100460008730A9F08830C9F08430B1F480918000E1
:100470008F7D03C0809180008F77809380000895E6
:1004800084B58F7784BD089584B58F7DFBCF80912F
:10049000B0008F778093B00008958091B0008F7D79
:1004A000F9CFCF93DF93282F30E0F901E255FF4FCA
:1004B0008491F901E656FF4FD491F901EA57FF4FB5
:1004C000C491CC23A1F081110E942802EC2FF0E00E
:1004D000EE0FFF1FE458FF4FA591B491EC91ED236F
:1004E00081E090E009F480E0DF91CF91089580E011
:1004F00090E0FACF862F0C9451021F93CF93DF9395
:10050000282F30E0F901E255FF4F8491F901E656BA
:10051000FF4FD491F901EA57FF4FC491CC23A9F0C2
:10052000162F81110E942802EC2FF0E0EE0FFF1F22
:10053000EE58FF4FA591B4918FB7F894EC9111113B
:1005400008C0D095DE23DC938FBFDF91CF911F9140
:100550000895DE2BF8CF862F642F0C947D02CF9365
:10056000DF9390E0FC01E656FF4F24918A579F4F9E
:10057000FC0184918823C9F090E0880F991FFC0149
:10058000E859FF4FA591B491FC01EE58FF4FC5917A
:10059000D49161110DC09FB7F8948C91209582235E
:1005A0008C938881282328839FBFDF91CF91089562
:1005B000623051F49FB7F8943C91822F8095832349
:1005C0008C93E8812E2BEFCF8FB7F894EC912E2BE4
:1005D0002C938FBFEACF862F642F0C94AF023FB7C6
:1005E000F8948091460290914702A0914802B09100
:1005F000490226B5A89B05C02F3F19F00196A11D01
:10060000B11D3FBFBA2FA92F982F8827BC01CD015C
:10061000620F711D811D911D42E0660F771F881FBB
:10062000991F4A95D1F708958F929F92AF92BF92EA
:10063000CF92DF92EF92FF924B015C010E94EF029A
:100640006B017C010E94EF026C197D098E099F09E4
:10065000683E734081059105A8F321E0821A910854
:10066000A108B10888EEC80E83E0D81EE11CF11C79
:1006700081149104A104B10429F7FF90EF90DF9059
:10068000CF90BF90AF909F908F9008952FB7F89420
:100690006091420270914302809144029091450220
:1006A0002FBF08950F931F93CF93DF93C82FD62F9B
:1006B00086E0C89FF0011124ED5CFC4F11A2878DEC
:1006C00090A181309105F1F058F082309105F1F15F
:1006D000039709F440C0DF91CF911F910F910895C6
:1006E0006623C9F361E070E08C2F0E94F2000E9443
:1006F000460360938B0370938C0380938D039093D8
:100700008E03E9CF0E94460300918B0310918C0366
:1007100020918D0330918E03AB01BC01401B510B26
:10072000620B730B80919D0390919E03B0E0A0E05B
:1007300084179507A607B70748F462E070E08C2F8E
:10074000DF91CF911F910F910C94F20063E070E064
:10075000D111C1CFF4CF70E060E0F1CF2091F6016C
:10076000260F3327331F21323105ECF420911A0272
:10077000FC0190E080E0243069F082E00895A091CF
:10078000F6012191AC014A525E4FA40FB52FB11D65
:100790002C930196861798F38091F601680F609369
:1007A000F60180E0089581E0089510921A0281E038
:1007B00080931C0210921B0261E082E10E947D0284
:1007C00061E083E10E947D02E9EBF0E080818E7FB1
:1007D000808380818D7F808388E48093B80085E466
:1007E0008093BC000895CF93DF9391E09093D5015F
:1007F0008823B9F0C091B800D091BA008091BC00B4
:100800008A7B8093BC0060E082E10E947D0260E010
:1008100083E10E947D020E94D503D093BA00C09369
:10082000B800DF91CF9108950895E0915102809131
:100830005002E81730F4F0E0E055FE4F808190E080
:1008400008958FEF9FEF089590915102809150028B
:100850002FEF3FEF981748F4E92FF0E0E055FE4FF7
:10086000208130E09F5F90935102C90108958091EB
:10087000500290915102891B990B0895CF92DF92FB
:10088000EF92FF920F931F93CF93DF937C01CB01E5
:100890008A012091AF01222389F0EB016B01C40E84
:1008A000D51ECC15DD0569F06991D701ED91FC915C
:1008B0000190F081E02DC7010995F3CF642F0E94CC
:1008C000AE03C801DF91CF911F910F91FF90EF9080
:1008D000DF90CF900895CF93DF931F92CDB7DEB70F
:1008E00069832091AF012223F9F020914E0220323A
:1008F00058F021E030E0FC013383228390E080E077
:100900000F90DF91CF91089580914F02E82FF0E092
:10091000E157FE4F998190838F5F80934F028093C0
:100920004E0281E090E0ECCF61E0CE0101960E94A2
:10093000AE03F7CFCF92DF92EF92FF920F931F9308
:10094000CF93DF93FC01C48121E02093AF01C093DA
:100950008E0110924F0210924E028385682B80EF19
:1009600092E00E946B04D0914E02D13208F092C006
:100970000E94EF026B017C0180911A02811165C017
:1009800082E080931A0281E080931C028FEF8093B3
:10099000190210923E02D0933D02AFE8B1E0EDE1C2
:1009A000F2E080E0D81385C010923F0280913F02B0
:1009B000CC0FC82BC0933F0280911B02813009F0FD
:1009C0007CC010921B020E94EF026B017C0180919F
:1009D0003F028093BB008091D1019091D201A09100
:1009E000D301B091D401892B8A2B8B2B99F00E94D3
:1009F000EF020091D1011091D2012091D3013091E9
:100A0000D4016C197D098E099F090617170728075D
:100A10003907E0F18091BC0083FDD9CF85EC80934C
:100A2000BC000E94EF026B017C0180911A028230AF
:100A300009F445C0809119028F3F61F1809119023C
:100A4000803241F18091190225C08091D1019091AD
:100A5000D201A091D301B091D401892B8A2B8B2B89
:100A600009F48ACF0E94EF020091D1011091D201C6
:100A70002091D3013091D4016C197D098E099F0911
:100A8000061717072807390708F076CF8091D0019D
:100A90000E94F30310924F0210924E021092AF0187
:100AA000DF91CF911F910F91FF90EF90DF90CF904A
:100AB00008959D9191938F5F75CF85EEB0CF809112
:100AC000D1019091D201A091D301B091D401892B91
:100AD0008A2B8B2B09F4A9CF0E94EF020091D10140
:100AE0001091D2012091D3013091D4016C197D096C
:100AF0008E099F09061717072807390708F095CFB1
:100B0000C5CF089590E080E008950F931F93CF9391
:100B10008C01C62F0E949A046C2F6460C8010E9449
:100B20009A046C2F6B7FC8010E949A0483EC90E0BA
:100B30000197F1F7CF911F910F9108950F931F9394
:100B4000CF93DF938C01D62FC42F607F642B0E943C
:100B5000850580E1D89FB00111246C2BC801DF917D
:100B6000CF911F910F910C94850541E00E949E0545
:100B700081E090E00895EF92FF921F93CF93DF936F
:100B8000CDB7DEB769970FB6F894DEBF0FBECDBF05
:100B900090915E0491113EC0182F7F936F9382E66F
:100BA00091E09F938F93CE0101967C019F938F9349
:100BB0000E94F712812F98E0E0E2F1E0DE01529608
:100BC00001900D929A95E1F79091AE030F900F90DE
:100BD0000F900F900F900F90911710F48FEF890FD7
:100BE000E82FF0E0EE0FFF1FEE0DFF1D618960683A
:100BF00040E086EA93E00E949E05F7010190002004
:100C0000E9F73197AF014E195F09B70186EA93E022
:100C10000E941B0169960FB6F894DEBF0FBECDBFD0
:100C2000DF91CF911F91FF90EF900895FC0180819B
:100C30009181009711F00C94981108950F931F93D0
:100C4000CF93DF93EC0188819981009759F02A8135
:100C50003B812617370730F081E0DF91CF911F915C
:100C60000F9108958B016F5F7F4F0E9421120097B3
:100C700059F0998388831B830A832C813D81232B20
:100C800059F7FC011082E8CF80E0E7CFCF93DF93E4
:100C9000EC0170E060E00E941E062881398181111C
:100CA0000FC02115310519F0C9010E949811198250
:100CB00018821D821C821B821A82DF91CF910895B7
:100CC0001D821C826DE871E0C901DF91CF910C9407
:100CD000F012109252028DE293E00E94460687E2E3
:100CE00093E00E9446066DE871E081E090E00E948A
:100CF000BB058FEF9FEF909301018093000110924D
:100D0000B10360E086EA93E00C949A0485ED809349
:100D1000BC008091D1019091D201A091D301B091FA
:100D2000D4010796A11DB11D23E0B695A79597950F
:100D300087952A95D1F72091BC0024FD03C010921D
:100D40001A0208954091D1015091D2016091D301CE
:100D50007091D401452B462B472B69F30097A105D1
:100D6000B10541F025E32A95F1F700000197A109AB
:100D7000B109E1CF8091D0010C94F3031F920F923F
:100D80000FB60F9211242F933F934F935F936F935E
:100D90007F938F939F93AF93BF93EF93FF9383E5DD
:100DA00092E00E949901FF91EF91BF91AF919F91C5
:100DB0008F917F916F915F914F913F912F910F9004
:100DC0000FBE0F901F9018951F920F920FB60F92A3
:100DD00011242F938F939F93EF93FF93E0916302DE
:100DE000F09164028081E0916902F0916A0282FDD3
:100DF0001BC0908180916C028F5F8F7320916D0278
:100E0000821741F0E0916C02F0E0ED5AFD4F958FB2
:100E100080936C02FF91EF919F918F912F910F9092
:100E20000FBE0F901F9018958081F4CF1F920F92E4
:100E30000FB60F9211242F933F938F939F93AF93ED
:100E4000BF938091420290914302A0914402B091DD
:100E500045023091410223E0230F2D3758F50196CA
:100E6000A11DB11D20934102809342029093430241
:100E7000A0934402B09345028091460290914702AC
:100E8000A0914802B09149020196A11DB11D809325
:100E9000460290934702A0934802B0934902BF9143
:100EA000AF919F918F913F912F910F900FBE0F9017
:100EB0001F90189526E8230F0296A11DB11DD2CFD1
:100EC0001F920F920FB60F9211242F933F934F93BF
:100ED0005F936F937F938F939F93AF93BF93CF93C2
:100EE000DF93EF93FF9380914002C0912003D0E005
:100EF00087FF24C0109285001092840080914002E8
:100F00008F5F8093400280914002082E000C990B65
:100F10008C179D0724F4809140028C30C4F180919D
:100F2000840090918500049680349C4908F47AC02E
:100F30008091840090918500049676C08091400253
:100F4000082E000C990B8C179D07C4F6E091400207
:100F50008E2FEE0F990BFC01EE0FFF1FE80FF91F0C
:100F6000E450FD4F808186FFC9CFE09140028E2F73
:100F7000EE0F990BFC01EE0FFF1FE80FF91FE45075
:100F8000FD4F808160E08F730E947D02B7CF20917A
:100F9000840030918500E09140028E2FEE0F990B76
:100FA000FC01EE0FFF1FE80FF91FE450FD4F818198
:100FB0009281820F931F9093890080938800E09123
:100FC00040028E2FEE0F990BFC01EE0FFF1FE80F72
:100FD000F91FE450FD4F808186FF11C0E09140026F
:100FE0008E2FEE0F990BFC01EE0FFF1FE80FF91F7C
:100FF000E450FD4F808161E08F730E947D02FF917C
:10100000EF91DF91CF91BF91AF919F918F917F91A0
:101010006F915F914F913F912F910F900FBE0F9065
:101020001F90189580E49CE9909389008093880034
:101030008FEF80934002E3CF1F920F920FB60F9273
:1010400011242F933F934F935F936F937F938F93CD
:101050009F93AF93BF93EF93FF938091B900887FE5
:10106000803609F44AC0F0F5883209F4A7C018F5B3
:10107000803109F49BC0B8F4882309F4F9C08830A2
:1010800009F494C0FF91EF91BF91AF919F918F911F
:101090007F916F915F914F913F912F910F900FBE74
:1010A0000F901F901895883109F488C0803251F74D
:1010B0008093190214C0803409F49DC040F4803339
:1010C000B9F38833F9F68093190285ECB0C0803506
:1010D00009F485C0883509F496C0883499F60E94D1
:1010E0008606D0CF883909F48CC038F5883729F0C6
:1010F00050F4883611F0803729F683E080931A0285
:101100001092180257C0883809F47BC0803919F052
:10111000803809F0B7CF80911802803208F071C092
:10112000E091180281E08E0F809318028091BB003D
:10113000F0E0E850FE4F80833DC0803B39F0E0F4A2
:10114000803A09F479C0883A09F09CCF84E0809312
:101150001A021092F7011092F601E0914C02F09100
:101160004D0209958091F60181110FC081E08093B5
:10117000F6011092D60109C0803C09F4A6CF883C44
:1011800009F4A3CF883B09F07DCFE091F70181E01E
:101190008E0F8093F701F0E0EA52FE4F808180933A
:1011A000BB009091F7018091F60129C080913F0228
:1011B0008093BB0085EC8093BC0064CF90913E028D
:1011C00080913D02981758F5E0913E0281E08E0F24
:1011D00080933E02F0E0E35EFD4F8081E9CFE09135
:1011E0003E0281E08E0F80933E028091BB00F0E0D2
:1011F000E35EFD4F808390913E0280913D029817FF
:10120000C8F285E8D8CFE0913E0281E08E0F80934E
:101210003E028091BB00F0E0E35EFD4F8083809151
:101220001C0281115CCF81E080931B0284EA8093D1
:10123000BC0010921A0226CF85EC8093BC0010925D
:101240001A0280911802803230F4E0911802F0E026
:10125000E850FE4F10826091180270E0E0914A025F
:10126000F0914B0288EF91E00995109218020ACF95
:101270001092190234CFEF92FF920F931F93CF93E6
:10128000DF93EC017B01198218821B821A821D8276
:101290001C82FB0101900020E9F731978F01061BAA
:1012A000170BB8010E941E0628813981811113C0D5
:1012B0002115310519F0C9010E949811198218826F
:1012C0001D821C821B821A82DF91CF911F910F9188
:1012D000FF90EF9008951D830C83B701C901DF9142
:1012E000CF911F910F91FF90EF900C94F012CF933C
:1012F000DF93109256021092550288EE93E0A0E020
:10130000B0E08093570290935802A0935902B09393
:101310005A022CE231E0309354022093530225EC20
:1013200030E03093600220935F0224EC30E0309391
:1013300062022093610220EC30E03093640220933B
:10134000630221EC30E0309366022093650222ECC8
:1013500030E0309368022093670226EC30E030934F
:101360006A022093690210926C0210926D02109230
:101370006E0210926F021092F3021092F2028093AA
:10138000F4029093F502A093F602B093F7028EE375
:1013900091E09093F1028093F002809120038C30D1
:1013A00008F0B3C091E0980F9093200380935F04FE
:1013B00090E0FC01EE0FFF1FE80FF91FE450FD4F16
:1013C00088EB9BE09283818380E092ECA1E0B0E027
:1013D0008093A2039093A303A093A403B093A503C7
:1013E0001092A9031092A8038AE591E09093A703B5
:1013F0008093A60387E28093AA0380E18093AF03E2
:1014000082E08093B0031092B1030E944603CEE3C2
:10141000D4E0EAEDF3E042EB53E01992119211921D
:10142000DA016D937D938D939D93AD019F01225BB6
:101430003F4FD9011D921C92B3E0EE3EFB0769F7C6
:1014400010925D0410925C0410925E0410923503B9
:10145000109239031092380310923A0380E591E01C
:101460009093340380933303EFE4F3E08BE893E04D
:10147000108214821382158236968E179F07C1F749
:1014800086E091E0909396038093950382E091E04B
:10149000909398038093970384E0809399038093BB
:1014A0009A038AE091E090939403809393038AE0F7
:1014B00090E090939C0380939B0384EF91E0909342
:1014C0009E0380939D031092A1031092A00310929B
:1014D0008F03109290031092910310929203109236
:1014E0009F036DE871E08DE293E00E943B096DE897
:1014F00071E087E293E00E943B0968E671E081E2D7
:1015000093E0DF91CF910C943B098FEF80935F04C0
:101510005BCFCF93DF93CDB7DEB72C970FB6F894A0
:10152000DEBF0FBECDBF789484B5826084BD84B524
:10153000816084BD85B5826085BD85B5816085BDCE
:1015400080916E00816080936E0010928100809186
:10155000810082608093810080918100816080930E
:101560008100809180008160809380008091B10033
:1015700084608093B1008091B00081608093B0005E
:1015800080917A00846080937A0080917A008260F2
:1015900080937A0080917A00816080937A008091B4
:1015A0007A00806880937A001092C100C090A203F4
:1015B000D090A303E090A403F090A50360E079E04D
:1015C0008DE390E0A70196010E94B91021503109E6
:1015D000410951095695479537952795E091630242
:1015E000F091640282E08083C11451EED506E104DB
:1015F000F10421F0211580E13807A8F0E0916302A1
:10160000F0916402108260E874E88EE190E0A70136
:1016100096010E94B910215031094109510956958E
:10162000479537952795E0915F02F09160023083EE
:10163000E0916102F0916202208310926B02E091CE
:101640006702F091680286E08083E0916502F09184
:101650006602808180618083E0916502F09166027C
:10166000808188608083E0916502F09166028081CC
:1016700080688083E0916502F091660280818F7DB1
:10168000808380915E04811189C010925102109272
:10169000500210924F0210924E020E94D50389E12F
:1016A00091E090934D0280934C028AE191E09093F7
:1016B0004B0280934A021092AB038091B0038230B8
:1016C00018F098E09093AB038093AE0362E370E070
:1016D00080E090E00E9414036091B10386EA93E0F9
:1016E0000E949A0468EE73E080E090E00E94140388
:1016F00060E386EA93E00E9485050BE416E4C801E6
:101700000197F1F760E386EA93E00E948505C8013E
:101710000197F1F760E386EA93E00E94850583E58F
:1017200092E00197F1F760E286EA93E00E94850576
:101730006091AB03606240E086EA93E00E949E0500
:1017400084E08093AC0340E06CE086EA93E00E9482
:101750009E0540E061E086EA93E00E949E050BE36F
:101760001FE1C8010197F1F782E08093AD0340E0EB
:1017700066E086EA93E00E949E0540E062E086EA29
:1017800093E00E949E05C8010197F1F788E08093DD
:10179000B10360E086EA93E00E949A041092B103DC
:1017A00060E086EA93E00E949A046DE671E090E0C2
:1017B00080E00E94BB0580915F048C3008F051C02E
:1017C00061E083E00E94AF0280915F04282F30E047
:1017D000F901EE0FFF1FE20FF31FE450FD4F908160
:1017E000907C9360908310926004109261042CE0CE
:1017F000622F0E94EA10829FB001112430E020E0A5
:10180000AB01420F531FFA01EE0FFF1FE40FF51F4C
:10181000E450FD4F908196FD16C02F5F3F4F2C3056
:10182000310571F781110FC01092800082E0809322
:1018300081001092850010928400B19A80916F000F
:10184000826080936F00E0915F048E2F90E0FC0136
:10185000EE0FFF1FE80FF91FE450FD4F80818064F9
:10186000808390E080E00E948D0061E089E00E942A
:10187000AF0222242394312C08E8402E03E1502E9D
:10188000612C712C0E9446034B015C01AAEDB3E070
:10189000BC83AB8302EA13E01C870B87FD011A8629
:1018A0001986AF0142595F4FDA011D921C922081C7
:1018B00031813296232BD9F1AB85BC8550964D9161
:1018C0005D916D917C9153979D01245B3F4FD901B0
:1018D000CD90DD90ED90FC90D501C401841B950B5B
:1018E000A60BB70B8C159D05AE05BF0500F14C0D81
:1018F0005D1D6E1D7F1DAB85BC8550964D935D9320
:101900006D937C93539729853A85225C3B4FD9018F
:101910002C91222361F022AD33AD2115310509F060
:101920005DC09F0124593F4FD9012D923C92A9855A
:10193000BA851196BA87A9878B859C8504969C8762
:101940008B871A9709F0ADCFD12CC12C780196EA7C
:10195000E90EF11CD7018D919C918130910509F41C
:101960005EC0029709F461C0BFEFCB1ADB0A0E5FBD
:101970001F4FEAE0CE16D10449F781E080939F0320
:101980000E94460300918F031091900320919103D0
:1019900030919203AB01BC01401B510B620B730BE6
:1019A00080919B0390919C03B0E0A0E08417950781
:1019B000A607B70708F098C110E08091990318179F
:1019C00008F064C0E0919503F0919603E10FF11DDA
:1019D00062E080810E94AF021F5FEFCF6F01BEE423
:1019E000CB0ED11CD601ED90FC90E216F3060CF064
:1019F0009ECFAF0144595F4FDA012D923C92BFEF69
:101A0000EB1AFB0AD601ED92FC92E216F3060CF4F7
:101A10008ECF82E090E0DA018D939C9388CFD8013D
:101A2000D896ED91FC9109959FCFD801D896ED916C
:101A3000FC91099580915C0490915D04009709F4F4
:101A400093CFF80120AD31AD232B09F48DCF11AE2A
:101A500010AEF601E25CFB4F1082D7011D921C9282
:101A6000F601EE0FFF1FEE0FFF1FE251FC4F108239
:101A7000118212821382F801E857FF4F11821082FF
:101A8000019790935D0480935C046ECF912C8091BC
:101A90009A03981608F063C0E92CF12CE0919703A3
:101AA000F0919803EE0DFF1D61E080810E94AF026E
:101AB000E0919703F0919803EE0DFF1D60E08081A7
:101AC0000E947D0281E090E0A0E0B0E0092C04C01B
:101AD000880F991FAA1FBB1F0A94D2F75C016C01E3
:101AE000C094D094812C80919903881608F5082D14
:101AF00010E0E0919503F0919603E00FF11F8081D3
:101B00000E9451020C5F1F4F000F111FF801ED5C86
:101B1000FC4F892B41F4808191818A299B299183F3
:101B200080838394E0CF808191818C219D21F7CFA8
:101B3000E0919703F0919803EE0DFF1D61E0808125
:101B40000E947D028091970390919803E80EF91E00
:101B500060E0D7018C910E94AF02939498CF03E389
:101B600013E07801F701878D90A1892B31F4148E51
:101B70008FEF9FEF968F858F11A296E0E90EF11CF3
:101B8000AFE6B3E0AE15BF0569F7B12C80919903BC
:101B9000B81608F053C0A12CCB2CD12CCC0CDD1CDA
:101BA000F601E55CFC4F6F0120919A03A21608F044
:101BB00043C0D6016D917C910A2C02C07695679541
:101BC0000A94E2F7B29E900111242A0D311DE3E33D
:101BD000F3E080E0458D568D2417350709F455C193
:101BE0008F5F36968A30B1F760FF24C0E3E3F3E0FD
:101BF00090E080E0448D411118C0E0919303F09192
:101C00009403E20FF31F4081B6E0B89FF001B99F43
:101C1000F00D1124ED5CFC4F448F368F258F10A200
:101C2000178E61E00E94520305C0019636968A30F5
:101C3000910501F7A394B8CFB394A8CFD12CF801A4
:101C400081A18111D82E0A5F1F4F0E151F05B9F70C
:101C50000E94460360938F037093900380939103D7
:101C600090939203DD2009F43FC0809154038823B0
:101C7000D9F180915203909153030197A9F5809176
:101C80004F038A3209F03FC081E0809352028DE217
:101C900093E00E94460687E293E00E944606809108
:101CA0005C0490915D040A9784F410E000E0AB813D
:101CB000BC818D919D91BC83AB83892B09F4E7C0D6
:101CC0000F5F1F4F0A30110591F70FEF1FEF1093B1
:101CD00001010093000188E08093B10360E086EA8F
:101CE00093E00E949A0402C010929F0380E090E06B
:101CF000892B09F4C7CD0E948501882309F4C2CD40
:101D00000E940000BFCD833209F054C04DE050E086
:101D10006DE771E083E592E00E941B014091310381
:101D20005091320360912D0370912E0383E592E070
:101D30000E941B0142E050E06BE871E083E592E015
:101D40000E941B01209131033091320380912503C1
:101D50009091260328173907C1F480912D039091A3
:101D60002E036091210370912203009709F4FDC0B6
:101D70006115710539F4232B09F405C1DC018C913F
:101D800090E0FEC00E94E712FBC061E089E00E9483
:101D90007D0268EC70E080E090E00E94140360E057
:101DA00089E00E947D0264E670E080E090E00E949D
:101DB00014031DC1882309F499CF909152029923ED
:101DC00009F494CF89831A82009131031091320370
:101DD0000F5F1F4FB8018DE293E00E941E0688231B
:101DE00099F020912D0330912E0380913103909131
:101DF0003203BE016F5F7F4F820F931F0E94F0126C
:101E000010933203009331038AE289831A8200918E
:101E10002B0310912C030F5F1F4FB80187E293E053
:101E20000E941E06882399F02091270330912803F1
:101E300080912B0390912C03BE016F5F7F4F820F27
:101E4000931F0E94F01210932C0300932B036091B8
:101E500027037091280381E090E00E94BB05009168
:101E60000001109101010A3011050CF03FCF0E94D2
:101E70004603000F111F000F111FF801EE55FC4F14
:101E8000608B718B828B938B31CF6170CBCEF801DD
:101E9000EE0FFF1FEE0FFF1FE252FC4F408A518AE8
:101EA000628A738AF801EE0FFF1FE653FC4F89E642
:101EB00096E0918B808BF801EE0FFF1FEA5FFB4FDE
:101EC000318A208A81E0F801E25CFB4F80830E9426
:101ED0004603F801EE0FFF1FEE0FFF1FEE55FC4FFC
:101EE000608B718B828B938B80915C0490915D04ED
:101EF000019690935D0480935C04E9CEF801EE0FA7
:101F0000FF1FEE0FFF1FE252FC4F408A518A628A88
:101F1000738AF801EE0FFF1FE653FC4F85E191E055
:101F2000918B808BF801EE0FFF1FEA5FFB4F318A28
:101F3000208A81E0F801E25CFB4F80830E94460327
:101F4000F801EE0FFF1FEE0FFF1FEE55FC4F608BE9
:101F5000718B828B938B80915C0490915D040196D0
:101F600090935D0480935C043EC06115710559F047
:101F7000232B49F0FB01808190E091958195910997
:101F8000892B09F002CF8AE590E00E948D00009134
:101F90000001109101010A3011056CF40E94460302
:101FA000000F111F000F111FF801EE55FC4F608B41
:101FB000718B828B938B80915C0490915D040A9766
:101FC00084F410E000E0EB81FC8181919191FC832D
:101FD000EB83892B09F492CF0F5F1F4F0A30110555
:101FE00091F70FEF1FEF1093010100930001109282
:101FF00052026DE871E081E090E00E94BB058091A3
:102000000001909101018A309105ACF520915C04AA
:1020100030915D042115310571F1FC01EE0FFF1FB8
:10202000E653FC4F40895189452B29F1118A108ACA
:10203000FC01E25CFB4F1082FC01EE0FFF1FE85C2D
:10204000FB4F118A108AFC01EE0FFF1FEE0FFF1FDE
:10205000E252FC4F108A118A128A138A880F991F44
:10206000FC01E65EFB4F118A108A21503109309342
:102070005D0420935C048FEF9FEF909301018093A8
:1020800000011092B1032ACE81E293E00E9416066D
:1020900087E293E00E9416068DE293E00C94160608
:1020A000052E97FB1EF400940E94671057FD07D081
:1020B0000E94B91007FC03D04EF40C9467105095A1
:1020C0004095309521953F4F4F4F5F4F0895909524
:1020D0008095709561957F4F8F4F9F4F08950E9417
:1020E000DB10A59F900DB49F900DA49F800D911DB6
:1020F00011240895B7FF0C946F100E946F10821B7B
:10210000930B08952F923F924F925F926F927F921E
:102110008F929F92AF92BF92CF92DF92EF92FF92F7
:102120000F931F93CF93DF93CDB7DEB7CA1BDB0BA3
:102130000FB6F894DEBF0FBECDBF09942A88398848
:1021400048885F846E847D848C849B84AA84B9844F
:10215000C884DF80EE80FD800C811B81AA81B9815B
:10216000CE0FD11D0FB6F894DEBF0FBECDBFED016F
:102170000895A1E21A2EAA1BBB1BFD010DC0AA1FC8
:10218000BB1FEE1FFF1FA217B307E407F50720F0E0
:10219000A21BB30BE40BF50B661F771F881F991F5B
:1021A0001A9469F760957095809590959B01AC01A4
:1021B000BD01CF010895A29FB001B39FC001A39FAD
:1021C000700D811D1124911DB29F700D811D112470
:1021D000911D0895991B79E004C0991F961708F086
:1021E000961B881F7A95C9F780950895EE0FFF1FFB
:1021F0000590F491E02D09940F931F93CF93DF93F3
:102200008230910510F482E090E0E0916404F09156
:10221000650430E020E0B0E0A0E0309799F42115AB
:10222000310509F44AC0281B390B24303105D8F593
:102230008A819B816115710589F1FB0193838283FA
:10224000FE0111C040815181028113814817590755
:10225000E0F04817590799F4109761F012960C9323
:10226000129713961C933296CF01DF91CF911F9155
:102270000F9108950093640410936504F4CF211521
:10228000310551F04217530738F0A901DB019A01DB
:10229000BD01DF01F801C1CFEF01F9CF90936504D3
:1022A00080936404CDCFFE01E20FF31F81939193DD
:1022B0002250310939832883D7CF2091620430918D
:1022C0006304232B41F420911C0130911D013093B4
:1022D00063042093620420911A0130911B0121159F
:1022E000310541F42DB73EB740911E0150911F01B9
:1022F000241B350BE0916204F0916304E217F307AD
:10230000A0F42E1B3F0B2817390778F0AC014E5F65
:102310005F4F2417350748F04E0F5F1F509363043B
:1023200040936204819391939FCFF0E0E0E09CCFD3
:10233000CF93DF930097E9F0FC013297138212826A
:10234000A0916404B0916504ED0130E020E01097A5
:10235000A1F420813181820F931F2091620430917A
:1023600063042817390709F061C0F0936304E09310
:102370006204DF91CF910895EA01CE17DF07E8F5F7
:102380004A815B819E0141155105B1F7E901FB834B
:10239000EA8349915991C40FD51FEC17FD0761F4E9
:1023A000808191810296840F951FE901998388832A
:1023B000828193819B838A83F0E0E0E012968D9185
:1023C0009C9113970097B9F52D913C911197CD01F0
:1023D0000296820F931F20916204309163042817A4
:1023E000390739F6309751F510926504109264045C
:1023F000B0936304A0936204BCCFD383C2834081B3
:102400005181840F951FC817D90761F44E5F5F4F44
:1024100088819981480F591F518340838A819B810C
:10242000938382832115310509F0B0CFF0936504C1
:10243000E09364049ECFFD01DC01C0CF13821282C1
:10244000D7CFB0E0A0E0E7E2F2E10C9484108C0179
:10245000009751F4CB010E94FC108C01C801CDB74C
:10246000DEB7E0E10C94A010FC01E60FF71F9C0121
:1024700022503109E217F30708F49DC0D901CD912C
:10248000DC911197C617D70798F0C530D10530F306
:10249000CE0104978617970708F3C61BD70B229720
:1024A000C193D1936D937C93CF010E949811D6CFA5
:1024B0005B01AC1ABD0A4C018C0E9D1EA0916404F8
:1024C000B0916504512C412CF12CE12C109731F581
:1024D00080916204909163048815990509F05CC0AD
:1024E0004616570608F058C080911A0190911B01BA
:1024F000009741F48DB79EB740911E0150911F0186
:10250000841B950BE817F90708F055C0F093630496
:10251000E0936204F90171836083A0CF8D919C9157
:10252000119712966C90129713967C901397A8159A
:10253000B90559F56C0142E0C40ED11CCA14DB0484
:1025400020F1AC014A195B09DA011296159780F067
:102550006282738251834083D9016D937C93E1142D
:10256000F10471F0D7011396FC93EE93129776CF96
:1025700022968C0F9D1FF90191838083F301EFCF89
:10258000F0936504E093640469CF4816590608F493
:102590002C017D01D3019ACFCB010E94FC107C015C
:1025A000009749F0AE01B8010E94DE12C8010E94F6
:1025B0009811870153CF10E000E050CFFB01DC0100
:1025C00002C001900D9241505040D8F70895FB0190
:1025D000DC018D91019080190110D9F3990B0895B8
:1025E000FB01DC0101900D920020E1F70895AEE0BF
:1025F000B0E0EDEFF2E10C9490100D891E8986E0B9
:102600008C831A8309838FEF9FE79E838D83AE01AE
:10261000475E5F4F6F89788DCE0101960E941A1335
:102620002F813885020F131FF80110822E96E4E0E7
:102630000C94AC10ABE0B0E0E0E2F3E10C9482105B
:102640007C013B018A01FC0117821682838181FF94
:10265000C8C1CE0101965C01F7019381F30193FD9E
:10266000859193FF81913F01882309F453C18532FD
:1026700039F493FD859193FF81913F01853229F4CF
:10268000B70190E00E940A15E7CF912C212C312C44
:10269000FFE1F31538F08B3211F190F4803209F13B
:1026A000833229F137FC3CC020ED280F2A3050F549
:1026B00036FE20C08AE0989E200D1124922E06C07E
:1026C0008D3291F0803371F7689430F8F30193FD07
:1026D000859193FF81913F018111DACF21C06894E8
:1026E00031F8689432F8F2CF689433F8EFCF6894F9
:1026F00034F8ECCFEAE02E9E200D1124222E6894AF
:1027000035F8E4CF8E3229F436FC04C1689436F8EB
:10271000DDCF8C3619F4689437F8D8CF8836B1F20B
:10272000982F9F7D95549330E0F08336A1F1833745
:10273000C1F1833509F063C02801F2E04F0E511C4E
:10274000F801C080D180692D70E036FC02C06FEFC7
:102750007FEFC6010E94F4144C01689437F882019F
:102760000AC00C5F1F4FFFE3F98388248394912CE8
:102770006501E89437F833FE2DC0522C8114910482
:1027800071F5552009F468CFB70180E290E00E940E
:102790000A155A94F6CFF801808189830E5F1F4F86
:1027A000E4CF2801F2E04F0E511CF801C080D18027
:1027B000692D70E036FC02C06FEF7FEFC6010E940A
:1027C000FF144C018201D5CFB70180E290E00E9456
:1027D0000A152A942814190409F0B0F7CECFF6018F
:1027E00037FC859137FE81916F01B70190E00E941F
:1027F0000A1551105A94F1E08F1A9108BFCF843610
:1028000019F0893609F077C0F80137FE6BC0608196
:102810007181828193810C5F1F4FF32DFF763F2ED4
:1028200097FF09C090958095709561957F4F8F4F68
:102830009F4F689437F82AE030E0A5010E943A15CE
:10284000C82ECA188C2C432C36FE0CC0E89440F8D5
:10285000C91440F434FE05C032FC03C0F32DFE7EE3
:102860004F2E892C44FE95C0FE01EC0DF11D808198
:10287000803309F087C0242D297E422E842D887054
:10288000582E43FC95C040FE8FC09C2C821418F437
:102890002C0C922C981844FE91C0B70180E390E074
:1028A0000E940A1542FE09C088E790E041FE02C07E
:1028B00088E590E0B7010E940A15C91408F48AC09F
:1028C000CA94D12C9FEFC91AD90ACA0CDB1CF60195
:1028D00082916F01B70190E00E940A15AC14BD040B
:1028E000B1F74FCF60817181072E000C880B990BD7
:1028F0000E5F1F4F92CFD32CE894D4F82AE030E03B
:10290000853739F1232D297FD22E8F3601F148F4F6
:102910008835A9F0F701868197812B96E2E10C9426
:102920009E10803749F08837A9F7D4FE02C068941A
:10293000D2F820E130E00DC06894D4F8F6CF34FE30
:1029400003C0822F8660D82E20E132E002C028E04A
:1029500030E0F801D7FE0FC06081718182819381E0
:102960000C5F1F4FA5010E943A15C82ECA183D2CB6
:10297000E89437F867CF6081718190E080E00E5F66
:102980001F4FF0CF42FC02C0839478CF839483948E
:1029900075CF842D867809F471CFF6CFB70180E228
:1029A00090E00E940A1583948214C0F3512C73CFD7
:1029B000522C5818821408F46ECFF8CF842D8678E4
:1029C00009F47BCF8BE241FE80E247FC8DE2B70148
:1029D00090E071CFB70180E390E00E940A159A94CD
:1029E0006CCF8FEF9FEF99CFFC0105906150704045
:1029F0000110D8F7809590958E0F9F1F0895FC01C8
:102A00006150704001900110D8F7809590958E0F1D
:102A10009F1F08950F931F93CF93DF93182F092FB4
:102A2000EB018B8181FD09C01FEF0FEF812F902FEC
:102A3000DF91CF911F910F91089582FF14C02E81D5
:102A40003F818C819D81281739073CF4E881F98109
:102A5000CF0101969983888310838E819F8101968F
:102A60009F838E83E3CFE885F985812F0995892B94
:102A7000A1F3DACFFA01AA27283051F1203181F1F0
:102A8000E8946F936E7F6E5F7F4F8F4F9F4FAF4F76
:102A9000B1E03ED0B4E03CD0670F781F891F9A1F89
:102AA000A11D680F791F8A1F911DA11D6A0F711D3D
:102AB000811D911DA11D20D009F468943F912AE049
:102AC000269F11243019305D3193DEF6CF01089531
:102AD000462F4770405D4193B3E00FD0C9F7F6CF62
:102AE000462F4F70405D4A3318F0495D31FD40522A
:102AF000419302D0A9F7EACFB4E0A69597958795C0
:102B000077956795BA95C9F700976105710508959E
:102B10009B01AC010A2E069457954795379527954A
:102B2000BA95C9F7620F731F841F951FA01D0895E2
:102B300010E0C2E6D0E004C0FE010E94F61021962B
:0A2B4000C336D107C9F7F894FFCFA0
:102B4A00FFFF08090A0B0706050431323341343501
:102B5A003642373839432A3023440000660480005D
:102B6A00000040001400540000000000BB011B01DB
:102B7A0048010802790157016B01000000006B044B
:102B8A003E048205140437042404150400000000DE
:102B9A00EB02AB027A0200000000B5051B018205B8
:102BAA008105252D3136730032333435005B5B4B9A
:102BBA00657970616420546573745D5D00EC9E856F
:0E2BCA00EBA0A5EC9984EBA38C3A000D0A0059
:00000001FF
