:020000040000FA
:100000000C9462000C94500C0C94290C0C948A00F3
:100010000C948A000C948A000C948A000C948A0038
:100020000C948A000C948A000C948A000C94960D0F
:100030000C948A000C948A000C948A000C948A0018
:100040000C94DF0B0C948A000C94AD0B0C94870B72
:100050000C948A000C948A000C948A000C948A00F8
:100060000C94770C0C948A000000000025002800F6
:100070002B000000000023002600290000000008DB
:10008000000201000003040700000000000000005F
:1000900000000000240027002A00010204081020AC
:1000A000408001020408102001020408102004040A
:1000B0000404040404040202020202020303030310
:1000C0000303520E11241FBECFEFD8E0DEBFCDBF19
:1000D00011E0A0E0B1E0E0EEFCE202C005900D927C
:1000E000AA38B107D9F724E0AAE8B1E001C01D920F
:1000F000AD3BB207E1F710E0C2E6D0E004C02197C3
:10010000FE010E94C713C136D107C9F70E94770FBD
:100110000C946E160C9400008F929F92AF92BF9237
:10012000FF920F931F93CF93DF93F090E5032BE0A3
:100130002F1508F44CC02091E70308E512E0021BDC
:10014000110927FD1395000F111F000F111F20919A
:10015000E603C8E8D0E0C21BD10927FDD395CC0F38
:10016000DD1FCC0FDD1F4E010D2E000CAA08BB08B1
:100170009801012E000C440B550B281939094A0926
:100180005B09DC010E944B1324EB30E040E050E0BF
:100190000E942113820E931EA41EB51E8C169D066E
:1001A0002CF0E801801691060CF4E4012297CC0FA4
:1001B000DD1F2FB7F8948F2D90E0FC01EE0FFF1F8D
:1001C000E80FF91FED5FFC4FD283C1832FBFDF9192
:1001D000CF911F910F91FF90BF90AF909F908F9004
:1001E0000895CF92DF92EF92FF926B017C01E09134
:1001F0006A02F0916B0282E08083C11481EED8061E
:10020000E104F104A1F060E079E08DE390E0A70162
:1002100096010E948A1321503109410951095695CE
:10022000479537952795211580E13807A8F0E0918B
:100230006A02F0916B02108260E874E88EE190E04F
:10024000A70196010E948A132150310941095109E1
:100250005695479537952795E0916602F09167028C
:100260003083E0916802F09169022083109272025B
:10027000E0916E02F0916F0286E08083E0916C0263
:10028000F0916D02808180618083E0916C02F09139
:100290006D02808188608083E0916C02F0916D0234
:1002A000808180688083E0916C02F0916D02808192
:1002B0008F7D8083FF90EF90DF90CF9008958CBD6D
:1002C0009DBD089508950895AF92BF92CF92DF9299
:1002D000EF92FF920F931F93CF93DF936C017B01FB
:1002E0008B01040F151FEB015E01AE18BF08C0178C
:1002F000D10759F06991D601ED91FC910190F081FF
:10030000E02DC6010995892B79F7C501DF91CF91C1
:100310001F910F91FF90EF90DF90CF90BF90AF9023
:100320000895FC01538D448D252F30E0842F90E0FB
:10033000821B930B541710F0CF96089501970895E0
:10034000FC01918D828D981761F0A28DAE0FBF2FA9
:10035000B11D5D968C91928D9F5F9F73928F90E0FF
:1003600008958FEF9FEF0895FC01918D828D98176E
:1003700031F0828DE80FF11D858D90E008958FEFAB
:100380009FEF0895FC01918D228D892F90E0805C74
:100390009F4F821B91098F73992708958AE592E0F8
:1003A0000E94C20121E0892B09F420E0822F0895E8
:1003B00080E090E0892B29F00E94CE0181110C94FD
:1003C00000000895FC01A48DA80FB92FB11DA35AF8
:1003D000BF4F2C91848D90E001968F739927848F65
:1003E000A689B7892C93A089B1898C918370806488
:1003F0008C93938D848D981306C00288F389E02D29
:1004000080818F7D80830895EF92FF920F931F93D9
:10041000CF93DF93EC0181E0888F9B8D8C8D9813B7
:100420001AC0E889F989808185FF15C09FB7F894C3
:10043000EE89FF896083E889F9898081837080640F
:1004400080839FBF81E090E0DF91CF911F910F915A
:10045000FF90EF900895F62E0B8D10E00F5F1F4F69
:100460000F731127E02E8C8D8E110CC00FB607FC78
:10047000FACFE889F989808185FFF5CFCE010E9406
:10048000E201F1CFEB8DEC0FFD2FF11DE35AFF4F91
:10049000F0829FB7F8940B8FEA89FB898081806294
:1004A000CFCFCF93DF93EC01888D8823B9F0AA8951
:1004B000BB89E889F9898C9185FD03C0808186FD1F
:1004C0000DC00FB607FCF7CF8C9185FFF2CF80816E
:1004D00085FFEDCFCE010E94E201E9CFDF91CF9100
:1004E0000895833081F028F4813099F08230A9F0AA
:1004F00008958730A9F08830C9F08430B1F4809134
:1005000080008F7D03C0809180008F778093800072
:10051000089584B58F7784BD089584B58F7DFBCF12
:100520008091B0008F778093B00008958091B000E3
:100530008F7DF9CFCF93DF93282F30E0F901E45876
:10054000FF4F8491F901E656FF4FD491F901E2552E
:10055000FF4FC491CC23A1F081110E947102EC2FB6
:10056000F0E0EE0FFF1FEE58FF4FA591B491EC9114
:10057000ED2381E090E009F480E0DF91CF910895D0
:1005800080E090E0FACF1F93CF93DF93282F30E0E5
:10059000F901E458FF4F8491F901E656FF4FD491D9
:1005A000F901E255FF4FC491CC23A9F0162F811118
:1005B0000E947102EC2FF0E0EE0FFF1FE859FF4F91
:1005C000A591B4918FB7F894EC91111108C0D09512
:1005D000DE23DC938FBFDF91CF911F910895DE2B37
:1005E000F8CFCF93DF9390E0FC01E656FF4F2491C4
:1005F00082559F4FFC0184918823C9F090E0880FB9
:10060000991FFC01E057FF4FA591B491FC01E859F7
:10061000FF4FC591D49161110DC09FB7F8948C9193
:10062000209582238C938881282328839FBFDF9184
:10063000CF910895623051F49FB7F8943C91822F86
:10064000809583238C93E8812E2BEFCF8FB7F8947E
:10065000EC912E2B2C938FBFEACF3FB7F89480916B
:10066000420290914302A0914402B091450226B506
:10067000A89B05C02F3F19F00196A11DB11D3FBFDA
:10068000BA2FA92F982F8827BC01CD01620F711DA9
:10069000811D911D42E0660F771F881F991F4A95A3
:1006A000D1F708958F929F92AF92BF92CF92DF922F
:1006B000EF92FF926B017C010E942D034B015C01C4
:1006C000C114D104E104F104B9F00E942D036819AA
:1006D00079098A099B09683E73408105910580F379
:1006E00021E0C21AD108E108F10888EE880E83E003
:1006F000981EA11CB11CE4CFFF90EF90DF90CF902B
:10070000BF90AF909F908F9008952FB7F89460910D
:100710003E0270913F0280914002909141022FBFB2
:10072000089508952091F301260F3327331F2132B6
:100730003105ECF420911702FC0190E080E02430B8
:1007400069F082E00895A091F3012191AC014D522E
:100750005E4FA40FB52FB11D2C930196861798F309
:100760008091F301680F6093F30180E0089581E0C8
:1007700008951092170281E08093190210921802D6
:1007800061E082E10E94C30261E083E10E94C30252
:10079000E9EBF0E080818E7F808380818D7F808394
:1007A00088E48093B80085E48093BC000895CF93DB
:1007B000DF9391E09093D2018823B9F0C091B80003
:1007C000D091BA008091BC008A7B8093BC0060E02D
:1007D00082E10E94C30260E083E10E94C3020E94A2
:1007E000B903D093BA00C093B800DF91CF910895B8
:1007F0000895E0914D0280914C02E81730F4F0E04A
:10080000E355FE4F808190E008958FEF9FEF0895AC
:1008100090914D0280914C022FEF3FEF981748F4D2
:10082000E92FF0E0E355FE4F208130E09F5F909389
:100830004D02C901089580914C0290914D02891B8F
:10084000990B0895CF92DF92EF92FF920F931F932F
:10085000CF93DF937C01CB018A012091AC0122234D
:1008600089F0EB016B01C40ED51ECC15DD0569F0D6
:100870006991D701ED91FC910190F081E02DC701C4
:100880000995F3CF642F0E949203C801DF91CF91A5
:100890001F910F91FF90EF90DF90CF900895CF932D
:1008A000DF931F92CDB7DEB769832091AC0122237D
:1008B000F9F020914A02203258F021E030E0FC01AA
:1008C0003383228390E080E00F90DF91CF910895F1
:1008D00080914B02E82FF0E0E457FE4F998190831E
:1008E0008F5F80934B0280934A0281E090E0ECCFCF
:1008F00061E0CE0101960E949203F7CFCF92DF9282
:10090000EF92FF920F931F93CF93DF93FC01C4816B
:1009100021E02093AC01C0938B0110924B02109206
:100920004A028385682B87EF92E00E944F04D091A2
:100930004A02D13208F092C00E942D036B017C0163
:1009400080911702811165C082E08093170281E0D7
:10095000809319028FEF8093160210923B02D0937E
:100960003A02ACE8B1E0EAE1F2E080E0D81385C0F9
:1009700010923C0280913C02CC0FC82BC0933C02E9
:1009800080911802813009F07CC0109218020E94F8
:100990002D036B017C0180913C028093BB00809110
:1009A000CE019091CF01A091D001B091D101892BBE
:1009B0008A2B8B2B99F00E942D030091CE01109170
:1009C000CF012091D0013091D1016C197D098E09A0
:1009D0009F090617170728073907E0F18091BC0027
:1009E00083FDD9CF85EC8093BC000E942D036B0161
:1009F0007C0180911702823009F445C08091160273
:100A00008F3F61F180911602803241F18091160290
:100A100025C08091CE019091CF01A091D001B091DD
:100A2000D101892B8A2B8B2B09F48ACF0E942D03AD
:100A30000091CE011091CF012091D0013091D101D0
:100A40006C197D098E099F090617170728073907B2
:100A500008F076CF8091CD010E94D70310924B020F
:100A600010924A021092AC01DF91CF911F910F9129
:100A7000FF90EF90DF90CF9008959D9191938F5FBD
:100A800075CF85EEB0CF8091CE019091CF01A0912E
:100A9000D001B091D101892B8A2B8B2B09F4A9CFDE
:100AA0000E942D030091CE011091CF012091D00121
:100AB0003091D1016C197D098E099F09061717071E
:100AC0002807390708F095CFC5CF089590E080E05A
:100AD00008952F923F924F925F926F927F928F92E2
:100AE0009F92AF92BF92CF92DF92EF92FF920F93BD
:100AF0001F93CF93DF9300D000D0CDB7DEB78C012A
:100B00000E9485034B015C01F801B8961C830B839E
:100B10001A83098390E080E022242394312C9F01E2
:100B200022593F4FD9011D921C922081318132966A
:100B3000232BB1F1A981BA814D915D916D917C9189
:100B40001397DC96CD90DD90ED90FC90DF9724011B
:100B50003501441A550A660A770A4C145D046E047E
:100B60007F04F0F04C0D5D1D6E1D7F1D4D935D9358
:100B70006D937C9313979C0124573F4F200F311F97
:100B8000D9012C91222361F022AD33AD211531051D
:100B900009F049C09F0124593F4FD9012D923C9241
:100BA0000196A981BA811496BA83A9838A309105E6
:100BB00009F0B5CFF12CE12C6801BAEACB0ED11CBB
:100BC000AB80BC80E6E9AE0EB11CD5018D919C9145
:100BD0008130910509F448C0029709F44CC0FFEF39
:100BE000EF1AFF0A2B813C812E5F3F4F3C832B8302
:100BF0003AE0E316F10421F70F900F900F900F9059
:100C0000DF91CF911F910F91FF90EF90DF90CF90E8
:100C1000BF90AF909F908F907F906F905F904F901C
:100C20003F902F9008956F01BEE4CB0ED11CD601EA
:100C3000ED90FC90E216F3060CF0B2CFAF014459F0
:100C40005F4FDA012D923C92BFEFEB1AFB0AD601FF
:100C5000ED92FC92E216F3060CF4A2CF22E030E013
:100C6000DA012D933C939CCFAB81BC819896ED919A
:100C7000FC910995B4CFAB81BC819896ED91FC9124
:100C80000995F60180819181009709F4A8CFAB8185
:100C9000BC8198962D913C919997232B09F49FCF75
:100CA00099961C921E92989798012E0D3F1DF9015E
:100CB000E457FF4F1082F50111821082A701440F03
:100CC000551F4E0D5F1D240F351FD901DC961D9257
:100CD0001D921D921C92DF97EB81FC81E858FF4F1B
:100CE000118210820197F6019183808378CFBC0135
:100CF0006E5F7F4FDC01ED91FC910190F081E02D62
:100D000040E0099591E0811190E0892F08950895C0
:100D10008EBD00000DB407FEFDCF8EB50895DF92A5
:100D2000EF92FF920F931F93CF93DF937C01062FD7
:100D3000D42E152F80E590E00E945F0160E0F7015E
:100D400086850E94C30282E10E948806CD2DD12FA4
:100D50000C0F1D2F111DC017D10721F089910E9482
:100D60008806F9CF61E0F7018685DF91CF911F9169
:100D70000F91FF90EF90DF900C94C3021F93CF93DD
:100D8000DF93EC01162F80E590E00E945F0160E0A8
:100D90008E850E94C302812F80680E94880680E0B1
:100DA0000E948806182F61E08E850E94C302812F61
:100DB000DF91CF911F9108950F931F93CF93DF93EE
:100DC000EC01062F142F80E590E00E945F0160E0A7
:100DD0008E850E94C302802F0E948806812F0E9468
:100DE000880661E08E85DF91CF911F910F910C9461
:100DF000C302CF92DF92EF92FF920F931F93CF9394
:100E0000DF93EC016B01F42E890140E062E00E9467
:100E1000DC0644E06AE0CE010E94DC0640E864E1C2
:100E2000CE010E94DC06A6016F2DCE010E948F0626
:100E300043E062E0CE010E94DC060E9485036B0164
:100E40007C0129E5C20ED11CE11CF11C6AE0CE0137
:100E50000E94BE0682FF1BC040E062E0CE010E94FD
:100E6000DC0664E4CE010E94BE06F801808362E4E1
:100E7000CE010E94BE06F801818380E0DF91CF9110
:100E80001F910F91FF90EF90DF90CF9008950E94F7
:100E900085036C157D058E059F05C0F283E0EECFBE
:100EA0002F923F924F925F926F927F928F929F927A
:100EB000AF92CF92DF92EF92FF920F931F93CF9357
:100EC000DF9300D0CDB7DEB74C012B01D42E390112
:100ED00080E0E114F10411F0F70180813C2C3294A0
:100EE00090EF3922380E40E062E0C4010E94DC0637
:100EF0004FE768E0C4010E94DC0640E864E1C401F9
:100F00000E94DC06A2016D2DC4010E948F06432DB4
:100F10006AE1C4010E94DC064CE062E0C4010E9468
:100F2000DC066AE1C4010E94BE06482F40686AE1FF
:100F3000C4010E94DC060E9485031B012C01F4E21F
:100F40002F0E311C411C511C68E0C4010E94BE06DA
:100F5000982F907309F0B7C080FF15C083E00F9001
:100F60000F90DF91CF911F910F91FF90EF90DF9045
:100F7000CF90AF909F908F907F906F905F904F90A9
:100F80003F902F9008950E94850362157305840594
:100F90009505D0F2E3CF6114710409F469C001151D
:100FA000110509F465C064E1C4010E94BE06382E33
:100FB000F8018081831508F480C030823320E1F18C
:100FC00080E590E00E945F0160E0F40186850E9468
:100FD000C3023A9482E90E948806CC20B1F08FEFD8
:100FE00090E09C0102C0220F331FCA94E2F769010E
:100FF00082E90E9488069C2D9095F301208192231E
:101000008C21982B9083CC24C39423014C0C511C2D
:10101000C31440F482E90E948806F20181932F01F3
:10102000C394F6CF80E00E948806F201808361E0DD
:10103000F40186850E94C30268E1C4010E94BE06D5
:101040008770E114F10411F0F701808323FC37C0AD
:1010500061147104B1F10115110599F1AA2089F10A
:10106000F8014081413031F4843029F58FEF77CF9A
:1010700080E0ECCF4230F8F081111DC042509E015B
:101080002F5F3F4FB301C4010E94F906811167CF62
:10109000F8019081690E711CF301329720819981CA
:1010A000291309C0F1E06F1A7108F30120819A81B8
:1010B000291709F454CF87E052CF84E050CF82E063
:1010C0004ECF80E04CCF6CE0C4010E94BE06282EBB
:1010D000837109F460CF81E042CF8F929F92AF92EB
:1010E000CF92EF92FF920F931F93CF93DF9300D095
:1010F00000D01F92CDB7DEB74C0182E08D8340E077
:1011000064E2C4010E94DC0640E066E2C4010E9481
:10111000DC0646E268E4C4010E94DC0686E28B83BA
:101120008D818230D8F16CE1C4010E94BE06482F47
:101130004F776CE1C4010E94DC0687E08C83A12C10
:10114000C12CCE0104967C018E010B5F1F4F9E01C6
:101150002F5F3F4F41E0BE016D5F7F4FC4010E9492
:101160005007982F811117C08D818230B9F48C817E
:10117000811114C081E00F900F900F900F900F908D
:10118000DF91CF911F910F91FF90EF90CF90AF9093
:101190009F908F90089581E0923069F380E0EBCFCB
:1011A0002F923F924F925F926F927F928F929F9277
:1011B000AF92BF92CF92DF92EF92FF920F931F9365
:1011C000CF93DF93CDB7DEB72D970FB6F894DEBF80
:1011D0000FBECDBF16E0413508F04AC1342E3B01A9
:1011E0004C016CE10E94BE06482F4F776CE1C401B0
:1011F0000E94DC0683E98983332029F081E0F30132
:101200009081953008F480E022242394B12C9B2D0A
:10121000990F990F990FD32CD91AD7FCD12C32E002
:10122000882319F098E89B8333E021E09D2D977087
:1012300009F420E09D2D959595959595290FC9F078
:1012400094E0811193E0291708F4922FEB2DF0E040
:101250003196E60DF71D232F4191A1E0B0E0AC0FD0
:10126000BD1FA20FB11D4C932F5F422F431B491787
:1012700098F3882311F0F8E0DF0E8FE18D150CF064
:1012800082C090E79A838B819C8189279D818927E1
:101290009E8189278F839E01285F3F4F47E0BE01D3
:1012A0006F5F7F4FC4010E94F906182F8111E0C0C3
:1012B0001A86E3E0EB87DC86CE0107962C0199E0E5
:1012C0009D87CA844C2D4295407F4C0D6AE1C40134
:1012D0000E94DC06A12CCE010A967C018E01055FDE
:1012E0001F4F92014D85BE016F5F7F4FC4010E9469
:1012F0005007182F823009F065C06CE1C4010E94CC
:10130000BE0685FDB5C08F7109F480E2282F30E05C
:101310004D2DDD0C550B421753070CF09DC0D82EF8
:10132000E82FE595E595E595EF5F982F977081E0BB
:1013300009F480E0E80F81E090E08C0F9D1F8E0F94
:10134000911DFC01215031092770332781E090E085
:1013500002C0880F991F2A95E2F79C018081822B99
:1013600080838BCF85E98983332031F081E0F301DD
:101370009081983008F04BCF80E049CF87E989838E
:1013800026E0B22EF9CF9D2D97709A878D2D8595E9
:10139000859585958E5F282F2295207F290F2A839A
:1013A00021E0911101C020E0280F2D8744244394AF
:1013B000512C4C0E5D1E480E511CE9E0E81BEB87DA
:1013C000DC867FCF811154C080E2D82E9C8590327C
:1013D0000CF457CF8B81883809F040C083E093E04C
:1013E000EB2DF0E03196E60DF71D980FA1E0B0E08F
:1013F000AC0FBD1FA80FB11D2C9121938F5F8913D6
:10140000F5CFBB84E3E0BE124DC08A8581114AC08E
:101410009E012D5F3F4F41E0B201C4010E94F906D9
:10142000182F811125C09B81F201818198133CC046
:101430009C818281981338C0808182FF12C02394DE
:10144000F2E02F1609F48ECF83E0281609F496CF28
:1014500091E0291609F4CECE15E00AC082E094E0AE
:10146000BFCFF3018387822D880F820D8F5F80832A
:10147000812F2D960FB6F894DEBF0FBECDBFDF9142
:10148000CF911F910F91FF90EF90DF90CF90BF9081
:10149000AF909F908F907F906F905F904F903F9014
:1014A0002F90089511E0E4CF17E0E2CF109255029B
:1014B00008950F931F93CF938C01C62F0E947E0433
:1014C0006C2F6460C8010E947E046C2F6B7FC80182
:1014D0000E947E0483EC90E00197F1F7CF911F9179
:1014E0000F9108950F931F93CF93DF938C01D62F05
:1014F000C42F607F642B0E94590A80E1D89FB001FD
:1015000011246C2BC801DF91CF911F910F910C9486
:10151000590A41E00E94720A81E090E00895EF923A
:10152000FF921F93CF93DF93CDB7DEB769970FB6C6
:10153000F894DEBF0FBECDBF9091E40391113EC081
:10154000182F7F936F9386E491E09F938F93CE0142
:1015500001967C019F938F930E94CD13812F98E079
:10156000E4E0F1E0DE01529601900D929A95E1F7E8
:10157000909134030F900F900F900F900F900F9059
:10158000911710F48FEF890FE82FF0E0EE0FFF1F97
:10159000EE0DFF1D6189606840E08CE293E00E94DF
:1015A000720AF70101900020E9F73197AF014E1957
:1015B0005F09B7018CE293E00E94640169960FB65F
:1015C000F894DEBF0FBECDBFDF91CF911F91FF908A
:1015D000EF90089590E080E00E948C006CE471E050
:1015E00081E090E00C948F0ACF93DF9381E08093A9
:1015F000550267E571E081E090E00E948F0A8091DA
:10160000BB049091BC040A9764F4E9E3F4E0D0E0F1
:10161000C0E081919191892B39F02196CA30D10592
:10162000C1F7DF91CF910895FE01EE0FFF1FEE0F7E
:10163000FF1FE35BFB4F88E893E1A0E0B0E080830D
:101640009183A283B383FE01EE0FFF1FE75CFB4F84
:1016500086E59AE091838083FE01EE0FFF1FEB5831
:10166000FB4F81E090E091838083FE01E356FB4FC6
:1016700080830E948503CC0FDD1FCC0FDD1FCF5E62
:10168000DB4F688379838A839B838091BB0490912D
:10169000BC0401969093BC048093BB04C2CF85ED3B
:1016A0008093BC008091CE019091CF01A091D00198
:1016B000B091D1010796A11DB11D23E0B695A79564
:1016C000979587952A95D1F72091BC0024FD03C0FA
:1016D0001092170208954091CE015091CF01609170
:1016E000D0017091D101452B462B472B69F3009710
:1016F000A105B10541F025E32A95F1F70000019716
:10170000A109B109E1CF8091CD010C94D7031F92BB
:101710000F920FB60F9211242F933F934F935F9325
:101720006F937F938F939F93AF93BF93EF93FF93A9
:101730008AE592E00E94E201FF91EF91BF91AF91A3
:101740009F918F917F916F915F914F913F912F91D9
:101750000F900FBE0F901F9018951F920F920FB60B
:101760000F9211242F938F939F93EF93FF93E09108
:101770006A02F0916B028081E0917002F091710237
:1017800082FD1BC09081809173028F5F8F732091C7
:101790007402821741F0E0917302F0E0E65AFD4FC7
:1017A000958F80937302FF91EF919F918F912F916D
:1017B0000F900FBE0F901F9018958081F4CF1F924D
:1017C0000F920FB60F9211242F933F938F939F93F5
:1017D000AF93BF9380913E0290913F02A09140024F
:1017E000B091410230913D0223E0230F2D3758F58F
:1017F0000196A11DB11D20933D0280933E0290935E
:101800003F02A0934002B093410280914202909126
:101810004302A0914402B09145020196A11DB11D61
:101820008093420290934302A0934402B0934502F6
:10183000BF91AF919F918F913F912F910F900FBECC
:101840000F901F90189526E8230F0296A11DB11D39
:10185000D2CF1F920F920FB60F9211242F933F9366
:101860004F935F936F937F938F939F93AF93BF93A8
:10187000EF93FF93E0910201F09103010995FF912D
:10188000EF91BF91AF919F918F917F916F915F91F8
:101890004F913F912F910F900FBE0F901F90189571
:1018A0001F920F920FB60F9211242F933F934F93D5
:1018B0005F936F937F938F939F93AF93BF93EF93B8
:1018C000FF93E0910001F09101010995FF91EF91E3
:1018D000BF91AF919F918F917F916F915F914F9148
:1018E0003F912F910F900FBE0F901F9018951F9250
:1018F0000F920FB60F9211242F933F934F935F9344
:101900006F937F938F939F93AF93BF93EF93FF93C7
:101910008091B900887F803609F44AC0F0F588329A
:1019200009F4A7C018F5803109F49BC0B8F48823E6
:1019300009F4F9C0883009F494C0FF91EF91BF9188
:10194000AF919F918F917F916F915F914F913F9157
:101950002F910F900FBE0F901F901895883109F4AA
:1019600088C0803251F78093160214C0803409F485
:101970009DC040F48033B9F38833F9F680931602A2
:1019800085ECB0C0803509F485C0883509F496C06F
:10199000883499F60E944F0BD0CF883909F48CC057
:1019A00038F5883729F050F4883611F0803729F659
:1019B00083E0809317021092150257C0883809F40B
:1019C0007BC0803919F0803809F0B7CF80911502BB
:1019D000803208F071C0E091150281E08E0F809393
:1019E00015028091BB00F0E0EB50FE4F80833DC0BC
:1019F000803B39F0E0F4803A09F479C0883A09F084
:101A00009CCF84E0809317021092F4011092F301AE
:101A1000E0914802F091490209958091F30181110A
:101A20000FC081E08093F3011092D30109C0803C84
:101A300009F4A6CF883C09F4A3CF883B09F07DCFF9
:101A4000E091F40181E08E0F8093F401F0E0ED521B
:101A5000FE4F80818093BB009091F4018091F3014F
:101A600029C080913C028093BB0085EC8093BC0030
:101A700064CF90913B0280913A02981758F5E0911B
:101A80003B0281E08E0F80933B02F0E0E65EFD4F6B
:101A90008081E9CFE0913B0281E08E0F80933B0291
:101AA0008091BB00F0E0E65EFD4F808390913B02A9
:101AB00080913A029817C8F285E8D8CFE0913B02AE
:101AC00081E08E0F80933B028091BB00F0E0E65EE8
:101AD000FD4F80838091190281115CCF81E080935A
:101AE000180284EA8093BC001092170226CF85EC7E
:101AF0008093BC001092170280911502803230F45E
:101B0000E0911502F0E0EB50FE4F1082609115025B
:101B100070E0E0914602F091470285EF91E009956F
:101B2000109215020ACF1092160234CF1F920F9214
:101B30000FB60F9211242F933F934F935F936F93A0
:101B40007F938F939F93AF93BF93CF93DF93EF9345
:101B5000FF9380918A01C0912703D0E087FF24C0C2
:101B6000109285001092840080918A018F5F80938B
:101B70008A0180918A01082E000C990B8C179D0711
:101B800024F480918A018C30C4F18091840090917A
:101B90008500049680349C4908F47AC080918400C2
:101BA00090918500049676C080918A01082E000CE1
:101BB000990B8C179D07C4F6E0918A018E2FEE0FCA
:101BC000990BFC01EE0FFF1FE80FF91FED5FFC4FB3
:101BD000808186FFC9CFE0918A018E2FEE0F990B8D
:101BE000FC01EE0FFF1FE80FF91FED5FFC4F808136
:101BF00060E08F730E94C302B7CF209184003091C0
:101C00008500E0918A018E2FEE0F990BFC01EE0FFB
:101C1000FF1FE80FF91FED5FFC4F81819281820F5A
:101C2000931F9093890080938800E0918A018E2F02
:101C3000EE0F990BFC01EE0FFF1FE80FF91FED5F90
:101C4000FC4F808186FF11C0E0918A018E2FEE0F3C
:101C5000990BFC01EE0FFF1FE80FF91FED5FFC4F22
:101C6000808161E08F730E94C302FF91EF91DF9149
:101C7000CF91BF91AF919F918F917F916F915F9124
:101C80004F913F912F910F900FBE0F901F9018957D
:101C900080E49CE990938900809388008FEF809383
:101CA0008A01E3CFCF93DF9310925D0210925C0222
:101CB00088EE93E0A0E0B0E080935E0290935F0234
:101CC000A0936002B093610220E131E030935B02A7
:101CD00020935A0225EC30E030936702209366028D
:101CE00024EC30E0309369022093680220EC30E06D
:101CF00030936B0220936A0221EC30E030936D0246
:101D000020936C0222EC30E030936F0220936E023D
:101D100026EC30E03093710220937002109273022F
:101D20001092740210927502109276021092FA02CA
:101D30001092F9028093FB029093FC02A093FD02A3
:101D4000B093FE0282E291E09093F8028093F70252
:101D50000E948503CDE9D4E0E9E3F4E041E154E0F9
:101D6000199211921192DA016D937D938D939D9347
:101D7000AD019F01225B3F4FD9011D921C92B4E03F
:101D8000ED34FB0769F71092BC041092BB0482E0AB
:101D900090E090930A048093090462E00E94F102AB
:101DA00010920C0410920B0480E491E09093FA03DB
:101DB0008093F9038AE08093070489E08093080404
:101DC00083E090E09093ED038093EC031092EF0397
:101DD0001092EE031092F3031092F20384E690E067
:101DE0009093F1038093F0030E9485036093F403C2
:101DF0007093F5038093F6039093F70361E083E01B
:101E00000E94F10281E08093F80384E090E09093D7
:101E1000EB038093EA0361E00E94F10285E090E029
:101E20009093E9038093E80361E00E94F1028091BE
:101E300027038C3008F057C091E0980F9093270348
:101E40008093E50390E0FC01EE0FFF1FE80FF91F00
:101E5000ED5FFC4F88EB9BE09283818380E092EC06
:101E6000A1E0B0E08093280390932903A0932A0374
:101E7000B0932B0310922F0310922E0384E391E072
:101E800090932D0380932C0387E28093300380E1AD
:101E90008093350382E080933603109237030E94CB
:101EA0008503C4ECD3E0E0E6F3E048E353E01992A5
:101EB00011921192DA016D937D938D939D93AD01F3
:101EC0009F01225B3F4FD9011D921C92B3E0E43782
:101ED000FB0769F71092E3031092E2031092E40308
:101EE000DF91CF9108958FEF8093E503B7CFCF9324
:101EF000DF93CDB7DEB7A1970FB6F894DEBF0FBE64
:101F0000CDBF789484B5826084BD84B5816084BD82
:101F100085B5826085BD85B5816085BD80916E0087
:101F2000816080936E0010928100809181008260B8
:101F300080938100809181008160809381008091F5
:101F400080008160809380008091B10084608093E4
:101F5000B1008091B00081608093B00080917A00E0
:101F6000846080937A0080917A00826080937A0006
:101F700080917A00816080937A0080917A008068F5
:101F800080937A001092C100609128037091290318
:101F900080912A0390912B030E94F1008091E40329
:101FA000811189C010924D0210924C0210924B0286
:101FB00010924A020E94B90382E691E0909349028E
:101FC0008093480283E691E0909347028093460213
:101FD0001092310380913603823018F098E090938C
:101FE00031038093340362E370E080E090E00E946C
:101FF0005203609137038CE293E00E947E0468EE06
:1020000073E080E090E00E94520360E38CE293E092
:102010000E94590A0BE416E4C8010197F1F760E346
:102020008CE293E00E94590AC8010197F1F760E33E
:102030008CE293E00E94590A83E592E00197F1F760
:1020400060E28CE293E00E94590A60913103606281
:1020500040E08CE293E00E94720A84E080933203B5
:1020600040E06CE08CE293E00E94720A40E061E0A4
:102070008CE293E00E94720A0BE31FE1C801019712
:10208000F1F782E08093330340E066E08CE293E076
:102090000E94720A40E062E08CE293E00E94720AC1
:1020A000C8010197F1F788E08093370360E08CE284
:1020B00093E00E947E0462E671E090E080E00E947E
:1020C0008F0A60E072EC81E090E00E94F1001FB79F
:1020D000F89480914E02811127C0E8EBF0E08491E2
:1020E000E4EAF0E09491E82FF0E0EE0FFF1FE057F4
:1020F000FF4FA591B491EC91E92321F461E08AE0CE
:102100000E94C30261E08AE00E94F1028CB5806106
:102110008CBD8CB580648CBD61E08DE00E94F102C5
:1021200061E08BE00E94F10280914E028F5F80930C
:102130004E021FBF61E0809107040E94F10261E03E
:10214000809107040E94C302809108048F3F09F424
:10215000E7C160E00E94F102809108040E949A02A7
:10216000892B09F0DDC161E0809108040E94F10231
:1021700060E0809108040E94C30283E090E0019730
:10218000F1F761E0809108040E94C30262E370E00D
:1021900080E090E00E94520340E064E289EF93E027
:1021A0000E94DC0640E066E289EF93E00E94DC06D4
:1021B00046E268E489EF93E00E94DC0640E864E5CB
:1021C00089EF93E00E94DC0649EA66E589EF93E037
:1021D0000E94DC0643E068E589EF93E00E94DC069C
:1021E00048EE6AE589EF93E00E94DC0640E46AE28B
:1021F00089EF93E00E94DC064DE362E289EF93E011
:102200000E94DC0668E289EF93E00E94BE06982FE8
:102210009370933039F0482F436068E289EF93E080
:102220000E94DC0684EF9AE090930C0480930B04E8
:102230008091E5038C3008F051C061E086E00E9497
:10224000F1028091E503282F30E0F901EE0FFF1F26
:10225000E20FF31FED5FFC4F9081907C96609083BE
:102260001092E6031092E7032CE0622F0E94BB134A
:10227000829FB001112430E020E0AB01420F531FD8
:10228000FA01EE0FFF1FE40FF51FED5FFC4F908189
:1022900096FD16C02F5F3F4F2C30310571F781112D
:1022A0000FC01092800082E0809381001092850020
:1022B00010928400B19A80916F00826080936F00C9
:1022C000E091E5038E2F90E0FC01EE0FFF1FE80F79
:1022D000F91FED5FFC4F80818064808390E080E097
:1022E0000E948C0068E8862E63E1962EA12CB12C0A
:1022F00070E0272E70E0372E88E393E00E94690596
:10230000809109040E949A028C016AE070E080E0EA
:1023100090E00E945203809109040E949A02012BCE
:1023200049F0892B39F4E0910B04F0910C043097BB
:1023300009F0099581E194E00E94690589EF93E035
:102340000E946D08882309F45AC189EF93E00E9426
:102350007706882309F453C18091FC0380935602C9
:102360008091FD03809357028091FE038093580271
:102370008091FF03809359020E94F40A80915502D4
:10238000882309F45DC006E512E0F12CE12CF80188
:1023900061918F01C7010E941313FFEFEF1AFF0A2B
:1023A00084E0E816F10499F74FE4C42E42E0D42EFD
:1023B000F12CE12C5AE0452E512C612C712CC701D7
:1023C0000E940B1390E0909354028093530241E0DB
:1023D00050E06CE671E08AE592E00E946401209191
:1023E0005302F60121936F0130E050E040E019A262
:1023F0008E010F5D1F4FCA01B901A30192010E9416
:102400008A13605DF80162938F0121153105410542
:10241000510589F7309761F001900020E9F7319775
:10242000AF01401B510BB8018AE592E00E946401A4
:10243000FFEFEF1AFF0A84E0E816F10409F0BFCFBE
:1024400090914F028091FC03981349C090915002E3
:102450008091FD0398132AC0909151028091FE0350
:10246000981324C0909152028091FF0398131EC0CC
:102470008AE590E00E948C006EE671E081E090E0D9
:102480000E948F0A8091BB049091BC040A9774F457
:10249000E9E3F4E010E000E081919191892B09F4E7
:1024A00056C00F5F1F4F0A301105B1F79091FC0322
:1024B00080914F02981313C0909150028091FD03B8
:1024C00098130DC0909151028091FE03981307C09C
:1024D000909152028091FF03981709F470C061E057
:1024E0008091E8030E94C30261E08091EC030E94A6
:1024F000C30268EE73E080E090E00E94520360E067
:102500008091EC030E94C30260E08091E8030E9486
:10251000C30268E771E081E090E00E948F0A6FC01B
:102520004FE062E089EF93E00E94DC0613E062E393
:1025300070E080E090E00E94520362E089EF93E057
:102540000E94BE0684FF28CE115089F725CEF801DF
:10255000EE0FFF1FEE0FFF1FE35BFB4F80829182A8
:10256000A282B382F801EE0FFF1FE75CFB4F8AEEF9
:102570009AE091838083F801EE0FFF1FEB58FB4F29
:1025800081E090E091838083F801E356FB4F8083E4
:102590000E948503000F111F000F111FF801EF5E4D
:1025A000FB4F60837183828393838091BB049091FE
:1025B000BC0401969093BC048093BB0477CF61E088
:1025C0008091EA030E94C30261E08091EC030E94C3
:1025D000C30264E670E080E090E00E94520360E095
:1025E0008091EC030E94C30268EE73E080E090E00B
:1025F0000E94520360E08091EA030E94C30221140A
:10260000310409F479CE0E94CE01882309F474CEF6
:102610000E94000071CEF999FECF92BD81BDF89A5B
:10262000992780B50895262FF999FECF1FBA92BD3C
:1026300081BD20BD0FB6F894FA9AF99A0FBE0196A3
:102640000895052E97FB1EF400940E94381357FD41
:1026500007D00E948A1307FC03D04EF40C94381361
:1026600050954095309521953F4F4F4F5F4F0895BE
:1026700090958095709561957F4F8F4F9F4F0895EE
:102680000E94AC13A59F900DB49F900DA49F800D48
:10269000911D11240895B7FF0C9440130E9440131C
:1026A000821B930B08952F923F924F925F926F92ED
:1026B0007F928F929F92AF92BF92CF92DF92EF92D2
:1026C000FF920F931F93CF93DF93CDB7DEB7CA1B53
:1026D000DB0B0FB6F894DEBF0FBECDBF09942A887E
:1026E000398848885F846E847D848C849B84AA8426
:1026F000B984C884DF80EE80FD800C811B81AA81B3
:10270000B981CE0FD11D0FB6F894DEBF0FBECDBF7D
:10271000ED010895A1E21A2EAA1BBB1BFD010DC0FD
:10272000AA1FBB1FEE1FFF1FA217B307E407F50781
:1027300020F0A21BB30BE40BF50B661F771F881F5D
:10274000991F1A9469F760957095809590959B01F3
:10275000AC01BD01CF010895A29FB001B39FC0019C
:10276000A39F700D811D1124911DB29F700D811DBD
:102770001124911D0895991B79E004C0991F9617A3
:1027800008F0961B881F7A95C9F780950895EE0F7B
:10279000FF1F0590F491E02D0994AEE0B0E0E3ED69
:1027A000F3E10C9461130D891E8986E08C831A83F2
:1027B00009838FEF9FE79E838D83AE01475E5F4F56
:1027C0006F89788DCE0101960E94F0132F81388594
:1027D000020F131FF80110822E96E4E00C947D1373
:1027E000ABE0B0E0E6EFF3E10C9453137C013B0166
:1027F0008A01FC0117821682838181FFC8C1CE0144
:1028000001965C01F7019381F30193FD859193FF9C
:1028100081913F01882309F453C1853239F493FD36
:10282000859193FF81913F01853229F4B70190E0B2
:102830000E94E015E7CF912C212C312CFFE1F315FC
:1028400038F08B3211F190F4803209F1833229F1A2
:1028500037FC3CC020ED280F2A3050F536FE20C052
:102860008AE0989E200D1124922E06C08D3291F0A0
:10287000803371F7689430F8F30193FD859193FFED
:1028800081913F018111DACF21C0689431F86894B9
:1028900032F8F2CF689433F8EFCF689434F8ECCF85
:1028A000EAE02E9E200D1124222E689435F8E4CF04
:1028B0008E3229F436FC04C1689436F8DDCF8C36AC
:1028C00019F4689437F8D8CF8836B1F2982F9F7DE5
:1028D00095549330E0F08336A1F18337C1F183350D
:1028E00009F063C02801F2E04F0E511CF801C080CE
:1028F000D180692D70E036FC02C06FEF7FEFC6011A
:102900000E94CA154C01689437F882010AC00C5F16
:102910001F4FFFE3F98388248394912C6501E89489
:1029200037F833FE2DC0522C8114910471F55520D7
:1029300009F468CFB70180E290E00E94E0155A9454
:10294000F6CFF801808189830E5F1F4FE4CF280105
:10295000F2E04F0E511CF801C080D180692D70E06B
:1029600036FC02C06FEF7FEFC6010E94D5154C0107
:102970008201D5CFB70180E290E00E94E0152A9451
:102980002814190409F0B0F7CECFF60137FC859171
:1029900037FE81916F01B70190E00E94E015511060
:1029A0005A94F1E08F1A9108BFCF843619F0893616
:1029B00009F077C0F80137FE6BC0608171818281B8
:1029C00093810C5F1F4FF32DFF763F2E97FF09C0B9
:1029D00090958095709561957F4F8F4F9F4F68942C
:1029E00037F82AE030E0A5010E941016C82ECA1858
:1029F0008C2C432C36FE0CC0E89440F8C91440F4EB
:102A000034FE05C032FC03C0F32DFE7E4F2E892C10
:102A100044FE95C0FE01EC0DF11D8081803309F06C
:102A200087C0242D297E422E842D8870582E43FC89
:102A300095C040FE8FC09C2C821418F42C0C922C54
:102A4000981844FE91C0B70180E390E00E94E01521
:102A500042FE09C088E790E041FE02C088E590E0B0
:102A6000B7010E94E015C91408F48AC0CA94D12C99
:102A70009FEFC91AD90ACA0CDB1CF60182916F01BB
:102A8000B70190E00E94E015AC14BD04B1F74FCF40
:102A900060817181072E000C880B990B0E5F1F4F10
:102AA00092CFD32CE894D4F82AE030E0853739F17E
:102AB000232D297FD22E8F3601F148F48835A9F0D5
:102AC000F701868197812B96E2E10C946F13803792
:102AD00049F08837A9F7D4FE02C06894D2F820E103
:102AE00030E00DC06894D4F8F6CF34FE03C0822FD6
:102AF0008660D82E20E132E002C028E030E0F80104
:102B0000D7FE0FC060817181828193810C5F1F4F5E
:102B1000A5010E941016C82ECA183D2CE89437F85B
:102B200067CF6081718190E080E00E5F1F4FF0CF32
:102B300042FC02C0839478CF8394839475CF842D14
:102B4000867809F471CFF6CFB70180E290E00E9459
:102B5000E01583948214C0F3512C73CF522C581873
:102B6000821408F46ECFF8CF842D867809F47BCFD9
:102B70008BE241FE80E247FC8DE2B70190E071CF2D
:102B8000B70180E390E00E94E0159A946CCF8FEF3C
:102B90009FEF99CFFC010590615070400110D8F76C
:102BA000809590958E0F9F1F0895FC016150704095
:102BB00001900110D8F7809590958E0F9F1F089572
:102BC0000F931F93CF93DF93182F092FEB018B8166
:102BD00081FD09C01FEF0FEF812F902FDF91CF9163
:102BE0001F910F91089582FF14C02E813F818C8127
:102BF0009D81281739073CF4E881F981CF010196BE
:102C00009983888310838E819F8101969F838E8311
:102C1000E3CFE885F985812F0995892BA1F3DACFD8
:102C2000FA01AA27283051F1203181F1E8946F93FD
:102C30006E7F6E5F7F4F8F4F9F4FAF4FB1E03ED0A3
:102C4000B4E03CD0670F781F891F9A1FA11D680F41
:102C5000791F8A1F911DA11D6A0F711D811D911D74
:102C6000A11D20D009F468943F912AE0269F1124E9
:102C70003019305D3193DEF6CF010895462F47704D
:102C8000405D4193B3E00FD0C9F7F6CF462F4F70A8
:102C9000405D4A3318F0495D31FD4052419302D006
:102CA000A9F7EACFB4E0A6959795879577956795AC
:102CB000BA95C9F700976105710508959B01AC01AC
:102CC0000A2E06945795479537952795BA95C9F7D3
:102CD000620F731F841F951FA01D0895F894FFCFE6
:102CE0009103910300004000140054000000000014
:102CF0000402640191015102C201A001B40100006B
:102D000000004F0422046605F8031B040804F903BD
:102D100000000000890A64016605650500000000E6
:102D2000D0086D087706252D31367300436C6F731C
:102D30006520646F6F7200746F75636820636172E1
:102D400064005B5B53544154455D5D0020004F704F
:102D5000656E20646F6F7200636172642069732016
:0A2D60006E6F7420657175616C00E0
:107E0000112484B714BE81FFF0D085E080938100F7
:107E100082E08093C00088E18093C10086E0809377
:107E2000C20080E18093C4008EE0C9D0259A86E02C
:107E300020E33CEF91E0309385002093840096BBD3
:107E4000B09BFECF1D9AA8958150A9F7CC24DD24C4
:107E500088248394B5E0AB2EA1E19A2EF3E0BF2EE7
:107E6000A2D0813461F49FD0082FAFD0023811F036
:107E7000013811F484E001C083E08DD089C08234E0
:107E800011F484E103C0853419F485E0A6D080C0E4
:107E9000853579F488D0E82EFF2485D0082F10E0AE
:107EA000102F00270E291F29000F111F8ED06801E7
:107EB0006FC0863521F484E090D080E0DECF843638
:107EC00009F040C070D06FD0082F6DD080E0C81688
:107ED00080E7D80618F4F601B7BEE895C0E0D1E017
:107EE00062D089930C17E1F7F0E0CF16F0E7DF06D8
:107EF00018F0F601B7BEE89568D007B600FCFDCFD4
:107F0000A601A0E0B1E02C9130E011968C91119780
:107F100090E0982F8827822B932B1296FA010C0160
:107F200087BEE89511244E5F5F4FF1E0A038BF0790
:107F300051F7F601A7BEE89507B600FCFDCF97BE46
:107F4000E89526C08437B1F42ED02DD0F82E2BD052
:107F50003CD0F601EF2C8F010F5F1F4F84911BD097
:107F6000EA94F801C1F70894C11CD11CFA94CF0C13
:107F7000D11C0EC0853739F428D08EE10CD085E9AC
:107F80000AD08FE07ACF813511F488E018D01DD067
:107F900080E101D065CF982F8091C00085FFFCCF94
:107FA0009093C60008958091C00087FFFCCF809118
:107FB000C00084FD01C0A8958091C6000895E0E648
:107FC000F0E098E1908380830895EDDF803219F02E
:107FD00088E0F5DFFFCF84E1DECF1F93182FE3DFCA
:107FE0001150E9F7F2DF1F91089580E0E8DFEE27F6
:047FF000FF270994CA
:027FFE00040479
:00000001FF
