:100000000C945D000C947A000C947A000C947A00A5
:100010000C947A000C947A000C947A000C947A0078
:100020000C947A000C947A000C947A000C947A0068
:100030000C947A000C947A000C947A000C947A0058
:100040000C94A1000C947A000C947A000C947A0021
:100050000C947A000C947A000C947A000C947A0038
:100060000C947A000C947A00000000080002010051
:100070000003040700000000000000000000000072
:10008000250028002B0000000000240027002A0083
:10009000040404040404040402020202020203032E
:1000A0000303030301020408102040800102040836
:1000B0001020010204081020E70111241FBECFEF19
:1000C000D8E0DEBFCDBF21E0A0E0B1E001C01D92CD
:1000D000A331B207E1F710E0CDE5D0E004C02197ED
:1000E000FE010E940502CC35D107C9F70E940A0122
:1000F0000C940B020C9400003FB7F894809105011A
:1001000090910601A0910701B091080126B5A89B26
:1001100005C02F3F19F00196A11DB11D3FBFBA2F99
:10012000A92F982F8827BC01CD01620F711D811D59
:10013000911D42E0660F771F881F991F4A95D1F7DE
:1001400008951F920F920FB60F9211242F933F9391
:100150008F939F93AF93BF93809101019091020180
:10016000A0910301B09104013091000123E0230F1D
:100170002D3758F50196A11DB11D209300018093E4
:10018000010190930201A0930301B09304018091B7
:10019000050190910601A0910701B0910801019617
:1001A000A11DB11D8093050190930601A093070145
:1001B000B0930801BF91AF919F918F913F912F9183
:1001C0000F900FBE0F901F90189526E8230F0296F0
:1001D000A11DB11DD2CF90E0FC01EC55FF4F249141
:1001E00080579F4FFC018491882399F090E0880FFD
:1001F000991FFC01EA57FF4FA591B491FC01E45807
:10020000FF4F859194918FB7F894EC91E22BEC938A
:100210008FBF0895789484B5826084BD84B5816071
:1002200084BD85B5826085BD85B5816085BD8091C1
:100230006E00816080936E00109281008091810039
:100240008260809381008091810081608093810031
:10025000809180008160809380008091B1008460F3
:100260008093B1008091B00081608093B000809154
:100270007A00846080937A0080917A008260809313
:100280007A0080917A00816080937A0080917A0070
:10029000806880937A001092C100C0E0D0E0ABE0AB
:1002A000B1E030E020E08D919D919927FC01E85963
:1002B000FF4F5491FC01EC55FF4F4491FC01E05776
:1002C000FF4FE491EE2321F18091090190910A0101
:1002D000552359F0533009F460C008F053C0513031
:1002E00009F461C0523009F462C0F0E0EE0FFF1F64
:1002F000E458FF4F659174915FB7F894FB01821742
:10030000930709F461C080814095482340835FBF13
:100310002F5F3F4F2430310509F0C5CF809109018F
:1003200090910A01019690930A01809309010E941D
:100330007C004B015C0188EEC82E83E0D82EE12CB6
:10034000F12C0E947C00681979098A099B09683E92
:10035000734081059105A8F3F1E0CF1AD108E108B7
:10036000F10828EE820E23E0921EA11CB11CC114DC
:10037000D104E104F10429F7209709F490CF0E94F9
:1003800000008DCF5730B1F05830D1F0543009F023
:10039000ACCF509180005F7D03C0509180005F77AB
:1003A00050938000A2CF54B55F7754BD9ECF54B513
:1003B0005F7DFBCF5091B0005F775093B00095CF39
:1003C0005091B0005F7DF9CF8081482B9FCFCF93B4
:1003D000DF93CBE0D1E083E090E0998388830E94B3
:1003E000EB0084E090E09B838A830E94EB0085E031
:1003F00090E09D838C830E94EB0086E090E09F83D9
:100400008E83DF91CF910C94EB00EE0FFF1F0590D0
:0A041000F491E02D0994F894FFCF59
:00000001FF
